:040000000CEF00F011
:10000800FACF9AF0FBCF9BF0E9CF9CF01AED18F0ED
:1000180034EF22F0000E0001736F490E0001726F79
:100028004FEF07F000017F51250AD8B40BD045C027
:10003800D9FF46C0DAFF00017FC0DFFF454A462AE4
:100048004FEF07F0000E00017C6F000E00017B6F80
:10005800000E0001776F000E0001766F04D00001DA
:100068007685474A482A47C0F6FF48C0F7FF080088
:10007800F550300AD8B4F3D747C0F6FF48C0F7FFA9
:100088000800F550F5EC22F0D8A037D0000E00019A
:100098007C6F000E00017B6F7BC00FF07CC010F0FE
:1000A800000E126E0A0E116ED0EC22F00FC07BF01B
:1000B80010C07CF0D00E516EFF0E526E47C0F6FF96
:1000C80048C0F7FF0800F550536E546A5150532644
:1000D80052505422535000017B27545000017C2376
:1000E800474A482A47C0F6FF48C0F7FF0800F550BE
:1000F800F5EC22F0D8A01CD0CFD747C0F6FF48C0F7
:10010800F7FF0800F5502A0AD8A412D072C0D9FF08
:1001180073C0DAFF0001DECF7BF00001DDCF7CF099
:10012800020E00017227000E00017323474A482A75
:1001380047C0F6FF48C0F7FF0800F5502E0AD8A4BC
:100148004FD00001778D474A482A47C0F6FF48C07C
:10015800F7FF0800F5502A0AD8A413D072C0D9FFB7
:1001680073C0DAFF0001DECF7DF00001DDCF7EF045
:10017800020E00017227000E00017323474A482A25
:1001880007D1000E00017E6F000E00017D6F1DD0AB
:100198007DC00FF07EC010F0000E126E0A0E116EB8
:1001A800D0EC22F047C0F6FF48C0F7FF0800F55032
:1001B8000F26000E1022D00E0F2400017D6FFF0EB7
:1001C800102000017E6F474A482A47C0F6FF48C002
:1001D800F7FF0800F550F5EC22F0D8A0D9D0D8D711
:1001E800000E00017E6F000E00017D6F000177890F
:1001F800CFD000017689CCD000017785ECD072C0D1
:10020800D9FF73C0DAFF0001DECF80F00001DDCF37
:1002180081F0020E00017227000E00017323000115
:1002280081518011D8A406D07F0E0001816FD60EAF
:100238000001806F000E0001836F000E0001826FC5
:1002480003D00001824B832B000180C051F00001D4
:1002580081C052F00001825151260001835152227F
:1002680051C0F6FF52C0F7FFF86A070EF76403D0D3
:100278000800F55005D0F6CFE9FFF7CFEAFFEF50B9
:100288000009D8A4DED700017E517D11D8B40ED064
:100298000001825100017D5D0001835100017E59FA
:1002A800D8B004D07DC082F07EC083F000017B51BD
:1002B8000001825D00017C5100018359D8B00AD049
:1002C800000120EE82F0DE5000017B5FDD5000016E
:1002D8007C5B0FD0000E00017C6F000E00017B6F6D
:1002E80008D045C0D9FF46C0DAFF200EDF6E454A68
:1002F800462A00017B07D8A07C0700017B29D8B4D7
:100308007C29D8B41DD0EDD7000180C0F6FF0001CC
:1003180081C0F7FFF86A45C0D9FF46C0DAFF070E6B
:10032800F76403D00800F55005D0F6CFE9FFF7CF02
:10033800EAFFEF50DF6E0001804B812B454A462AC9
:1003480000018207D8A0830700018229D8B4832935
:10035800D8B44FEF07F0D8D772C0D9FF73C0DAFF0F
:10036800DF5000017F6F020E00017227000E0001AE
:1003780073230001000E0001816F00017F0E000150
:10038800806F000E0001836F010E0001826F7BD722
:1003980047C0F6FF48C0F7FF474A482A080000014F
:1003A800F5CF7FF000017F51000AD8B45DEF07F068
:1003B800630AD8B4D1D7070AD8B40DD0020AD8B482
:1003C8001BD70F0AD8B407D0050AD8B412D71F0A0A
:1003D800D8B415D7CED7070E00017715D8B4A9D34E
:1003E800000177A906D0000E00017E6F060E0001FD
:1003F8007D6F72C0D9FF73C0DAFF0001DECF78F0DD
:100408000001DECF79F00001DDCF7AF0030E0001A4
:100418007227000E0001732300017A51800A800FB1
:1004280007E1000E0001795D03E1000E0001785D2F
:10043800D8B011D078C001F079C002F07AC003F0CA
:10044800BDEC22F001C078F002C079F003C07AF068
:10045800030E00017613000E0001756F000E0001F7
:10046800746F7F0E00017A1500017911000178116F
:10047800D8B497D0820E516EFF0E526E000178C02C
:1004880053F0000179C054F000017AC055F0000122
:100498007BC056F0100E05D0D890563255325432E3
:1004A8005332E82EF9D7535051240001746F000ECF
:1004B80052200001756F00017407D8A0750774C039
:1004C8000FF075C010F0000E126E030E116ED0EC16
:1004D80022F00FC074F010C075F074C007F075C03A
:1004E80008F0000E0A6E0A0E096EC4EC1DF007C073
:1004F80074F008C075F000017551800AF36E800E23
:10050800F35C000ED8B4745DD8B004D00001740751
:10051800D8A075070001745100082BEC0EF024C018
:100528006FF025C070F026C071F06FC015F070C074
:1005380016F071C017F078C018F079C019F07AC0B9
:100548001AF061EC1BF015C06FF016C070F017C000
:1005580071F06FC001F070C002F071C003F0000EBE
:10056800046E800E056E3F0E066EACEC1EF0D8B021
:1005780005D000017407D8A0750713D06FC001F02B
:1005880070C002F071C003F0000E046E200E056EFC
:10059800410E066EACEC1EF0D8A003D00001744BDF
:1005A800752B00017E51800AF36E800EF35C0D0EF0
:1005B800D8B47D5DD8B018D078C033F079C034F0A5
:1005C8007AC035F000017D5119EC13F024C036F0E3
:1005D80025C037F026C038F044EC17F033C078F067
:1005E80034C079F035C07AF000017551800AF36E95
:1005F800800EF35C0A0ED8B4745DD8B028D07F0E94
:1006080000017A150001791100017811D8B46BD076
:1006180078C024F079C025F07AC026F0AFEC1CF041
:1006280024C051F025C052F026C053F027C054F022
:100638005450511052105310D8A455D00001755180
:10064800800A800F020ED8B4745DD8A04CD06FC059
:1006580001F070C002F071C003F0700E046E890ED4
:10066800056E400E066EACEC1EF0D8B003D000014B
:10067800F70E02D00001F80E00017427FF0E0001EA
:100688007523000174512BEC0EF024C06FF025C0C7
:1006980070F026C071F078C001F079C002F07AC01D
:1006A80003F06FC004F070C005F071C006F07AEC7A
:1006B80019F001C063F002C064F003C065F004C023
:1006C80066F063C080F064C081F065C082F066C0E7
:1006D80083F0000E0001786F000E0001796F000EA4
:1006E80000017A6F34D078C024F079C025F07AC040
:1006F80026F0AFEC1CF024C080F025C081F026C0A5
:1007080082F027C083F078C03FF079C040F07AC00B
:1007180041F080C009F081C00AF082C00BF083C0AC
:100728000CF017EC21F009C042F00AC043F00BC0EE
:1007380044F077EC22F03FC078F040C079F041C037
:100748007AF0000E0001756F000E0001746F010E43
:1007580000017F6F00017F510A0AD8B41ED0000142
:100768007F51040DE00EF324F66E7E0EF420F76E32
:100778000900F5500001805D0900F550000181591C
:100788000900F550000182590900F550000183590C
:10079800D8A003D000017F2BDDD700017FC051F026
:1007A800526A51BE520600017D51512600017E5108
:1007B80052220001745151260001755152225150A4
:1007C80000017B5F525000017C5B00017E517D116E
:1007D800D8B404D000017B07D8A07C07030E000121
:1007E8007615516E000E00017715526E5250511059
:1007F800D8B404D000017B07D8A07C07000176A5F7
:1008080039D0030E00017615516E000E00017715E0
:10081800526E52505110D8B415D045C0D9FF46C0B9
:10082800DAFF2D0EDF6E454A462A0CD045C0D9FFA7
:1008380046C0DAFF300EDF6E454A462A00017B07C4
:10084800D8A07C0700017C51800AF36E800EF35C0F
:10085800010ED8B47B5DD8A075D0E8D745C0D9FFC4
:1008680046C0DAFF200EDF6E454A462A00017B07A4
:10087800D8A07C0700017C51800AF36E800EF35CDF
:10088800010ED8B47B5DD8B0E9D7030E0001761508
:10089800516E000E00017715526E52505110D8B4A7
:1008A80051D045C0D9FF46C0DAFF2D0E48D080C0D0
:1008B80001F081C002F082C003F083C004F000019F
:1008C8007F51040DE00EF324F66E7E0EF420F76ED1
:1008D8000900F5CF05F00900F5CF06F00900F5CFBE
:1008E80007F00A00F5CF08F0C7EC1FF001C067F069
:1008F80002C068F003C069F004C06AF067C00EF077
:1009080068C00FF069C010F06AC011F00A0E126ECC
:10091800000E136E000E146E000E156EB4EC20F06F
:100928000EC067F00FC068F010C069F011C06AF01F
:1009380000016751300F45C0D9FF46C0DAFFDF6EAE
:10094800454A462A00017F0700017F29D8B40DD007
:10095800AED745C0D9FF46C0DAFF300EDF6E454A34
:10096800462A00017407D8A0750700017551800A4E
:10097800F36E800EF35C010ED8B4745DD8B0E9D77D
:1009880000017E51800A800F090ED8B47D5DD8A081
:1009980004D0080E00017F6F02D07DC07FF00001F7
:1009A8007F5100017D5F000E00017FBFFF0E000137
:1009B8007E5B00017F51D8B408D045C0D9FF46C03E
:1009C800DAFF2E0EDF6E454A462A00017F512BECD6
:1009D8000EF024C060F025C061F026C062F078C037
:1009E80018F079C019F07AC01AF060C015F061C02B
:1009F80016F062C017F061EC1BF015C024F016C0A9
:100A080025F017C026F0AFEC1CF024C080F025C0FC
:100A180081F026C082F027C083F072D080C001F038
:100A280081C002F082C003F083C004F000017F514E
:100A3800040DE00EF324F66E7E0EF420F76E090026
:100A4800F5CF05F00900F5CF06F00900F5CF07F05E
:100A58000A00F5CF08F0C7EC1FF001C06BF002C028
:100A68006CF003C06DF004C06EF06BC00EF06CC08B
:100A78000FF06DC010F06EC011F00A0E126E000E6D
:100A8800136E000E146E000E156EB4EC20F00EC03E
:100A98006BF00FC06CF010C06DF011C06EF000016B
:100AA8006B51300F45C0D9FF46C0DAFFDF6E454AAB
:100AB800462A80C00EF081C00FF082C010F083C0BB
:100AC80011F000017F51040DE00EF324F66E7E0E46
:100AD800F420F76E0900F5CF12F00900F5CF13F0F6
:100AE8000900F5CF14F00A00F5CF15F0B4EC20F0AA
:100AF8000EC080F00FC081F010C082F011C083F0EA
:100B080000017F0700017F29D8B40DD087D745C0E1
:100B1800D9FF46C0DAFF300EDF6E454A462A00018B
:100B28007D07D8A07E0700017E517D11D8B4B3D1CE
:100B3800EED7000176A912D072C0D9FF73C0DAFFD0
:100B48000001DECF80F00001DECF81F00001DECFB2
:100B580082F00001DECF83F0040E14D072C0D9FFFA
:100B680073C0DAFF0001DECF80F00001DDCF81F035
:100B78000001000E000181BFFF0E0001826F00011D
:100B8800836F020E00017227000E0001732300011B
:100B98008351800A800F0BE1000E0001825D07E19E
:100BA800000E0001815D03E1000E0001805DD8B0F8
:100BB80012D0030E000176130001831F0001821F6B
:100BC8000001811F0001806D000E000181230001DA
:100BD80082230001832300017E517D11D8A40AD00D
:100BE80000018351801181118211D8A403D0000122
:100BF8007D4B7E2B010E00017F6F00017F510A0A99
:100C0800D8B41ED000017F51040DE00EF324F66E17
:100C18007E0EF420F76E0900F5500001805D090092
:100C2800F550000181590900F55000018259090069
:100C3800F55000018359D8A003D000017F2BDDD7E0
:100C4800800E00017FBF7F0E516E00017D510001B3
:100C58007F5D00017E51800A5158D8B003D07DC015
:100C68007FF018D000017E51800A516E00017F513B
:100C780000017D5D800E00017FBF7F0E5158D8B006
:100C880009D000017F5100017D6F00017E6B0001DA
:100C98007DBF7E0700017C517B11D8B410D0030EB4
:100CA80000017615516E000E00017715526E5250F4
:100CB8005110D8B404D000017B07D8A07C070001EC
:100CC80077AD1DD000017E51800A516E00017B5125
:100CD80000017D5D00017C51800A5158D8B009D0CF
:100CE80000017D5100017B5F00017E5100017C5BAA
:100CF80006D0000E00017C6F000E00017B6F800E95
:100D080000017FBF7F0E516E00017B5100017F5DA6
:100D180000017C51800A5158D8B00BD000017F5196
:100D280000017B5F000E00017FBFFF0E00017C5BAE
:100D380006D0000E00017C6F000E00017B6F0001E1
:100D480076A527D0030E00017615516E000E00011E
:100D58007715526E52505110D8B408D045C0D9FFFB
:100D680046C0DAFF2D0EDF6E454A462A0001000113
:100D78007C517B11D8B485D045C0D9FF46C0DAFF75
:100D8800300EDF6E454A462A00017B07D8A07C0753
:100D9800EED700017C517B11D8B411D045C0D9FFE2
:100DA80046C0DAFF200EDF6E454A462A00017B075F
:100DB800D8A07C0700017C517B11D8A4EFD7030E83
:100DC80000017615516E000E00017715526E5250D3
:100DD8005110D8B456D045C0D9FF46C0DAFF2D0E01
:100DE800DF6E4DD000017DC051F000017EC052F091
:100DF800D89051365236D89051365236E00E51249A
:100E0800F66E7E0E5220F76E0900F5CF05F0090048
:100E1800F5CF06F00900F5CF07F00A00F5CF08F086
:100E280080C001F081C002F082C003F083C004F0EA
:100E3800C7EC1FF001C00EF002C00FF003C010F0A5
:100E480004C011F00A0E126E000E136E000E146E1E
:100E5800000E156EB4EC20F00EC053F00FC054F025
:100E680010C055F011C056F05350300F00017F6F7D
:100E780045C0D9FF46C0DAFF00017FC0DFFF454A01
:100E8800462A00017D07D8A07E0700017D29D8B435
:100E98007E29D8A4A7D747C0F6FF48C0F7FF474A1E
:100EA800482A08000001F5CF7FF000017F6716EFA0
:100EB80000F045C0D9FF46C0DAFF000EDF6E120011
:100EC800010E0001B527000E0001B6230001B7236B
:100ED8000001B82381A051D00001B5C028F000015D
:100EE800B6C029F00001B7C02AF00001B8C02BF045
:100EF800281E291E2A1E2B1E282A000E29222A22D5
:100F08002B220101005128242C6E010101512920B6
:100F18002D6E010102512A202E6E010103512B2052
:100F28002F6E2F50800A800F08E1000E2E5C05E11D
:100F3800000E2D5C02E1010E2C5CD8B01ED0960E7E
:100F48000001B5250101006F000E0001B621010165
:100F5800016F000E0001B7210101026F000E0001B0
:100F6800B8210101036FD3EC1BF0286E2830D8A0FC
:100F780001D08B8ED8B001D08B9E81A258D00001B1
:100F8800B5C028F00001B6C029F00001B7C02AF0AA
:100F98000001B8C02BF0281E291E2A1E2B1E282A45
:100FA800000E29222A222B220101045128242C6E0A
:100FB8000101055129202D6E010106512A202E6EAE
:100FC800010107512B202F6E2F50800A800F08E156
:100FD800000E2E5C05E1000E2D5C02E1010E2C5C7A
:100FE800D8B025D0960E0001B5250101046F000E7A
:100FF8000001B6210101056F000E0001B7210101B2
:10100800066F000E0001B8210101076F010E286E5E
:101018000001DC510F0B296E285029260001DC51F4
:101028002918F00B29180001DC6F0001DF8581A465
:1010380049D00001B5C028F00001B6C029F0000170
:10104800B7C02AF00001B8C02BF0281E291E2A1E9E
:101058002B1E282A000E29222A222B2201010851A0
:1010680028242C6E0101095129202D6E01010A51F5
:101078002A202E6E01010B512B202F6E2F50800A33
:10108800800F08E1000E2E5C05E1000E2D5C02E1E8
:10109800010E2C5CD8B016D0960E0001B5250101C2
:1010A800086F000E0001B6210101096F000E000152
:1010B800B72101010A6F000E0001B82101010B6F71
:1010C80083EC1FF081A658D00001B5C028F00001BC
:1010D800B6C029F00001B7C02AF00001B8C02BF053
:1010E800281E291E2A1E2B1E282A000E29222A22E3
:1010F8002B2201010C5128242C6E01010D512920AD
:101108002D6E01010E512A202E6E01010F512B2048
:101118002F6E2F50800A800F08E1000E2E5C05E12B
:10112800000E2D5C02E1010E2C5CD8B025D0960E85
:101138000001B52501010C6F000E0001B621010167
:101148000D6F000E0001B72101010E6F000E0001A6
:10115800B82101010F6F010E286E0001DC510F0B41
:10116800296E2850295E0001DC512918F00B291836
:101178000001DC6F0001DF8581A847D00001B5C000
:1011880028F00001B6C029F00001B7C02AF000011C
:10119800B8C02BF0281E291E2A1E2B1E282A000E36
:1011A80029222A222B220101105128242C6E010108
:1011B800115129202D6E010112512A202E6E010194
:1011C80013512B202F6E2F50800A800F08E1000E3C
:1011D8002E5C05E1000E2D5C02E1010E2C5CD8B0FE
:1011E80014D0960E0001B5250101106F000E000104
:1011F800B6210101116F000E0001B7210101126F24
:10120800000E0001B8210101136F81AA47D0000127
:10121800B5C028F00001B6C029F00001B7C02AF017
:101228000001B8C02BF0281E291E2A1E2B1E282AB2
:10123800000E29222A222B220101145128242C6E67
:101248000101155129202D6E010116512A202E6EFB
:10125800010117512B202F6E2F50800A800F08E1B3
:10126800000E2E5C05E1000E2D5C02E1010E2C5CE7
:10127800D8B014D0960E0001B5250101146F000EE8
:101288000001B6210101156F000E0001B72101010F
:10129800166F000E0001B8210101176F81AC47D00D
:1012A8000001B5C028F00001B6C029F00001B7C0A0
:1012B8002AF00001B8C02BF0281E291E2A1E2B1E5A
:1012C800282A000E29222A222B220101185128241B
:1012D8002C6E0101195129202D6E01011A512A2065
:1012E8002E6E01011B512B202F6E2F50800A800F6C
:1012F80008E1000E2E5C05E1000E2D5C02E1010EF6
:101308002C5CD8B014D0960E0001B5250101186FD9
:10131800000E0001B6210101196F000E0001B7216E
:1013280001011A6F000E0001B82101011B6F81AE87
:1013380047D00001B5C028F00001B6C029F000016F
:10134800B7C02AF00001B8C02BF0281E291E2A1E9B
:101358002B1E282A000E29222A222B2201011C5189
:1013680028242C6E01011D5129202D6E01011E51CA
:101378002A202E6E01011F512B202F6E2F50800A1C
:10138800800F08E1000E2E5C05E1000E2D5C02E1E5
:10139800010E2C5CD8B014D0960E0001B5250101C1
:1013A8001C6F000E0001B62101011D6F000E000127
:1013B800B72101011E6F000E0001B82101011F6F46
:1013C800815081660CD0000E0101006F000E0101F2
:1013D800016F000E0101026F000E0101036F120080
:1013E8000001DF51DE11D8B423D20F0E216E21BEC9
:1013F8001FD246D02150010D0001D30EF324D96E1F
:101408000001000EF420DA6EDF50146E21C01CF0CB
:10141800010E1D6E1C2A02D0D8901D361C2EFCD73A
:101428001D5045EC21F0ECD10001DB51FF0B076E9C
:10143800090E16EC1EF0E4D10001DC510F0B076E0B
:101448000A0E16EC1EF0DCD10001DC39070B076E22
:101458000B0E16EC1EF0D4D1000E0001DCBF010EFD
:10146800076E0F0E16EC1EF0CBD10001DDB102D0D5
:10147800010E01D0000E076E0C0E16EC1EF0C0D146
:1014880021C01CF0010E1D6E1E6A1C2A03D0D890C4
:101498001D361E361C2EFBD70001DE511D1600011D
:1014A800DF511E161E50000AD8B410D0020AD8B454
:1014B8008FD1060AD8B491D10C0AD8B493D1180A9E
:1014C800D8B495D1300AD8B497D19AD11D50010A11
:1014D800D8B490D7030AD8B48DD7010AD8B48AD71C
:1014E800070AD8B487D7010AD8B484D7030AD8B46E
:1014F80081D7010AD8B47ED70F0AD8B47BD7010A9E
:10150800D8B478D7030AD8B475D7010AD8B472D733
:10151800070AD8B46FD7010AD8B46CD7030AD8B46D
:1015280069D7010AD8B466D71F0AD8B463D7010AA5
:10153800D8B460D7030AD8B45DD7010AD8B45AD74B
:10154800070AD8B457D7010AD8B454D7030AD8B46D
:1015580051D7010AD8B44ED70F0AD8B44BD7010ACD
:10156800D8B448D7030AD8B445D7010AD8B442D763
:10157800070AD8B43FD7010AD8B43CD7030AD8B46D
:1015880039D7010AD8B436D73F0AD8B433D7010AB5
:10159800D8B430D7030AD8B42DD7010AD8B42AD77B
:1015A800070AD8B427D7010AD8B424D7030AD8B46D
:1015B80021D7010AD8B41ED70F0AD8B41BD7010AFD
:1015C800D8B418D7030AD8B415D7010AD8B412D793
:1015D800070AD8B40FD7010AD8B40CD7030AD8B46D
:1015E80009D7010AD8B406D71F0AD8B403D7010A05
:1015F800D8B400D7030AD8B4FDD6010AD8B4FAD6AD
:10160800070AD8B4F7D6010AD8B4F4D6030AD8B46E
:10161800F1D6010AD8B4EED60F0AD8B4EBD6010A2F
:10162800D8B4E8D6030AD8B4E5D6010AD8B4E2D6C5
:10163800070AD8B4DFD6010AD8B4DCD6030AD8B46E
:10164800D9D6010AD8B4D6D67F0AD8B4D3D6010AD7
:10165800D8B4D0D6030AD8B4CDD6010AD8B4CAD6DD
:10166800070AD8B4C7D6010AD8B4C4D6030AD8B46E
:10167800C1D6010AD8B4BED60F0AD8B4BBD6010A5F
:10168800D8B4B8D6030AD8B4B5D6010AD8B4B2D6F5
:10169800070AD8B4AFD6010AD8B4ACD6030AD8B46E
:1016A800A9D6010AD8B4A6D61F0AD8B4A3D6010A67
:1016B800D8B4A0D6030AD8B49DD6010AD8B49AD60D
:1016C800070AD8B497D6010AD8B494D6030AD8B46E
:1016D80091D6010AD8B48ED60F0AD8B48BD6010A8F
:1016E800D8B488D6030AD8B485D6010AD8B482D625
:1016F800070AD8B47FD6010AD8B47CD6030AD8B46E
:1017080079D6010AD8B476D63F0AD8B473D6010A76
:10171800D8B470D6030AD8B46DD6010AD8B46AD63C
:10172800070AD8B467D6010AD8B464D6030AD8B46D
:1017380061D6010AD8B45ED60F0AD8B45BD6010ABE
:10174800D8B458D6030AD8B455D6010AD8B452D654
:10175800070AD8B44FD6010AD8B44CD6030AD8B46D
:1017680049D6010AD8B446D61F0AD8B443D6010AC6
:10177800D8B440D6030AD8B43DD6010AD8B43AD66C
:10178800070AD8B437D6010AD8B434D6030AD8B46D
:1017980031D6010AD8B42ED60F0AD8B42BD6010AEE
:1017A800D8B428D6030AD8B425D6010AD8B422D684
:1017B800070AD8B41FD6010AD8B41CD6030AD8B46D
:1017C80019D6010AD8B416D6FF0AD8B413D618D039
:1017D8001D50000AD8B428D613D01D50000AD8B41A
:1017E8002BD60ED01D50000AD8B42ED609D01D50C5
:1017F800000AD8B431D604D01D50000AD8B435D662
:1018080021C01CF0010E1D6E1E6A1C2A03D0D89040
:101818001D361E361C2EFBD71D1C1F6E1E1C206E6F
:101828001F500001DE1720500001DF172106DFD509
:1018380012005D6E000E5C6E5D50016E026A036AF6
:10184800046AA9EC22F05B6EC3D10001000E466E5B
:101858000001C40E456E7F0E486EC90E476E00012A
:10186800AC51040D7E0EF324496E7F0EF4204A6EAF
:101878000001AAC04BF04C6A0001A9C04DF04E6AA5
:101888000EEC00F0C1D10001000E466E0001C40E3E
:10189800456E7F0E486EAB0E476E0001ABC049F037
:1018A8004A6A0001ADC04BF04C6AAEC001F0AFC04F
:1018B80002F0000E046E640E036E56EC22F001C0B6
:1018C8004DF002C04EF00EEC00F09ED10001000E6B
:1018D800466E0001C40E456E7F0E486E9A0E476E26
:1018E8000001AAC049F04A6A0001A9C04BF04C6A3D
:1018F8000001A8C04DF04E6A0EEC00F085D10F0E25
:101908005E6E15D0FF0E576EFF0E586E5E50596E04
:101918005A6A5750592658505A220001C40E592461
:10192800D96E0001000E5A20DA6E000EDF6E5E2EB0
:10193800E9D76AD10001E551010AD8B4C7D7030A2B
:10194800D8B483D70B0AD8B49ED7D9D70001000ED4
:10195800466E0001C40E456E7F0E486E9C0E476EA3
:101968000001AAC049F04A6A0001A9C04BF04C6ABC
:101978000001A8C04DF04E6A0EEC00F045D1000100
:10198800000E466E0001C40E456E7F0E486EBA0EFC
:10199800476E0001AC51040D7E0EF324F66E7F0EE7
:1019A800F420F76E0800F550496E4A6A0001AC5100
:1019B800040D010EF326000EF4227E0EF324F66EBB
:1019C8007F0EF420F76E0800F5504B6E4C6A00014C
:1019D800A9C04DF04E6A0001A8C04FF0506A0EEC45
:1019E80000F012D10001000E466E0001C40E456ED3
:1019F8007F0E486E9C0E476E0001ABC049F04A6AE4
:101A08000001ADC04BF04C6AAEC001F0AFC002F0AF
:101A1800000E046E640E036E56EC22F001C04DF009
:101A280002C04EF00EEC00F0EFD00F0E5E6E15D037
:101A3800FF0E576EFF0E586E5E50596E5A6A575019
:101A4800592658505A220001C40E5924D96E000153
:101A5800000E5A20DA6E000EDF6E5E2EE9D7D4D063
:101A68000001E551010AD8B471D7020AD8B487D762
:101A78000B0AD8B4B7D7D9D70001000E466E0001BB
:101A8800C40E456E7F0E486EBF0E476E0001AAC099
:101A980049F04A6A0001A9C04BF04C6A0EEC00F00C
:101AA800B3D00001000E466E0001C40E456E7F0ED5
:101AB800486EBF0E476E0001ABC049F04A6A00018C
:101AC800ADC04BF04C6A0EEC00F09ED00F0E5E6E6F
:101AD80015D0FF0E576EFF0E586E5E50596E5A6A3B
:101AE8005750592658505A220001C40E5924D96E0D
:101AF8000001000E5A20DA6E000EDF6E5E2EE9D766
:101B080083D00001E551000AD8B4B6D7060AD8B484
:101B1800C8D7DCD70001000E466E0001C40E456E22
:101B28007F0E486EBF0E476E0001AAC049F04A6A90
:101B38000001A9C04BF04C6A0EEC00F065D0000122
:101B4800E551050AD8B4E6D75FD00001000E466E0D
:101B58000001C40E456E7F0E486EE20E476E00010E
:101B6800AAC049F04A6A0001A9C04BF04C6A0EECC1
:101B780000F04AD00F0E5E6E15D0FF0E576EFF0EA6
:101B8800586E5E50596E5A6A5750592658505A2204
:101B98000001C40E5924D96E0001000E5A20DA6ED5
:101BA800000EDF6E5E2EE9D72FD00001E551040A42
:101BB800D8B4CBD7DFD70001000E466E0001C40EA3
:101BC800456E7F0E486EDD0E476E0EEC00F01CD0A1
:101BD8005B50000AD8B4EFD7010AD8B4ECD7030A8F
:101BE800D8B4E3D7010AD8B4AAD7070AD8B489D792
:101BF800010AD8B486D7030AD8B432D7010AD8B4B0
:101C08002FD70F0AD8B496D60001C46713D05C2A20
:101C1800D3EC1BF00A0E5C5CD8A0DAD70001000EEA
:101C2800466E0001C40E456E7F0E486EF50E476E77
:101C38000EEC00F00001000E1D6E0001C40E1C6EBB
:101C48005D50C1EC11F05D500001DE1312002A6EE8
:101C58002AAEEAD02A6C2A50800A120FD8A08BD05C
:101C6800000E126E030E116E000E0A6E0A0E096E39
:101C7800000E046E640E036E2A50016E026A01BEE5
:101C88000206F4EC1EF001C007F002C008F0C4EC34
:101C98001DF0090E07240F6E000E0820106ED0EC00
:101CA80022F0300E0F24F66E7F0E1020F76E09001A
:101CB800F5CF18F00900F5CF19F00A00F5CF1AF0A2
:101CC800000E0A6E640E096E2A50076E086A07BE77
:101CD8000806C4EC1DF0120E07240F6E000E082033
:101CE800106E000E126E030E116ED0EC22F0300E44
:101CF8000F24F66E7F0E1020F76E0900F5CF15F051
:101D08000900F5CF16F00A00F5CF17F061EC1BF0CB
:101D180015C027F016C028F017C029F027C015F005
:101D280028C016F029C017F0000E126E030E116EAF
:101D3800000E046E0A0E036E2A50016E026A01BE7E
:101D48000206F4EC1EF001C00FF002C010F0D0EC57
:101D580022F0300E0F24F66E7F0E1020F76E090069
:101D6800F5CF18F00900F5CF19F00A00F5CF1AF0F1
:101D780061EC1BF03AD12A50800A750FD8A04DD0DB
:101D8800000E0A6E0A0E096E2A50076E086A07BE10
:101D98000806C4EC1DF0090E07240F6E000E08207B
:101DA800106E000E126E030E116ED0EC22F0300E83
:101DB8000F24F66E7F0E1020F76E0900F5CF15F090
:101DC8000900F5CF16F00A00F5CF17F0000E126ED5
:101DD800030E116E000E046E0A0E036E2A50016E79
:101DE800026A01BE0206F4EC1EF001C00FF002C048
:101DF80010F0D0EC22F0300E0F24F66E7F0E10207B
:101E0800F76E0900F5CF18F00900F5CF19F00A00B0
:101E1800F5CF1AF061EC1BF0E8D02A50030D300E14
:101E2800F324F66E7F0EEED02A50800A120FD8A047
:101E38008BD0000E126E030E116E000E0A6E0A0E83
:101E4800096E000E046E640E036E2A50016E026A5B
:101E580001BE0206F4EC1EF001C007F002C008F053
:101E6800C4EC1DF0090E07240F6E000E0820106E3A
:101E7800D0EC22F0570E0F24F66E7F0E1020F76E6E
:101E88000900F5CF18F00900F5CF19F00A00F5CFD1
:101E98001AF0000E0A6E640E096E2A50076E086A60
:101EA80007BE0806C4EC1DF0120E07240F6E000EC4
:101EB8000820106E000E126E030E116ED0EC22F088
:101EC800570E0F24F66E7F0E1020F76E0900F5CF1F
:101ED80015F00900F5CF16F00A00F5CF17F061EC00
:101EE8001BF015C027F016C028F017C029F027C02E
:101EF80015F028C016F029C017F0000E126E030E58
:101F0800116E000E046E0A0E036E2A50016E026AEC
:101F180001BE0206F4EC1EF001C00FF002C010F082
:101F2800D0EC22F0570E0F24F66E7F0E1020F76EBD
:101F38000900F5CF18F00900F5CF19F00A00F5CF20
:101F48001AF061EC1BF051D02A50800A750FD8A006
:101F580053D0000E0A6E0A0E096E2A50076E086AE0
:101F680007BE0806C4EC1DF0090E07240F6E000E0C
:101F78000820106E000E126E030E116ED0EC22F0C7
:101F8800570E0F24F66E7F0E1020F76E0900F5CF5E
:101F980015F00900F5CF16F00A00F5CF17F0000E7E
:101FA800126E030E116E000E046E0A0E036E2A5096
:101FB800016E026A01BE0206F4EC1EF001C00FF0C9
:101FC80002C010F0D0EC22F0570E0F24F66E7F0EF0
:101FD8001020F76E0900F5CF18F00900F5CF19F0B9
:101FE8000A00F5CF1AF061EC1BF015C024F016C0FA
:101FF80025F017C026F011D02A50030D570EF324F0
:10200800F66E7F0EF420F76E0900F5CF24F0090074
:10201800F5CF25F00A00F5CF26F01200030E576E13
:1020280024D05750030D01013E0EF324D96E01014F
:10203800010EF420DA6EFF0E57240F6E106AFF0EA1
:102048001022000E126E030E116ED0EC22F03F0E1D
:102058000F24E16E000E1020E26EDECFE6FFDECF29
:10206800E6FFDECFE5FFE55257065766DAD7C282AC
:10207800C2B2FED7100E546E7C0E556E3C0E566ED4
:10208800000E186EA00E196E400E1A6EC3CF09F01E
:10209800C4CF0AF0E3EC22F009C015F00AC016F02C
:1020A8000BC017F061EC1BF015C024F016C025F02A
:1020B80017C026F0000E276E800E286E440E296E7B
:1020C80044EC1CF024C054F025C055F026C056F04E
:1020D800C3CF09F0C4CF0AF0E3EC22F009C054F0F2
:1020E8000AC055F00BC056F00001E06759D0000E49
:1020F800276E800E286E440E296E000E186EA00EF4
:10210800196E400E1A6EC3CF09F0C4CF0AF0E3EC83
:1021180022F009C015F00AC016F00BC017F061ECE8
:102128001BF015C024F016C025F017C026F044ECAB
:102138001CF024C04EF025C04FF026C050F0330EDE
:10214800276EB30E286E400E296E4EC024F04FC085
:1021580025F050C026F044EC1CF024C051F025C0F6
:1021680052F026C053F0BE0E276E9F0E286E3C0E0E
:10217800296E51C024F052C025F053C026F044EC1B
:102188001CF024C033F025C034F026C035F0F90E19
:10219800366E490E376EBF0E386E44EC17F088D095
:1021A800000E276E800E286E440E296E000E186EE3
:1021B800A00E196E400E1A6EC3CF09F0C4CF0AF0F4
:1021C800E3EC22F009C015F00AC016F00BC017F0B6
:1021D80061EC1BF015C024F016C025F017C026F0DE
:1021E80044EC1CF024C04EF025C04FF026C050F03F
:1021F800330E276EB30E286E400E296E4EC024F0A3
:102208004FC025F050C026F044EC1CF024C051F01B
:1022180025C052F026C053F0000E186EA00E196E9D
:10222800400E1A6EF90E366E490E376EBF0E386EB6
:10223800BE0E276E9F0E286E3C0E296E51C024F0EC
:1022480052C025F053C026F044EC1CF024C033F0F3
:1022580025C034F026C035F044EC17F033C015F033
:1022680034C016F035C017F061EC1BF015C048F00B
:1022780016C049F017C04AF0000E276E100E286EDF
:10228800410E296E48C024F049C025F04AC026F006
:1022980044EC1CF024C033F025C034F026C035F0DF
:1022A800000E366E000E376E420E386E44EC17F094
:1022B80033C054F034C055F035C056F054C04BF01C
:1022C80055C04CF056C04DF054C047F155C048F1C8
:1022D80056C049F1000E576E38D05750030D3F0EC7
:1022E800F324D96E000EF420DA6E5750030D010165
:1022F8003E0EF324E16E0101010EF420E26EDECF02
:10230800E6FFDECFE6FFDECFE5FFE5524BC033F058
:102318004CC034F04DC035F05750030D01013E0E4E
:10232800F324D96E0101010EF420DA6EDECF36F007
:10233800DECF37F0DDCF38F044EC17F033C04BF088
:1023480034C04CF035C04DF0572A020E5764C5D73B
:102358004BC024F04CC025F04DC026F0000E276E6F
:10236800800E286E400E296E44EC1CF024C0B9F093
:1023780025C0BAF026C0BBF01200236E000E256EF1
:10238800000E246E2350016E026A036A046AA9ECE7
:1023980022F0226E000E256E2550800A780FD8B0E4
:1023A80022D025C01EF0010E1F6E206A1E2A03D0FF
:1023B800D8901F3620361E2EFBD723501F16000E2E
:1023C800201620501F10D8B40CD02550010D000144
:1023D800D30EF324D96E0001000EF420DA6E000E3D
:1023E800DF6E252AD9D7222A2350016E026A036A92
:1023F800046AE7EC20F001C00CF002C00DF003C045
:102408000EF004C00FF011EC22F00CC01EF00DC04D
:102418001FF00EC020F00FC021F01E50256E02D113
:1024280025C01EF023C01FF01E2A02D0D8901F32EC
:102438001E2EFCD71FA0F5D024500F6E106A0FBEB9
:102448001006000E126E010E116ED0EC22F01CC0A8
:102458001EF01DC01FF00F501E2610501F221EC058
:10246800F6FF1FC0F7FFF86A070EF76403D00800ED
:10247800F55005D0F6CFE9FFF7CFEAFFEF50000996
:10248800D8B4D2D024500F6E106A0FBE1006000EBA
:10249800126E010E116ED0EC22F01CC01EF01DC091
:1024A8001FF00F501E2610501F221EC0F6FF1FC01F
:1024B800F7FFF86A070EF76403D00800F55005D057
:1024C800F6CFE9FFF7CFEAFFEF502E0AD8A429D0BC
:1024D80025C01EF01F6A1EBE1F06010E1E26000E16
:1024E8001F220001D30E1E24D96E0001000E1F20EA
:1024F800DA6E000EDB8E25C01EF0010E1E26010EC0
:102508001F6E206A1E2A03D0D8901F3620361E2E32
:10251800FBD71F500001DE1320500001DF13222AD1
:10252800242A24500F6E106A0FBE1006000E126E79
:10253800010E116ED0EC22F01CC01EF01DC01FF061
:102548000F501E2610501F221EC0F6FF1FC0F7FF97
:10255800F86A070EF76403D00800F55005D0F6CFE7
:10256800E9FFF7CFEAFFEF5051EC15F00009D8A4C6
:1025780026D024500F6E106A0FBE1006000E126E81
:10258800010E116ED0EC22F01CC01EF01DC01FF011
:102598000F501E2610501F221EC0F6FF1FC0F7FF47
:1025A800F86A070EF76403D00800F55005D0F6CF97
:1025B800E9FFF7CFEAFFEF50200AD8A431D0245022
:1025C8000F6E106A0FBE1006000E126E010E116E0D
:1025D800D0EC22F01CC01EF01DC01FF00F501E26AC
:1025E80010501F221EC0F6FF1FC0F7FFF86A070E23
:1025F800F76403D00800F55005D0F6CFE9FFF7CF10
:10260800EAFFEF50156E25C020F0010E216E202A3A
:1026180002D0D8902136202EFCD72150EDEC21F0A5
:10262800242A2506222EFCD612002D6E6D0E2D644E
:1026380099D0000E126E030E116E000E0A6E0A0E6D
:10264800096E000E046E640E036E2DC001F0026A5E
:10265800F4EC1EF001C007F002C008F0C4EC1DF055
:10266800090E07240F6E000E0820106ED0EC22F021
:10267800300E0F24F66E7F0E1020F76E0900F5CF8E
:1026880018F00900F5CF19F00A00F5CF1AF0000E7E
:102698000A6E640E096E2DC007F0086AC4EC1DF0BE
:1026A800120E07240F6E000E0820106E000E126E18
:1026B800030E116ED0EC22F0300E0F24F66E7F0E52
:1026C8001020F76E0900F5CF15F00900F5CF16F0C8
:1026D8000A00F5CF17F061EC1BF015C02AF016C000
:1026E8002BF017C02CF0000E126E030E116E000EA8
:1026F800046E0A0E036E2DC001F0026AF4EC1EF09F
:1027080001C00FF002C010F0D0EC22F0300E0F2400
:10271800F66E7F0E1020F76E0900F5CF18F009004D
:10272800F5CF19F00A00F5CF1AF02AC015F02BC022
:1027380016F02CC017F061EC1BF015C027F016C07E
:1027480028F017C029F027C015F028C016F029C0B6
:1027580017F0000E186E000E196E3F0E1A6E61EC1F
:102768001BF079D00A0E2D645DD0000E126E030E98
:10277800116E000E046E0A0E036E2DC001F0026A7F
:10278800F4EC1EF001C00FF002C010F0D0EC22F003
:10279800300E0F24F66E7F0E1020F76E0900F5CF6D
:1027A80018F00900F5CF19F00A00F5CF1AF0000E5D
:1027B8000A6E0A0E096E2DC007F0086AC4EC1DF0F7
:1027C800090E07240F6E000E0820106E000E126E00
:1027D800030E116ED0EC22F0300E0F24F66E7F0E31
:1027E8001020F76E0900F5CF15F00900F5CF16F0A7
:1027F8000A00F5CF17F061EC1BF015C02AF016C0DF
:102808002BF017C02CF02AC015F02BC016F02CC0E6
:1028180017F0000E186E000E196E3F0E1A6E61EC5E
:102828001BF019D02D50030D300EF324F66E7F0ED9
:10283800F420F76E0900F5CF15F00900F5CF16F072
:102848000A00F5CF17F0000E186E000E196E3F0E35
:102858001A6E61EC1BF015C024F016C025F017C0E5
:1028680026F012000001996F000E0001986F000118
:102878009951016E026A036A046A7FEC20F001C074
:1028880057F002C058F003C059F004C05AF057502E
:102898000001981300019951016E026A036A046AE3
:1028A8007FEC20F001C057F002C058F003C059F087
:1028B80004C05AF05750FF0A000199155B6E5B502F
:1028C8000001936F0001946B0001956B0001966BFA
:1028D80093C001F094C002F095C003F096C004F0D4
:1028E8007FEC20F001C057F002C058F003C059F047
:1028F80004C05AF057500001981300019851FF0A7C
:10290800000199170001E06709D07F0E1D6EF90ECE
:102918001C6E00019851C1EC11F008D07F0E1D6E9D
:10292800FC0E1C6E00019851C1EC11F00001995188
:10293800016E026A036A046AA9EC22F00001976F2B
:10294800B9C015F0BAC016F0BBC017F0F80E576E34
:10295800FF0E586E00019751596E5A6AD890593631
:102968005A36D89059365A365750592658505A22FE
:10297800080E5924F66E7F0E5A20F76E0900F5CF1F
:1029880009F00900F5CF0AF00900F5CF0BF00A00AD
:10299800F5CF0CF017EC21F009C018F00AC019F0B7
:1029A8000BC01AF061EC1BF015C0B9F016C0BAF0F4
:1029B80017C0BBF0B9C024F0BAC025F0BBC026F0E0
:1029C800AFEC1CF024C033F025C034F026C035F03D
:1029D80027C036F064EC1EF033C0B9F034C0BAF04A
:1029E80035C0BBF0B9C024F0BAC025F0BBC026F092
:1029F800F80E576EFF0E586E00019751596E5A6ABD
:102A0800D89059365A36D89059365A36575059268A
:102A180058505A22080E5924F66E7F0E5A20F76E27
:102A28000900F5CF09F00900F5CF0AF00900F5CF44
:102A38000BF00A00F5CF0CF017EC21F009C027F0D5
:102A48000AC028F00BC029F044EC1CF024C0B9F0EF
:102A580025C0BAF026C0BBF00001000E466E00018A
:102A6800840E456E7F0E486EF10E476E000197C0CA
:102A780049F04A6AB9C04BF0BAC04CF0BBC04DF03F
:102A88000EEC00F00001000E1D6E0001840E1C6E9D
:102A980000019951C1EC11F01200056E24D0D00E3E
:102AA80001D0B00E016EFF0E026E0550036E046A6F
:102AB8000150032602500422B50E0324F66E7E0E42
:102AC8000420F76E0800F550F7D0400EF5D0800EC0
:102AD800F3D0390EF1D00F0EEFD0080EEDD0630E03
:102AE800EBD0000EE9D00550200AD8B4FAD70A0A6C
:102AF800D8B4F5D7060AD8B4EAD7010AD8B4E5D7C6
:102B0800030AD8B4E4D71E0AD8B4C9D7010AD8B47E
:102B1800C6D7030AD8B4C3D7010AD8B4C0D7070A9E
:102B2800D8B4BDD7010AD8B4BAD7030AD8B4B7D72E
:102B3800010AD8B4B4D70F0AD8B4B1D7010AD8B4A7
:102B4800AED7030AD8B4ABD7010AD8B4A8D7070AB6
:102B5800D8B4A5D7010AD8B4A2D7030AD8B49FD746
:102B6800010AD8B49CD77F0AD8B499D7010AD8B437
:102B780096D7030AD8B493D7010AD8B490D7070ACE
:102B8800D8B48DD7010AD8B48AD7030AD8B487D75E
:102B9800010AD8B484D70F0AD8B481D7010AD8B4A7
:102BA8007ED7030AD8B47BD7010AD8B478D7070AE6
:102BB800D8B475D7010AD8B472D7030AD8B46FD776
:102BC800010AD8B46CD71F0AD8B469D7010AD8B497
:102BD80066D7030AD8B463D7010AD8B460D7070AFE
:102BE800D8B45DD7010AD8B45AD7030AD8B457D78E
:102BF800010AD8B454D70F0AD8B451D7010AD8B4A7
:102C08004ED7030AD8B44BD7010AD8B462D7060AFC
:102C1800D8B461D7020AD8B460D73E0AD8B441D72D
:102C2800030AD8B43ED7010AD8B43BD7070AD8B4A8
:102C380038D7010AD8B435D7030AD8B432D7010A2D
:102C4800D8B42FD70F0AD8B42CD7010AD8B429D7AB
:102C5800030AD8B426D7010AD8B423D7070AD8B4A8
:102C680020D7010AD8B41DD7030AD8B41AD7010A45
:102C7800D8B417D71F0AD8B414D7010AD8B411D7B3
:102C8800030AD8B40ED7010AD8B40BD7070AD8B4A8
:102C980008D7010AD8B405D7030AD8B402D7010A5D
:102CA800D8B4FFD60F0AD8B4FCD6010AD8B4F9D6DE
:102CB800030AD8B4F6D615D712001D6E000E046E9E
:102CC800C80E036E1DC001F0026AF4EC1EF001C0CC
:102CD8000FF002C010F0010E126E6D0E116ED0ECE6
:102CE80022F00FC01EF010C01FF0000E1FBEFF0E16
:102CF800206E216E000E046EC80E036E1DC001F01A
:102D0800026AF4EC1EF0030E0124076E000E022086
:102D1800086E000E0A6E040E096EC4EC1DF007C0A2
:102D280019F008C01AF0000E1ABEFF0E1B6E1C6EBA
:102D380019501E261A501F221B5020221C502122D7
:102D48004FD01E0E1E26000E1F22202221221F0EEB
:102D58001E26000E1F22202221221E0E1E26000ED5
:102D68001F22202221221F0E1E26000E1F22202293
:102D780021221F0E1E26000E1F22202221221E0E97
:102D88001E26000E1F22202221221F0E1E26000EA4
:102D98001F22202221221E0E1E26000E1F22202264
:102DA80021221F0E1E26000E1F22202221221C0E69
:102DB8001E26000E1F22202221221DC019F0030EFC
:102DC8001916D8A406D0010E1E26000E1F22202296
:102DD80021221F0E1E26000E1F222022212225D06E
:102DE8001750010AD8B421D0030AD8B4F2D7010A7F
:102DF800D8B4DDD7070AD8B4D4D7010AD8B4CBD70A
:102E0800030AD8B4C2D7010AD8B4B9D70F0AD8B4BC
:102E1800B0D7010AD8B4A7D7030AD8B49ED7010AF5
:102E2800D8B495D7070AD8B48CD718501E26000EE8
:102E38001F22202221221E06000E1F5A205A215A24
:102E4800060E1E240E6E000E1F200F6E000E202090
:102E5800106E000E2120116E070E126E000E136EFA
:102E6800000E146E000E156EB4EC20F00EC019F0B2
:102E78000FC01AF010C01BF011C01CF0195012003E
:102E880035C039F03A6A3B6A3434393601E33A805E
:102E980039503E6E38C039F03A6A3B6A37343936B1
:102EA80001E33A8039503D6E3E50D8B40CD03D50C5
:102EB8003E5CD8B00FD03E5000083D24396E190E44
:102EC800395CD8A007D036C033F037C034F038C0EA
:102ED80035F0ABD03D50D8B40CD03E503D5CD8B0A6
:102EE8000FD03D5000083E24396E190E395CD8A029
:102EF80007D033C033F034C034F035C035F095D046
:102F0800060E3C6E35BE3C8E38BE3C8C348EFF0EB1
:102F18003316FF0E3416000E3516378EFF0E361692
:102F2800FF0E3716000E38163D503E5CD8B01AD04A
:102F3800D8903636373638363D063D503E18D8B428
:102F48000DD03C063CC039F0070E3916D8B406D06F
:102F5800EFD7D8903532343233323E2A3D503E6274
:102F6800F8D71DD03E503D5CD8B019D0D890333634
:102F7800343635363E063D503E18D8B40DD03C06A2
:102F88003CC039F0070E3916D8B406D0EFD7D89020
:102F98003832373236323D2A3D503E62F8D73CAEA1
:102FA8000CD0FF0E331AFF0E341AFF0E351A010E1D
:102FB8003326000E3422000E35223CAC0CD0FF0E16
:102FC800361AFF0E371AFF0E381A010E3626000E73
:102FD8003722000E3822000E3C6E3350362634500D
:102FE80037223550382238AE0ED0FF0E361AFF0E73
:102FF800371AFF0E381A010E3626000E3722000E39
:103008003822010E3C6E36C001F037C002F038C0DD
:1030180003F03EC004F03CC005F070EC1DF001C0A8
:1030280033F002C034F003C035F012000600EACFD6
:103038009DF0E1CF9EF0E2CF9FF0D9CFA0F0DACF9C
:10304800A1F0F3CFA2F0F4CFA3F0F6CFA4F0F7CF1E
:10305800A5F0F8CFA6F0F5CFA7F09DB09EA021D09F
:103068009E90CD90000ECF6E000ECE6E0001BE4B2E
:10307800BF2B3E0E0001BE5D000E0001BF59D8A057
:103088000FD0000E0001BF6F000E0001BE6FF70EDB
:10309800CF6E000ECE6ECD80000EEBEC1AF08B7E5C
:1030A800CD809DB29EA21AD09E92000ECC6E0001D9
:1030B80020EEC2F0DE2A000EDD22DE52DD50800A4C
:1030C800800F660ED8B4DF5CD8A008D0000E0001CF
:1030D800C36F000E0001C26FF4EC09F0F2BAF2A45B
:1030E8004CD0F294D59E000ED76E000ED66E010E0F
:1030F8000001B127000E0001B2230001B323000133
:10310800B4230001B451B111B211B311D8B434D001
:10311800000E0001B16F000E0001B26F000E000139
:10312800B36F000E0001B46F800ED76E010ED66E1D
:10313800D58E64EC07F012EC10F0000120EE03F0DD
:103148000001BC51D9260001BD51DA2201D814D0A2
:103158000500FA6EDE50FD6EDE50FE6EF850FF6E12
:10316800FA50000120EE01F00001BC51D9260001FF
:10317800BD51DA22DF501200D58EF28EA7C0F5FFBE
:10318800A6C0F8FFA5C0F7FFA4C0F6FFA3C0F4FFD0
:10319800A2C0F3FFA1C0DAFFA0C0D9FF9FC0E2FF21
:1031A8009EC0E1FF9DC0EAFF9CC0E9FF9BC0FBFFFA
:1031B8009AC0FAFF110001C007F002C008F003C06E
:1031C80009F004C00AF0180E05D0D8900A32093266
:1031D80008320732E82EF9D70750106E106601D072
:1031E8006BD004C007F005C008F006C009F007C09E
:1031F8000AF0180E05D0D8900A3209320832073280
:10320800E82EF9D707500F6E0F6601D055D0038E00
:10321800FF0E0116FF0E0216FF0E0316000E04160F
:10322800068EFF0E0416FF0E0516FF0E0616000E7C
:103238000716000E0B6E000E0C6E000E0D6E000EC3
:103248000E6E7F0E105E0F50A00F105E200E0F6ED8
:10325800D8900B360C360D360E360450015C0550EE
:1032680002580650035807500458D8A009D00450F3
:10327800015E0550025A0650035A0750045A0B8043
:10328800D89001360236033604360F2EE1D710AE39
:1032980010D01050800A076EE10E800A075CD8A093
:1032A8000BD0D8900E320D320C320B32103EF9D7BB
:1032B80014D01F0E10640FD0000E016E000E026EA7
:1032C800000E036E000E046E10D0D8900B360C362C
:1032D8000D360E3610061066F8D70BC001F00CC07C
:1032E80002F00DC003F00EC004F0120003C007F096
:1032F800086A096A0234073601E3088007500F6E2E
:103308000F6601D059D006C007F0086A096A05346B
:10331800073601E3088007500E6E0E6601D04CD0C8
:10332800028EFF0E0116FF0E0216000E0316058E02
:10333800FF0E0416FF0E0516000E0616000E0A6E86
:10334800000E0B6E000E0C6E000E0D6E7F0E0F5EE3
:103358000E50980F0F5E180E0E6ED8900A360B3668
:103368000C360D360450015C0550025806500358BF
:10337800D8A007D00450015E0550025A0650035ADF
:103388000A80D8900136023603360E2EE6D70FAEE5
:1033980010D00F50800A076EE90E800A075CD8A08B
:1033A8000BD0D8900D320C320B320A320F3EF9D7BF
:1033B80014D0170E0F640FD0000E016E000E026EAF
:1033C800000E036E000E046E10D0D8900A360B362D
:1033D8000C360D360F060F66F8D70AC001F00BC081
:1033E80002F00CC003F00DC004F01200010E010140
:1033F8004C6F67D04CC1A9FFA680A8CF56F14AD020
:103408003B0E0101566503D0000E0101566F56C1EF
:103418004EF154D0170E0101566503D0000E01017C
:10342800566F56C14FF14AD01E0E0101566503D0A2
:10343800010E0101566F56C150F140D00B0E01012B
:10344800566503D0010E0101566F56C152F136D0B0
:10345800140E0101566503D0140E0101566F0101C7
:1034680056C153F10101546B29D0630E0101566511
:1034780003D0000E0101566F0101565101014B6F37
:103488004A6B01014A510101531301014B510101DA
:10349800541314D001014C51010AD8B4B1D7030A0E
:1034A800D8B4B8D7010AD8B4BFD7070AD8B4C6D792
:1034B800010AD8B4CDD7030AD8B4D7D700F0010190
:1034C8004C2B060E01014C6595D721EE4DF010EE00
:1034D800A8F0090EDECFE6FFE82EFCD71200000E9A
:1034E800286E030E176E0E0E186E0001AE5161ECB9
:1034F80016F0226E236A221E231E224A232A0E0E4B
:103508002226000E23220001AB51246E256A255085
:10351800800A266E2250245C2350800A2658D8A0A0
:103528002DD0000120EEADF0020EDF6427D00B0E87
:10353800176E070E186E0001AE5161EC16F0226E80
:10354800236A221E231E224A232A070E2226000E41
:1035580023220001AB51246E256A2550800A266E6D
:103568002250245C2350800A2658D8B007D00B0E6E
:103578000001AD5DD8B002D0010E286E2850010BB5
:103588000001B0190009D8B421D00001AA05D8A4B7
:103598001DD00001B051D8A402D0010E01D0000EF8
:1035A8000001B06F0001B051D8B404D0020EEBECAA
:1035B8001AF00CD00001AA51D8B403D00001AA0710
:1035C80005D0000E0001AA6F0001AB0712000C6EB7
:1035D800000E0D6E000E0E6E4ED00001A82BA8C076
:1035E8000EF03B0E0001A86559D0000E0001A86F2F
:1035F8000001A92B010E0D6EA8C00EF0000120EEEF
:10360800A9F03B0EDF644AD0000E0001A96F00014B
:10361800AA2B73EC1AF0AAC00EF0000120EEAAF053
:10362800170EDF643BD0000E0001AA6F0001AB2B20
:10363800AAC00EF0AEC006F0AFC007F00001AD5151
:1036480019EC1DF00001AB5DD8A028D0010E0001D7
:10365800AB6F0001AD2BAAC00EF0000120EEADF05B
:10366800DF2A0C0EDF641AD0010E0001AD6F0001D5
:10367800AE4BAF2B13D00C50000AD8B4AED7010A0A
:10368800D8B4B6D7030AD8B4C2D7010AD8B4CED7AB
:10369800070AD8B4DED7010AD8B4E9D70D50D8B490
:1036A8000BD020EEA8F010EE01F0090EDECFE6FFF9
:1036B800E82EFCD747EC20F0120017C01BF01C6A5C
:1036C8001D6A16341B3601E31C801B501E6E1E66D5
:1036D80001D00CD01AC01BF01C6A1D6A19341B36A5
:1036E80001E31C801B50236E236607D0000E156E65
:1036F800000E166E000E176E51D023507B0F1E263B
:1037080017C023F01A50231A800E2316168E198E0E
:10371800FF0E1816FF0E1916000E1A16000E1F6E51
:10372800000E206E000E216E070E226E15A006D028
:1037380018501F26195020221A502122D8901732CB
:1037480016321532D890183619361A36222EEED778
:10375800090E226E15A006D018501F2619502022D7
:103768001A502122D890173216321532D8902132A9
:1037780020321F32222EEED71FC001F020C002F0E7
:1037880021C003F01EC004F023C005F070EC1DF04A
:1037980001C015F002C016F003C017F01200BCC03B
:1037A800D9FFBDC0DAFFDF50076E010E0724016E96
:1037B800026A000E0222000120EE02F00001BC5154
:1037C800D9260001BD51DA22DF50086E0850036E79
:1037D800046AF4EC1EF00150BCC0D9FFBDC0DAFF8A
:1037E800DF6E000120EE01F00001BC51D926000176
:1037F800BD51DA22DF50076E07500001DE13BCC04E
:10380800D9FFBDC0DAFFDF50076ED8900732D890D5
:103818000732D8900732010E0716060E086ED890A8
:103828000736082EFCD7BCC0D9FFBDC0DAFFDF5071
:10383800096ED8900932D8900932010E0916D8902D
:103848000936D8900936BCC0D9FFBDC0DAFFDF50B1
:103858000A6ED8900A32010E0A16D8900A340B6EF6
:10386800BCC0D9FFBDC0DAFFDF50010B0B10091037
:1038780007108B6EBCC0D9FFBDC0DAFFDF50120045
:1038880026C02AF02B6A2C6A25342A3601E32B80BD
:103898002A50316E316601D00CD029C02AF02B6A2B
:1038A8002C6A28342A3601E32B802A50326E32667D
:1038B80007D0000E246E000E256E000E266E4AD02C
:1038C800000E2E6E000E2F6E000E306E3250890FD5
:1038D800315E26C032F02950321A800E3216258EFB
:1038E800FF0E2416FF0E2516000E2616288EFF0E34
:1038F8002716FF0E2816000E2916180E2D6ED890C2
:103908002E362F3630362750245C2850255829501B
:103918002658D8A007D02750245E2850255A295069
:10392800265A2E80D8902436253626362D2EE7D7CF
:103938002EC001F02FC002F030C003F031C004F0F7
:1039480032C005F070EC1DF001C024F002C025F073
:1039580003C026F0120026C028F0296A2A6A2534F6
:10396800283601E329802850326E326601D038D0DB
:10397800170E286E24C029F025C02AF026C02BF087
:1039880028282C6E04D0D8902B322A3229322C2E9B
:10399800FAD729502D6E258EFF0E2416FF0E2516F8
:1039A800000E261624502E6E25502F6E2650306E8F
:1039B800316A8E0E325E32AE10D03250800A286ED6
:1039C800F10E800A285CD8A00BD0D8903132303262
:1039D8002F322E32323EF9D714D0170E32640FD060
:1039E800000E246E000E256E000E266E000E276E49
:1039F8001BD0D8902E362F36303631363206326606
:103A0800F8D72D50D8B408D0311E301E2F1E2E6C7A
:103A1800000E2F22302231222EC024F02FC025F094
:103A280030C026F031C027F012000B6E2ED01F0ECA
:103A380052D01E0E50D0030E0614086E000E071446
:103A4800096E09500810D8A41ED006C001F007C09E
:103A580002F0000E046E640E036E56EC22F0025063
:103A68000110D8A40ED006C001F007C002F0010E64
:103A7800046E900E036E56EC22F002500110D8A48A
:103A880002D01D0E28D01C0E26D00B50010AD8B427
:103A9800CED7030AD8B4CFD7010AD8B4C8D7070AF3
:103AA800D8B4C7D7010AD8B4C2D7030AD8B4C1D783
:103AB800010AD8B4BCD70F0AD8B4B9D7010AD8B408
:103AC800B8D7030AD8B4B3D7010AD8B4B2D7070A0B
:103AD800D8B4ADD7000E12000450D8B405D00150A8
:103AE80002100310D8A40CD0000E016E000E026E56
:103AF800000E036E44D0042AD890033202320132F9
:103B0800000E0114066E000E0214076EFE0E03145A
:103B1800086E065007100810D8B40CD0ECD7042A49
:103B2800010E0126000E0222000E0322D890033255
:103B380002320132000E0114066E000E0214076EE6
:103B4800FF0E0314086E065007100810D8B406D0EC
:103B5800E6D70406D89001360236033602AEF9D706
:103B680004A0029ED8900432045003120550D8A431
:103B7800038E01C001F002C002F003C003F012007E
:103B8800000E0C6E0A50800AF36E800EF35C000E75
:103B9800D8B4095CD8B006D0096C0A1ED8B00A2A75
:103BA800010E0C6E0850800AF36E800EF35C000E56
:103BB800D8B4075CD8B006D0076C081ED8B0082A5D
:103BC800010E0C1A000E0E6E000E0D6E0A50091032
:103BD800D8B41CD0010E0B6E04D0D89009360A3622
:103BE8000B2A0AAEFAD7D8900D360E360950075C64
:103BF8000A500858D8A005D00950075E0A50085A3C
:103C08000D80D8900A3209320B2EEDD70C50D8B45B
:103C180004D00D6C0E1ED8B00E2A0DC007F00EC0D1
:103C280008F012000D6E07500DC008F0096A08C0B0
:103C380009F0086A08100B6E09500C6E8998899271
:103C480089960F0E0E6E0EBE2DD00EC008F00BC05A
:103C580009F00CC00AF0082A03D0D8900A320932B9
:103C6800082EFBD70930D8A001D08982D8B001D05E
:103C78008992010E016E000E026E000E036E000E98
:103C8800046E05EC23F08986010E016E000E026EAB
:103C9800000E036E000E046E05EC23F089968992DF
:103CA8000E06D1D7898889968992010E016E000E79
:103CB800026E000E036E000E046E05EC23F0120077
:103CC800000E3C6E8E0E3B6E3650800A800F08E167
:103CD800000E355C05E1000E345C02E1000E335C39
:103CE800D8B011D0361E351E341E336C000E342267
:103CF80035223622010E3C6E06D0D8903632353247
:103D0800343233323B2A000E3314376E000E34142B
:103D1800386E000E3514396EFF0E36143A6E3A506E
:103D2800371038103910D8A4E8D733C001F034C0A0
:103D380002F035C003F03BC004F03CC005F070EC65
:103D48001DF001C033F002C034F003C035F012009A
:103D580003AE16D001C007F002C008F003C009F096
:103D6800071E081E091E072A000E08220922000E37
:103D78000724016E000E0820026E800E0920036ED3
:103D880006AE16D004C007F005C008F006C009F05A
:103D9800071E081E091E072A000E08220922000E07
:103DA8000724046E000E0820056E800E0920066E9A
:103DB800000E011A000E021A800E031A000E041AD1
:103DC800000E051A800E061A0450015C05500258B0
:103DD80006500358D8B002D0D89001D0D88012002D
:103DE800000E066E0250800AF36E800EF35C000E21
:103DF800D8B4015CD8B006D0016C021ED8B0022A33
:103E0800010E066E0450800AF36E800EF35C000EFD
:103E1800D8B4035CD8B004D0036C041ED8B0042A0C
:103E280004500310D8B418D0010E056E04D0D890F1
:103E380003360436052A04AEFAD70350015C045051
:103E48000258D8A004D00350015E0450025AD890FA
:103E580004320332052EF1D70650D8B404D0016CD1
:103E6800021ED8B0022A01C001F002C002F01200FE
:103E7800000E926E000E936E000E946E000E896E08
:103E8800000E8A6E898AF28EF28CD09E08EC20F0A1
:103E98008B809CEC21F08B9092EC22F045EC23F087
:103EA8000001000E0001BD6F0001E50E0001BC6FAE
:103EB800899A000E0001B16F000E0001B26F000E6A
:103EC8000001B36F000E0001B46F080ED56E800EAE
:103ED800D76E010ED66EF294F28AD58E800ECD6E14
:103EE800F70ECF6E000ECE6E9E909D80CD80030E95
:103EF800CA6E000ECC6E9E929D82CA841200E50E98
:103F0800266E000E276E27500001BD1903E12650CA
:103F18000001BC19D8A407D00001000E0001BD6F34
:103F28000001E00E13D0E00E266E000E276E27501B
:103F38000001BD1903E126500001BC19D8A408D01E
:103F48000001000E0001BD6F0001E50E0001BC6F0D
:103F58003DEC23F00001E6510001E111266E2650E8
:103F68000001DE13E00E266E000E276E27500001BA
:103F7800BD1903E126500001BC19D8B402D0898AC2
:103F880001D0899A1200000E096E000E0A6E000E0A
:103F98000B6E000E0C6E0850051006100710D8B4F2
:103FA8002AD0010E0D6E06D0D89005360636073693
:103FB80008360D2A08AEF8D7D89009360A360B36D7
:103FC8000C360550015C065002580750035808503B
:103FD8000458D8A009D00550015E0650025A07506F
:103FE800035A0850045A0980D8900832073206321A
:103FF80005320D2EE1D709C001F00AC002F00BC04E
:1040080003F00CC004F01200929292969298928457
:10401800000E0001D36F000E0001D46F000E0001E6
:10402800D56F000E0001D66F000E0001D76F000E8D
:104038000001D86F000E0001D96F000E0001DA6F81
:10404800070E14EC23F00001DB910001DB93000163
:10405800DB950001DB970001DB990001DB9B000188
:10406800DB9D0001DB9F0001DC890001DC8B000186
:10407800DC8D000E30EC23F00001DD910001DE69DB
:104088000001DF691200A684010E0B6E30D00BC050
:10409800A9FF0FD002C0A8FF1FD003C0A8FF1CD0E3
:1040A80004C0A8FF19D006C0A8FF16D007C0A8FFF3
:1040B80013D00B50010AD8B4EDD7030AD8B4EDD702
:1040C800010AD8B4EDD7070AD8B4EDD7010AD8B495
:1040D800EDD7030AD8B4EAD7550EA76EAA0EA76E75
:1040E800A68201D08B8CA6B2FDD78B9C0B2A060E1C
:1040F8000B64CDD71200000E086E000E096E000E7C
:104108000A6E000E0B6E01A008D0010E016E000EA3
:10411800026E000E036E000E21D0010E0826000E5E
:1041280009220A220B22D8900432033202320132C9
:1041380001A0F3D708C005F0010E066E076A052A2C
:1041480003D0D89006360736052EFBD706C001F0F7
:1041580007C002F0000E02BEFF0E036E046E1200CE
:104168001550121013101410D8B424D0010E166E66
:1041780006D0D8901236133614361536162A15AED0
:10418800F8D712500E5C13500F5814501058155091
:104198001158D8A008D012500E5E13500F5A145060
:1041A800105A1550115AD89015321432133212324F
:1041B800162EE7D70EC00EF00FC00FF010C010F08B
:1041C80011C011F01200000E086E000E096E000EEC
:1041D8000A6E000E0B6E06D0010E0826000E09228C
:1041E8000A220B22D89004320332023201320450E0
:1041F800011002100310D8A4EFD708C005F0010E73
:10420800066E076A052A03D0D89006360736052EAB
:10421800FBD706C001F007C002F0000E02BEFF0E79
:10422800036E046E12008E0E116E06D0D8900C32FA
:104238000B320A320932112A000E09140D6E000ED3
:104248000A140E6E000E0B140F6EFF0E0C14106E77
:1042580010500D100E100F10D8A4E8D709C001F0A7
:104268000AC002F00BC003F011C004F0000E056E86
:1042780070EC1DF001C009F002C00AF003C00BF099
:104288001200196E19500C6E0D6A0E6A0F6A11EC45
:1042980022F00CC015F00DC016F00EC017F00FC0BC
:1042A80018F015501A6E1A50010D0001D30EF324A0
:1042B800D96E0001000EF420DA6E14C0DFFF070E7D
:1042C8001B6E1BBE09D01B5071EC21F0076E1B281A
:1042D80016EC1EF01B06F5D71200046E000E056ED4
:1042E800070E066E06BE22D006C001F004C002F01A
:1042F8000650010D0001D30EF324D96E0001000E03
:10430800F420DA6EDF50036E022A02D0D89003320E
:10431800022EFCD7010E0316012A02D0D8900336CC
:10432800012EFCD7035005120606DCD705501200F3
:104338000001E669020E0001E56F0A0E0001E76F51
:10434800180E0001E96F3A0E0001E86F010E000136
:10435800AD6F010E0001AB6F070E0001AF6FDD0EF0
:104368000001AE6F000E0001AA6F000E0001A96FD8
:10437800000E0001A86F000EA66E8B8CFAEC19F0E7
:104388008B9C12003CEC1FF0000E01015C6F000ECC
:1043980001015D6F000E01015E6F000E01015F6F8C
:1043A800010E01015C27000E01015D2301015E235E
:1043B80001015F23160E01015C5D000E01015D59CC
:1043C800000E01015E59000E01015F59D8A0E8D71F
:1043D800DBD71B6E1B500C6E0D6A0E6A0F6A11EC50
:1043E80022F00CC016F00DC017F00EC018F00FC068
:1043F80019F016501A6E1A50010D0001D30EF3244D
:10440800D96E0001000EF420DA6E155051EC15F04B
:10441800DF6E1B500001DE131200000E106E000E3E
:10442800116E000E126E000E136E06D0010E1026CD
:10443800000E112212221322D8900F320E320D32A2
:104448000C320F500C100D100E10D8A4EFD710C05E
:104458000CF011C00DF012C00EF013C00FF01200D6
:1044680001EE00F02F0EEE6AE806FDE100EEA8F07E
:104478003D0EEE6AE806FDE15F6A440EF66E460EF2
:10448800F76E000EF86E01EE2FF010EE1BF009002B
:10449800F5CFEEFFE550E150FAE1000EF86E0001AD
:1044A800C6EF21F004500310D8B418D0010E056EE1
:1044B80004D0D89003360436052A04AEFAD7035040
:1044C800015C04500258D8A004D00350015E045087
:1044D800025AD89004320332052EF1D701C001F0F8
:1044E80002C002F01200000E421A000E431A800E9B
:1044F800441A3FC033F040C034F041C035F042C0E8
:1045080036F043C037F044C038F044EC17F033C0FD
:104518003FF034C040F035C041F01200010EC26EC9
:104528000E0EC16EB50EC06E92801F0E0001E16FB7
:10453800000E0001E06F020E0001E26F280E00017C
:10454800E46F6C0E0001E36F12000150010B056E61
:1045580008D0D89004320332023201320150010BE4
:1045680005260450011002100310D8A4F2D70550F4
:1045780012007F0E031402100110D8B406D0000EEA
:10458800011A000E021A800E031A01C001F002C0BF
:1045980002F003C003F012000F501102F3CF13F022
:1045A800F4CF14F00F501202F350142610501102D9
:1045B800F350142613C00FF014C010F0120009C0F5
:1045C80001F00AC002F0036A8E0E046E000E056E3A
:1045D80070EC1DF001C009F002C00AF003C00BF036
:1045E8001200036E000E026E3A0E035CD8B005D0BE
:1045F8002F0E036402D0010E026E02C001F00130DA
:1046080012000106000E025A035A045A0128D8B4AF
:104618000228D8B40328D8B40428D8B41200F1D793
:1046280001014A6F0001DC5101014A19F00B010137
:104638004A190001DC6F0001DF851200303030308C
:10464800303030300000000000000000C84100C8D1
:104658004100C84100C8410001014A6F01014AB147
:1046680003D00001DC9F02D00001DC8F0001DF894C
:1046780012007F0E1D6EE10E1C6EFF0EC1EC11F0D4
:0C4688001200000E8A6E9368F18E120082
:107EB400003F065B4F666D7C277F67000031480EEC
:107EC4005300777C585E79713D74101E68383754BE
:107ED4005C7367502D781C3C7E766E1B010000009D
:107EE4000A00000064000000E803000010270000FE
:107EF400A086010040420F008096980000E1F5053D
:107F040000CA9A3B010000000A000000640000005F
:107F1400E803000010270000A086010040420F0083
:107F24008096980000E1F50500CA9A3B00803FCD99
:107F3400CC3DD7233C12833AB7D138C6273738868D
:107F440035C0D633CC2B32708930E7DB2EE53C1EAE
:107F540042A20D00803F00204100C842007A444004
:107F64001C4650C34724744997184BBCBE4C6B6ED7
:107F74004E03155079AD60F34971536F6E004D6F28
:107F84006E00446569004D697400446F6E0046726A
:107F9400690053616D002020253032642E25303273
:107FA400642E2530326400253032642D253032644D
:107FB4002D25303264002563256320253032642E5C
:107FC4002530326400257320253032642E2530326A
:107FD4006400286E756C6C29002020202000256325
:107FE400256300252E2A6600252A6C6900252A6649
:0C7FF40000455252002A43002A460000BB
:020000040020DA
:08000000FFFFFFFFFFFFFFFF00
:020000040030CA
:0E000000230C1F1EFF8181FF0FC00FE00F4079
:00000001FF
