:040000000CEF00F011
:10000800FACF98F0FBCF99F0E9CF9AF051ED19F0BB
:10001800DDEF23F0000E00010001756F570E00019F
:10002800746FB2EF07F0000100018151250AD8B4BE
:100038000BD053C0D9FF54C0DAFF000181C0DFFFE5
:10004800534A542AB2EF07F0000E000100017E6FF8
:10005800000E00017D6F000E00010001796F000E97
:100068000001786F05D0000100017885554A562AAD
:1000780055C0F6FF56C0F7FF0800F550300AD8B44F
:10008800F2D755C0F6FF56C0F7FF0800F5CF01F0CC
:10009800E9EC24F0D8A03ED0000E000100017E6FEC
:1000A800000E00017D6F7DC017F07EC018F0000EB5
:1000B8001A6E0A0E196E75EC24F017C07DF018C080
:1000C8007EF055C0F6FF56C0F7FF0800F5CF60F088
:1000D800D00E000160250001616F00010001626B14
:1000E800FF0E622300016151000100017D2700011C
:1000F8006251000100017E23554A562A55C0F6FF79
:1001080056C0F7FF0800F5CF01F0E9EC24F0D8A0BD
:100118001DD0C9D755C0F6FF56C0F7FF0800F550E7
:100128002A0AD8A413D074C0D9FF75C0DAFF000119
:10013800DECF7DF00001DDCF7EF0020E0001000170
:100148007427000E00017523554A562A55C0F6FF3C
:1001580056C0F7FF0800F5502E0AD8A454D0000165
:100168000001798D554A562A55C0F6FF56C0F7FF4B
:100178000800F5502A0AD8A414D074C0D9FF75C055
:10018800DAFF0001DECF7FF00001DDCF80F0020E44
:10019800000100017427000E00017523554A562AF4
:1001A8002AD1000E00010001806F000E00017F6F50
:1001B8001ED07FC017F080C018F0000E1A6E0A0E0D
:1001C800196E75EC24F055C0F6FF56C0F7FF08000D
:1001D800F5501726000E1822D00E17240001000132
:1001E8007F6FFF0E18200001806F554A562A55C0B0
:1001F800F6FF56C0F7FF0800F5CF01F0E9EC24F050
:10020800D8A0F9D0D6D7000E00010001806F000EEB
:1002180000017F6F000100017989EDD00001000124
:100228007889E9D000010001798508D174C0D9FF27
:1002380075C0DAFF0001DECF82F00001DDCF83F068
:10024800020E000100017427000E00017523000151
:10025800000183518211D8A407D07F0E000100014C
:10026800836FE80E0001826F000E00010001856FA8
:10027800000E0001846F04D000010001844B852B1F
:10028800000182C060F0000183C061F0000100013C
:10029800845100016027000100018551000161239C
:1002A80000016051F66EE96E070EEA6E00016151B9
:1002B800EA6403D0EA6EEF5003D0F76E0800F550F9
:1002C8000009D8A4D9D70001000180517F11D8B402
:1002D80012D0000100018451000100017F5D00017E
:1002E80000018551000100018059D8B004D07FC0B9
:1002F80084F080C085F0000100017D5100010001FB
:10030800845D000100017E51000100018559D8B0CB
:100318000CD0000120EE84F0DE50000100017D5F6A
:10032800DD50000100017E5B10D0000E00010001CD
:100338007E6F000E00017D6F08D053C0D9FF54C0F6
:10034800DAFF200EDF6E534A542A000100017D07B0
:10035800D8A07E0700017D29D8B47E29D8B41ED044
:10036800ECD7000182C0F6FF000183C0F7FFF86AEE
:1003780053C0D9FF54C0DAFF070EF76403D0080052
:10038800F55005D0F6CFE9FFF7CFEAFFEF50DF6E63
:1003980000010001824B832B534A542A00010001BB
:1003A8008407D8A0850700018429D8B48529D8B442
:1003B800B2EF07F0D6D774C0D9FF75C0DAFFDF50A7
:1003C80000010001816F020E000100017427000E78
:1003D800000175230001000E00010001836F000178
:1003E800810E0001826F000E00010001856F010E71
:1003F8000001846F68D755C0F6FF56C0F7FF554A0D
:10040800562A08000001F5CF81F000018151000A49
:10041800D8B4C0EF07F0630AD8B4CDD7070AD8B468
:100428000DD0020AD8B4FED60F0AD8B407D0050AF0
:10043800D8B4F4D61F0AD8B4F9D6CCD7070E000121
:1004480000017915D8B4A2D30001000179A907D019
:10045800000E00010001806F060E00017F6F74C05E
:10046800D9FF75C0DAFF0001DECF7AF00001DECFD8
:100478007BF00001DDCF7CF0030E00010001742742
:10048800000E00017523000100017C51800A800FD5
:1004980007E1000E00017B5D03E1000E00017A5DBB
:1004A800D8B012D07AC001F07BC002F07CC003F053
:1004B800D6EC24F003C07CF002C07BF001C07AF0D7
:1004C800030E000100017813000E00010001776F90
:1004D800000E0001766F7F0E000100017C150001FF
:1004E8007B1100017A11D8B496D0820E0001606F9A
:1004F800FF0E616F00017AC062F000017BC063F0FB
:1005080000017CC064F000017DC065F0100E06D0CB
:100518000001D8906533643363336233E82EF8D72B
:10052800000162510001602500010001766F0001A1
:100538000001000E6121776F000100017607D8A045
:10054800770776C017F077C018F0000E1A6E030E02
:10055800196E75EC24F017C076F018C077F076C0E5
:100568000AF077C00BF0000E0D6E0A0E0C6E7CECD4
:1005780020F00AC076F00BC077F00001000177AFD9
:1005880005D0000100017607D8A077070001000117
:10059800765100083F6E33EC12F041C073F040C052
:1005A80072F03FC071F00001000E406E0001710E44
:1005B8003F6E7AC041F07BC042F07CC043F01CEC37
:1005C80024F071C001F072C002F073C003F0000E95
:1005D800046E800E056E3F0E066E34EC20F0D8B027
:1005E80006D0000100017607D8A0770714D071C0A3
:1005F80001F072C002F073C003F0000E046E200E0A
:10060800056E410E066E34EC20F0D8A004D000012F
:100618000001764B772B000100018051800A800F82
:100628000D0ED8B47F5DD8B012D00001000E4F6E09
:1006380000017A0E4E6E7FC03FF05BEC14F041C0B3
:1006480052F040C051F03FC050F03AEC24F00001A5
:1006580000017751800A800F0A0ED8B4765DD8B0B1
:1006680022D07F0E000100017C1500017B110001E2
:100678007A11D8B467D07AC01FF07BC020F07CC054
:1006880021F024EC1DF022501F1020102110D8A4B6
:1006980059D0000100017751800A800F020ED8B4AA
:1006A800765DD8A04FD071C001F072C002F073C05F
:1006B80003F0700E046E890E056E400E066E34EC63
:1006C80020F0D8B003D00001F70E02D00001F80ED8
:1006D80000017627FF0E0001772376C03FF033EC48
:1006E80012F041C073F040C072F03FC071F07AC0A0
:1006F80001F07BC002F07CC003F071C004F072C04E
:1007080005F073C006F0A7EC1AF004C06CF003C043
:100718006BF002C06AF001C069F069C082F06AC07B
:1007280083F06BC084F06CC085F0000E00010001FE
:100738007A6F000E000100017B6F000E00010001BE
:100748007C6F2FD07AC01FF07BC020F07CC021F0D6
:1007580024EC1DF022C085F021C084F020C083F075
:100768001FC082F00001000E1E6E00017A0E1D6E81
:1007780082C009F083C00AF084C00BF085C00CF079
:100788000EEC23F00BC021F00AC020F009C01FF0C6
:10079800FEEC23F0000E00010001776F000E00014F
:1007A800766F0001606F010E00010001816F00018A
:1007B80060510001000181510A0AD8B421D000011A
:1007C80000018151040DE30EF324F66E7E0EF42031
:1007D800F76E0900F55000010001825D0900F5502F
:1007E800000183590900F550000184590900F550AA
:1007F80000018559D8A004D000010001812BD9D768
:10080800000181C060F00001616B60BF61070001F9
:1008180000017F51000160270001000180510001A3
:1008280061230001000176510001602700010001E9
:1008380077510001612300016051000100017D5FD3
:1008480000016151000100017E5B0001000180513F
:100858007F11D8B405D0000100017D07D8A07E071C
:10086800030E0001000178150001606F000E000101
:10087800000179150001616F000161516011D8B460
:1008880005D0000100017D07D8A07E070001000106
:1008980078B50ED025D053C0D9FF54C0DAFF300E3A
:1008A800DF6E534A542A000100017D07D8A07E0755
:1008B800000100017E51800A800F010ED8B47D5DD1
:1008C800D8A06CD0E8D753C0D9FF54C0DAFF200EA7
:1008D800DF6E534A542A000100017D07D8A07E0725
:1008E800000100017E51800A800F010ED8B47D5DA1
:1008F800D8B0E9D7030E0001000178150001606F38
:10090800000E0001000179150001616F00016151BD
:100918006011D8B443D053C0D9FF54C0DAFF2D0EAC
:100928003AD082C001F083C002F084C003F085C0D1
:1009380004F0000100018151040DE30EF324F66E6A
:100948007E0EF420F76E0900F5CF05F00900F5CF0B
:1009580006F00900F5CF07F00A00F5CF08F007EC1C
:1009680021F001C06DF002C06EF06DC001F06EC0E4
:1009780002F0000E046E0A0E036EBAEC23F001C0FA
:100988006DF002C06EF0000100016D51300F53C0D0
:10099800D9FF54C0DAFFDF6E534A542A0001000120
:1009A800810700018129D8B40ED0BBD753C0D9FF25
:1009B80054C0DAFF300EDF6E534A542A000100019A
:1009C8007607D8A07707000100017751800A800FC9
:1009D800010ED8B4765DD8B0E9D700010001805186
:1009E800800A800F090ED8B47F5DD8A009D0000115
:1009F800606F080E00010001816F0001605102D094
:100A08007FC081F0000100018151000100017F5F7A
:100A1800000E000181BFFF0E00010001805B000194
:100A280000018151D8B408D053C0D9FF54C0DAFFAF
:100A38002E0EDF6E534A542A81C03FF033EC12F079
:100A480041C068F040C067F03FC066F07AC031F03E
:100A58007BC032F07CC033F066C02EF067C02FF048
:100A680068C030F038EC1BF030C021F02FC020F007
:100A78002EC01FF024EC1DF022C085F021C084F0A8
:100A880020C083F01FC082F065D082C001F083C00F
:100A980002F084C003F085C004F000010001815118
:100AA800040DE30EF324F66E7E0EF420F76E0900B3
:100AB800F5CF05F00900F5CF06F00900F5CF07F0EE
:100AC8000A00F5CF08F007EC21F001C06FF002C072
:100AD80070F06FC001F070C002F0000E046E0A0ED4
:100AE800036EBAEC23F001C06FF002C070F0000191
:100AF80000016F51300F53C0D9FF54C0DAFFDF6EC9
:100B0800534A542A82C014F083C015F084C016F0EA
:100B180085C017F0000100018151040DE30EF32494
:100B2800F66E7E0EF420F76E0900F5CF18F0090076
:100B3800F5CF19F00900F5CF1AF00A00F5CF1BF030
:100B4800A7EC22F017C085F016C084F015C083F01A
:100B580014C082F000010001810700018129D8B486
:100B68000ED093D753C0D9FF54C0DAFF300EDF6ED2
:100B7800534A542A000100017F07D8A080070001CA
:100B8800000180517F11D8B4E9D1ECD700010001F0
:100B980078A912D074C0D9FF75C0DAFF0001DECF82
:100BA80082F00001DECF83F00001DECF84F0000187
:100BB800DECF85F0040E14D074C0D9FF75C0DAFFFB
:100BC8000001DECF82F00001DDCF83F00001000ECE
:100BD800000183BFFF0E0001846F0001856F020EC4
:100BE800000100017427000E0001752300010001B7
:100BF80085AF14D0030E0001000178130001000135
:100C0800851F0001841F0001831F0001826D000EF3
:100C180000018323000184230001852300010001D2
:100C280080517F11D8A40CD0000100018551821198
:100C380083118411D8A404D0000100017F4B802BBC
:100C48000001606F010E00010001816F0001605119
:100C58000001000181510A0AD8B421D00001000125
:100C68008151040DE30EF324F66E7E0EF420F76E28
:100C78000900F55000010001825D0900F5500001EE
:100C880083590900F550000184590900F550000105
:100C98008559D8A004D000010001812BD9D7800E36
:100CA8000001000181BF7F0E606F000100017F51CC
:100CB80000010001815D000100018051800A0001EE
:100CC8006059D8B003D07FC081F020D00001000166
:100CD8008051800A0001606F00010001815100010C
:100CE80000017F5D800E0001000181BF7F0E0001C1
:100CF8006059D8B00BD000010001815100010001FA
:100D08007F6F0001806B00017FBF80070001000139
:100D18007E517D11D8B416D0030E0001000178155C
:100D28000001606F000E0001000179150001616F7C
:100D3800000161516011D8B405D0000100017D07A0
:100D4800D8A07E070001000179AD28D0000100017C
:100D58008051800A0001606F000100017D5100018F
:100D680000017F5D000100017E51800A0001605989
:100D7800D8B00DD0000100017F51000100017D5F56
:100D8800000100018051000100017E5B07D0000EC8
:100D9800000100017E6F000E00017D6F800E0001D2
:100DA800000181BF7F0E606F000100017D510001CD
:100DB8000001815D000100017E51800A0001605937
:100DC800D8B00ED0000100018151000100017D5F03
:100DD800000E000181BFFF0E000100017E5B07D0FD
:100DE800000E000100017E6F000E00017D6F000102
:100DF800000178A52DD0030E00010001781500012F
:100E0800606F000E0001000179150001616F00019B
:100E180061516011D8B408D053C0D9FF54C0DAFF6B
:100E28002D0EDF6E534A542A000100017E517D11B8
:100E3800D8B489D053C0D9FF54C0DAFF300EDF6E62
:100E4800534A542A000100017D07D8A07E07EDD738
:100E5800000100017E517D11D8B412D053C0D9FFD2
:100E680054C0DAFF200EDF6E534A542A00010001F5
:100E78007D07D8A07E0700017E517D11D8A4EED74A
:100E8800030E0001000178150001606F000E0001DB
:100E9800000179150001616F000161516011D8B43A
:100EA80052D053C0D9FF54C0DAFF2D0EDF6E49D09F
:100EB80000017FC060F0000180C061F00001D8909F
:100EC800603761370001D89060376137E30E000161
:100ED8006025F66E7E0E6121F76E0900F5CF05F0EC
:100EE8000900F5CF06F00900F5CF07F00A00F5CFA5
:100EF80008F082C001F083C002F084C003F085C00E
:100F080004F007EC21F004C017F003C016F002C08B
:100F180015F001C014F00A0E186E000E196E000EBE
:100F28001A6E000E1B6EA7EC22F01450300F000151
:100F38000001816F53C0D9FF54C0DAFF000181C09E
:100F4800DFFF534A542A000100017F07D8A0800719
:100F580000017F29D8B48029D8A4AAD755C0F6FFA4
:100F680056C0F7FF554A562A08000001F5CF81F010
:100F78000001816717EF00F053C0D9FF54C0DAFFB2
:100F8800000EDF6E1200010E00010001D327000ED3
:100F98000001D423000E0001D523000E0001D62342
:100FA8008B9481A05AD00001D3C01FF00001D4C097
:100FB80020F00001D5C021F00001D6C022F01F1E8C
:100FC800201E211E221E1F2A000E2022212222223C
:100FD80000010001A6511F24236E00010001A75142
:100FE8002020246E00010001A8512120256E000157
:100FF8000001A9512220266E2650800A800F08E1A0
:10100800000E255C05E1000E245C02E1010E235C64
:10101800D8B023D00F0E00010001D3250001000134
:10102800A66F000E00010001D4210001A76F000E79
:1010380000010001D5210001A86F000E0001000188
:10104800D6210001A96F3BEC22F01F6E1F30D8A0FB
:1010580001D08B84D8B001D08B9481A265D00001D7
:10106800D3C01FF00001D4C020F00001D5C021F08A
:101078000001D6C022F01F1E201E211E221E1F2A7C
:10108800000E20222122222200010001AA511F2441
:10109800236E00010001AB512020246E00010001E5
:1010A800AC512120256E00010001AD512220266E91
:1010B8002650800A800F08E1000E255C05E1000E2D
:1010C800245C02E1010E235CD8B02ED00F0E000183
:1010D8000001D32500010001AA6F000E00010001E4
:1010E800D4210001AB6F000E00010001D5210001E1
:1010F800AC6F000E00010001D6210001AD6F010E9A
:101108001F6E00010001E7510F0B206E1F502026B3
:1011180000010001E7512018F00B20180001000120
:10112800E76F00010001EA8581A452D00001D3C015
:101138001FF00001D4C020F00001D5C021F000014B
:10114800D6C022F01F1E201E211E221E1F2A000E9E
:1011580020222122222200010001AE511F24236EE9
:1011680000010001AF512020246E00010001B051A0
:101178002120256E00010001B1512220266E265043
:10118800800A800F08E1000E255C05E1000E245C52
:1011980002E1010E235CD8B01BD00F0E0001000144
:1011A800D32500010001AE6F000E00010001D4211B
:1011B8000001AF6F000E00010001D5210001B06FE2
:1011C800000E00010001D6210001B16F9EEC1FF056
:1011D80081A665D00001D3C01FF00001D4C020F063
:1011E8000001D5C021F00001D6C022F01F1E201E2C
:1011F800211E221E1F2A000E202221222222000147
:101208000001B2511F24236E00010001B3512020B8
:10121800246E00010001B4512120256E0001000157
:10122800B5512220266E2650800A800F08E1000E54
:10123800255C05E1000E245C02E1010E235CD8B0B8
:101248002ED00F0E00010001D32500010001B26F5E
:10125800000E00010001D4210001B36F000E00014F
:101268000001D5210001B46F000E00010001D62154
:101278000001B56F010E1F6E00010001E7510F0B51
:10128800206E1F50205E00010001E7512018F00B6E
:10129800201800010001E76F00010001EA858B902A
:1012A80081A851D00001D3C01FF00001D4C020F0A4
:1012B8000001D5C021F00001D6C022F01F1E201E5B
:1012C800211E221E1F2A000E202221222222000176
:1012D8000001B6511F24236E00010001B7512020E0
:1012E800246E00010001B8512120256E0001000183
:1012F800B9512220266E2650800A800F08E1000E80
:10130800255C05E1000E245C02E1010E235CD8B0E7
:101318001AD00F0E00010001D32500010001B66F9D
:10132800000E00010001D4210001B76F000E00017A
:101338000001D5210001B86F000E00010001D6217F
:101348000001B96F8B8081AA50D00001D3C01FF073
:101358000001D4C020F00001D5C021F00001D6C0A2
:1013680022F01F1E201E211E221E1F2A000E2022D0
:101378002122222200010001BA511F24236E0001FC
:101388000001BB512020246E00010001BC51212026
:10139800256E00010001BD512220266E2650800ACC
:1013A800800F08E1000E255C05E1000E245C02E1D7
:1013B800010E235CD8B019D00F0E00010001D3250F
:1013C80000010001BA6F000E00010001D4210001E4
:1013D800BB6F000E00010001D5210001BC6F000E9B
:1013E80000010001D6210001BD6F81AC50D0000181
:1013F800D3C01FF00001D4C020F00001D5C021F0F7
:101408000001D6C022F01F1E201E211E221E1F2AE8
:10141800000E20222122222200010001BE511F2499
:10142800236E00010001BF512020246E000100013D
:10143800C0512120256E00010001C1512220266ED5
:101448002650800A800F08E1000E255C05E1000E99
:10145800245C02E1010E235CD8B019D00F0E000104
:101468000001D32500010001BE6F000E000100013C
:10147800D4210001BF6F000E00010001D521000139
:10148800C06F000E00010001D6210001C16F81AEBE
:1014980050D00001D3C01FF00001D4C020F00001DB
:1014A800D5C021F00001D6C022F01F1E201E211E2B
:1014B800221E1F2A000E20222122222200010001C2
:1014C800C2511F24236E00010001C3512020246E45
:1014D80000010001C4512120256E00010001C55101
:1014E8002220266E2650800A800F08E1000E255C17
:1014F80005E1000E245C02E1010E235CD8B019D08E
:101508000F0E00010001D32500010001C26F000E7B
:1015180000010001D4210001C36F000E0001000189
:10152800D5210001C46F000E00010001D621000181
:10153800C56F8B948150D8A4EFEC0FF0816668D00A
:10154800000E00010001A66F000E0001A76F000E3B
:101558000001A86F000E0001A96F000E0001000134
:10156800AA6F000E0001AB6F000E0001AC6F000EF9
:101578000001AD6F000E00010001AE6F000E00010A
:10158800AF6F000E0001B06F000E0001B16F000ECA
:1015980000010001B26F000E0001B36F000E0001E0
:1015A800B46F000E0001B56F000E00010001B66FA8
:1015B800000E0001B76F000E0001B86F000E0001A9
:1015C800B96F000E00010001BA6F000E0001BB6F79
:1015D800000E0001BC6F000E0001BD6F000E00017F
:1015E8000001BE6F000E0001BF6F000E0001C06F4A
:1015F800000E0001C16F000E00010001C26F000E55
:101608000001C36F000E0001C46F000E0001C56F1A
:10161800120000010001EA51E911D8B485D2010194
:10162800396F0F0E010101013E6F010139510101AE
:1016380001013EBF79D283D03EC139F1010E0101CB
:101648003A6F0101392B03D00101D8903A370101D3
:10165800392FFAD701013A5101010101346F010113
:1016680001013E51010D0001DE0EF324D96E000187
:10167800000EF420DA6EDF5001010101356FC4EC71
:1016880020F02CD20101396F090E010101012C6FE4
:101698000101395100010001E651FF0B010101016F
:1016A8002D6F3AEC1CF01AD20101396F0A0E0101B4
:1016B80001012C6F0101395100010001E7510F0BA5
:1016C800010101012D6F3AEC1CF008D20101396FBC
:1016D8000B0E010101012C6F0101395100010001BC
:1016E800E739070B010101012D6F3AEC1CF0F6D127
:1016F8000101396F0F0E010101012C6F01013951F0
:10170800000E0001E7BF010E010101012D6F3AEC47
:101718001CF0E4D10101396F0C0E010101012C6F9D
:101728000101395100010001E8B102D0010E01D0D8
:10173800000E010101012D6F3AEC1CF0CFD13EC122
:1017480039F1010E01013A6F3B6B0101392B04D0CD
:10175800D89001013A373B370101392FF9D70001F9
:101768000001E95101013A1700010001EA510101A4
:101778003B1701013B51000AD8B410D0020AD8B473
:1017880090D1060AD8B493D10C0AD8B496D1180AC5
:10179800D8B499D1300AD8B49CD1A0D101013A511A
:1017A800010AD8B449D7030AD8B446D7010AD8B42D
:1017B80043D7070AD8B440D7010AD8B43DD7030A9B
:1017C800D8B43AD7010AD8B437D70F0AD8B434D71F
:1017D800010AD8B431D7030AD8B42ED7010AD8B42D
:1017E8002BD7070AD8B428D7010AD8B425D7030AB3
:1017F800D8B422D7010AD8B41FD71F0AD8B41CD727
:10180800010AD8B419D7030AD8B416D7010AD8B42C
:1018180013D7070AD8B410D7010AD8B40DD7030ACA
:10182800D8B40AD7010AD8B407D70F0AD8B404D74E
:10183800010AD8B401D7030AD8B4FED6010AD8B42D
:10184800FBD6070AD8B4F8D6010AD8B4F5D6030AE5
:10185800D8B4F2D6010AD8B4EFD63F0AD8B4ECD639
:10186800010AD8B4E9D6030AD8B4E6D6010AD8B42E
:10187800E3D6070AD8B4E0D6010AD8B4DDD6030AFD
:10188800D8B4DAD6010AD8B4D7D60F0AD8B4D4D681
:10189800010AD8B4D1D6030AD8B4CED6010AD8B42E
:1018A800CBD6070AD8B4C8D6010AD8B4C5D6030A15
:1018B800D8B4C2D6010AD8B4BFD61F0AD8B4BCD689
:1018C800010AD8B4B9D6030AD8B4B6D6010AD8B42E
:1018D800B3D6070AD8B4B0D6010AD8B4ADD6030A2D
:1018E800D8B4AAD6010AD8B4A7D60F0AD8B4A4D6B1
:1018F800010AD8B4A1D6030AD8B49ED6010AD8B42E
:101908009BD6070AD8B498D6010AD8B495D6030A44
:10191800D8B492D6010AD8B48FD67F0AD8B48CD658
:10192800010AD8B489D6030AD8B486D6010AD8B42D
:1019380083D6070AD8B480D6010AD8B47DD6030A5C
:10194800D8B47AD6010AD8B477D60F0AD8B474D6E0
:10195800010AD8B471D6030AD8B46ED6010AD8B42D
:101968006BD6070AD8B468D6010AD8B465D6030A74
:10197800D8B462D6010AD8B45FD61F0AD8B45CD6E8
:10198800010AD8B459D6030AD8B456D6010AD8B42D
:1019980053D6070AD8B450D6010AD8B44DD6030A8C
:1019A800D8B44AD6010AD8B447D60F0AD8B444D610
:1019B800010AD8B441D6030AD8B43ED6010AD8B42D
:1019C8003BD6070AD8B438D6010AD8B435D6030AA4
:1019D800D8B432D6010AD8B42FD63F0AD8B42CD6F8
:1019E800010AD8B429D6030AD8B426D6010AD8B42D
:1019F80023D6070AD8B420D6010AD8B41DD6030ABC
:101A0800D8B41AD6010AD8B417D60F0AD8B414D63F
:101A1800010AD8B411D6030AD8B40ED6010AD8B42C
:101A28000BD6070AD8B408D6010AD8B405D6030AD3
:101A3800D8B402D6010AD8B4FFD51F0AD8B4FCD549
:101A4800010AD8B4F9D5030AD8B4F6D5010AD8B42E
:101A5800F3D5070AD8B4F0D5010AD8B4EDD5030AEE
:101A6800D8B4EAD5010AD8B4E7D50F0AD8B4E4D572
:101A7800010AD8B4E1D5030AD8B4DED5010AD8B42E
:101A8800DBD5070AD8B4D8D5010AD8B4D5D5030A06
:101A9800D8B4D2D5010AD8B4CFD5FF0AD8B4CCD59A
:101AA8001DD001013A51000AD8B4ECD517D0010174
:101AB8003A51000AD8B4F8D511D001013A51000AB8
:101AC800D8B404D60BD001013A51000AD8B410D6C4
:101AD80005D001013A51000AD8B41CD63EC139F1EB
:101AE800010E01013A6F3B6B0101392B04D0D890EC
:101AF80001013A373B370101392FF9D701013A1D66
:101B080001013C6F010101013B1D3D6F01013C5189
:101B180000010001E91701013D5100010001EA1728
:101B2800010101013E0783D5120021EE0CF010EEF1
:101B380088F00C0EDECFE6FFE82EFCD70001866F9A
:101B4800010E00010001876F0001865151C196F016
:101B580023D2000100019667FAD10001866F000EBA
:101B680000010001876F00018651F1D10001000ECC
:101B7800546E0001880E536E7F0E566EDB0E556E46
:101B880000010001CA51040D810EF324576E7F0E27
:101B9800F420586E0001C8C059F05A6A0001C7C045
:101BA8005BF05C6A0EEC00F07ED1CCC001F0CDC0D9
:101BB80002F0000E046E640E036EBAEC23F001C04E
:101BC80094F002C095F00001000E546E0001880EDA
:101BD800536E7F0E566EBE0E556E0001C9C057F08B
:101BE800586A0001CBC059F05A6A94C05BF095C09E
:101BF8005CF00EEC00F057D10001000E546E0001AD
:101C0800880E536E7F0E566E9D0E556E0001C8C02D
:101C180057F0586A0001C7C059F05A6A0001C6C097
:101C28005BF05C6A0EEC00F03ED10001000E546ED1
:101C38000001880E536E7F0E566EAE0E556E000173
:101C48000001CA51040D810EF324F66E7F0EF420B4
:101C5800F76E0800F550576E586A00010001CA5126
:101C6800040D010EF326000EF422810EF324F66E05
:101C78007F0EF420F76E0800F550596E5A6A00017D
:101C8800C7C05BF05C6A0001C6C05DF05E6A0EEC1E
:101C980000F009D1CCC001F0CDC002F0000E046EF6
:101CA800640E036EBAEC23F001C094F002C095F004
:101CB8000001000E546E0001880E536E7F0E566EA2
:101CC8009D0E556E0001C9C057F0586A0001CBC07F
:101CD80059F05A6A94C05BF095C05CF00EEC00F0C5
:101CE800E2D00001000E546E0001880E536E7F0E84
:101CF800566ECD0E556E0001C8C057F0586A0001E7
:101D0800C7C059F05A6A0EEC00F0CDD00001000EA1
:101D1800546E0001880E536E7F0E566ECD0E556EB2
:101D28000001C9C057F0586A0001CBC059F05A6A7F
:101D38000EEC00F0B8D0000100019651000AD8B4AA
:101D4800D0D7010AD8B458D7030AD8B40FD7010A94
:101D5800D8B46BD7050AD8B4D9D70E0AD8B49AD74D
:101D6800010AD8B422D79FD00001000E546E00019A
:101D7800880E536E7F0E566E9F0E556E0001C8C0BA
:101D880057F0586A0001C7C059F05A6A0001C6C026
:101D98005BF05C6A0EEC00F0C3D00001000E546EDC
:101DA8000001880E536E7F0E566EAF0E556E000101
:101DB8000001CA51040D810EF324F66E7F0EF42043
:101DC800F76E0800F550576E586A00010001CA51B5
:101DD800040D010EF326000EF422810EF324F66E94
:101DE8007F0EF420F76E0800F550596E5A6A00010C
:101DF800C7C05BF05C6A0001C6C05DF05E6A0EECAD
:101E080000F08ED0CCC001F0CDC002F0000E046E00
:101E1800640E036EBAEC23F001C094F002C095F092
:101E28000001000E546E0001880E536E7F0E566E30
:101E38009F0E556E0001C9C057F0586A0001CBC00B
:101E480059F05A6A94C05BF095C05CF00EEC00F053
:101E580067D00001000E546E0001880E536E7F0E8D
:101E6800566ECF0E556E0001C8C057F0586A000173
:101E7800C7C059F05A6A0EEC00F052D00001000EAB
:101E8800546E0001880E536E7F0E566ECF0E556E3F
:101E98000001C9C057F0586A0001CBC059F05A6A0E
:101EA8000EEC00F03DD0000100019651000AD8B4B4
:101EB800D0D7010AD8B458D7020AD8B46ED7050AC1
:101EC800D8B4DCD70E0AD8B49DD763D00001000E71
:101ED800546E0001880E536E7F0E566ED10E556EED
:101EE8000001C8C057F0586A0001C7C059F05A6AC3
:101EF8000EEC00F01FD00001000E546E0001880E99
:101F0800536E7F0E566ED10E556E0001C9C057F044
:101F1800586A0001CBC059F05A6A0EEC00F00AD09A
:101F2800000100019651000AD8B4D0D7060AD8B4E7
:101F3800E2D72FD00001000E546E0001880E536EB8
:101F48007F0E566EEF0E556E0EEC00F022D05F50ED
:101F5800016E026A036A046AC2EC24F0000AD8B46B
:101F6800E9D7010AD8B4E6D7030AD8B4E3D7010AF7
:101F7800D8B4E0D7070AD8B4D3D7010AD8B4D0D791
:101F8800030AD8B490D7010AD8B48DD70F0AD8B4A9
:101F9800D2D600010001962B010101015151000127
:101FA80000019619D8B405D0000100018751D8B4B2
:101FB800D0D596C051F15FC025F00001000E276E04
:101FC8000001880E266E7BEC18F05F5000010001BE
:101FD800E9138B72120000010001EA51E911D8B42B
:101FE8003DD2196E0F0E1E6E19501EBE37D25AD032
:101FF8001EC019F0010E1A6E192A02D0D8901A368E
:10200800192EFCD71A50146E1E50010D0001DE0E59
:10201800F324D96E0001000EF420DA6EDF50156E3D
:102028006EEC23F001D2196E090E076E19500001EB
:102038000001E651FF0B086E02EC1FF0F5D1196E96
:102048000A0E076E195000010001E7510F0B086EC8
:1020580002EC1FF0E9D1196E0B0E076E1950000142
:102068000001E739070B086E02EC1FF0DDD1196E8D
:102078000F0E076E1950000E0001E7BF010E086E23
:1020880002EC1FF0D1D1196E0C0E076E1950000129
:102098000001E8B102D0010E01D0000E086E02EC7A
:1020A8001FF0C2D11EC019F0010E1A6E1B6A192A40
:1020B80003D0D8901A361B36192EFBD70001000121
:1020C800E9511A1600010001EA511B161B50000ABB
:1020D800D8B410D0020AD8B48FD1060AD8B491D196
:1020E8000C0AD8B493D1180AD8B495D1300AD8B408
:1020F80097D19AD11A50010AD8B47AD7030AD8B41A
:1021080077D7010AD8B474D7070AD8B471D7010AA7
:10211800D8B46ED7030AD8B46BD7010AD8B468D735
:102128000F0AD8B465D7010AD8B462D7030AD8B45D
:102138005FD7010AD8B45CD7070AD8B459D7010ABF
:10214800D8B456D7030AD8B453D7010AD8B450D74D
:102158001F0AD8B44DD7010AD8B44AD7030AD8B44D
:1021680047D7010AD8B444D7070AD8B441D7010AD7
:10217800D8B43ED7030AD8B43BD7010AD8B438D765
:102188000F0AD8B435D7010AD8B432D7030AD8B45D
:102198002FD7010AD8B42CD7070AD8B429D7010AEF
:1021A800D8B426D7030AD8B423D7010AD8B420D77D
:1021B8003F0AD8B41DD7010AD8B41AD7030AD8B42D
:1021C80017D7010AD8B414D7070AD8B411D7010A07
:1021D800D8B40ED7030AD8B40BD7010AD8B408D795
:1021E8000F0AD8B405D7010AD8B402D7030AD8B45D
:1021F800FFD6010AD8B4FCD6070AD8B4F9D6010A22
:10220800D8B4F6D6030AD8B4F3D6010AD8B4F0D6AF
:102218001F0AD8B4EDD6010AD8B4EAD6030AD8B44E
:10222800E7D6010AD8B4E4D6070AD8B4E1D6010A39
:10223800D8B4DED6030AD8B4DBD6010AD8B4D8D6C7
:102248000F0AD8B4D5D6010AD8B4D2D6030AD8B45E
:10225800CFD6010AD8B4CCD6070AD8B4C9D6010A51
:10226800D8B4C6D6030AD8B4C3D6010AD8B4C0D6DF
:102278007F0AD8B4BDD6010AD8B4BAD6030AD8B4EE
:10228800B7D6010AD8B4B4D6070AD8B4B1D6010A69
:10229800D8B4AED6030AD8B4ABD6010AD8B4A8D6F7
:1022A8000F0AD8B4A5D6010AD8B4A2D6030AD8B45E
:1022B8009FD6010AD8B49CD6070AD8B499D6010A81
:1022C800D8B496D6030AD8B493D6010AD8B490D60F
:1022D8001F0AD8B48DD6010AD8B48AD6030AD8B44E
:1022E80087D6010AD8B484D6070AD8B481D6010A99
:1022F800D8B47ED6030AD8B47BD6010AD8B478D627
:102308000F0AD8B475D6010AD8B472D6030AD8B45D
:102318006FD6010AD8B46CD6070AD8B469D6010AB0
:10232800D8B466D6030AD8B463D6010AD8B460D63E
:102338003F0AD8B45DD6010AD8B45AD6030AD8B42D
:1023480057D6010AD8B454D6070AD8B451D6010AC8
:10235800D8B44ED6030AD8B44BD6010AD8B448D656
:102368000F0AD8B445D6010AD8B442D6030AD8B45D
:102378003FD6010AD8B43CD6070AD8B439D6010AE0
:10238800D8B436D6030AD8B433D6010AD8B430D66E
:102398001F0AD8B42DD6010AD8B42AD6030AD8B44D
:1023A80027D6010AD8B424D6070AD8B421D6010AF8
:1023B800D8B41ED6030AD8B41BD6010AD8B418D686
:1023C8000F0AD8B415D6010AD8B412D6030AD8B45D
:1023D8000FD6010AD8B40CD6070AD8B409D6010A10
:1023E800D8B406D6030AD8B403D6010AD8B400D69E
:1023F800FF0AD8B4FDD518D01A50000AD8B413D69D
:1024080013D01A50000AD8B41AD60ED01A50000A9F
:10241800D8B421D609D01A50000AD8B428D604D086
:102428001A50000AD8B42FD61EC019F0010E1A6E21
:102438001B6A192A03D0D8901A361B36192EFBD7D7
:102448001A1C1C6E1B1C1D6E1C5000010001E91794
:102458001D5000010001EA171E06C7D512003FAE45
:1024680008D13F6C3F50800A120FD8A09DD0000EB3
:102478001A6E030E196E000E0D6E0A0E0C6E000E0B
:10248800046E640E036E3F50016E026A01BE0206BE
:102498004AEC21F001C00AF002C00BF07CEC20F0FD
:1024A800090E0A24176E000E0B20186E75EC24F026
:1024B800330E1724F66E7F0E1820F76E0900F5CF3D
:1024C80042F00900F5CF43F00900F5CF44F044C0CD
:1024D80033F043C032F042C031F0000E1A6E030EE2
:1024E800196E000E0D6E640E0C6E3F500A6E0B6A6C
:1024F8000ABE0B067CEC20F0120E0A24176E000EA2
:102508000B20186E75EC24F0330E1724F66E7F0E30
:102518001820F76E0900F5CF45F00900F5CF46F011
:102528000900F5CF47F047C030F046C02FF045C04E
:102538002EF038EC1BF030C04AF02FC049F02EC006
:1025480048F048C02EF049C02FF04AC030F0000EC5
:102558001A6E030E196E000E046E0A0E036E3F50BB
:10256800016E026A01BE02064AEC21F001C017F0B2
:1025780002C018F075EC24F0330E1724F66E7F0EA7
:102588001820F76E0900F5CF42F00900F5CF43F0A7
:102598000900F5CF44F044C033F043C032F042C0E4
:1025A80031F038EC1BF064D13F50800A750FD8A089
:1025B80059D0000E1A6E030E196E000E0D6E0A0E1B
:1025C8000C6E3F500A6E0B6A0ABE0B067CEC20F0BC
:1025D800090E0A24176E000E0B20186E75EC24F0F5
:1025E800330E1724F66E7F0E1820F76E0900F5CF0C
:1025F80042F00900F5CF43F00900F5CF44F044C09C
:1026080030F043C02FF042C02EF0000E1A6E030EB9
:10261800196E000E046E0A0E036E3F50016E026AB8
:1026280001BE02064AEC21F001C017F002C018F002
:1026380075EC24F0330E1724F66E7F0E1820F76E13
:102648000900F5CF45F00900F5CF46F00900F5CFB0
:1026580047F047C033F046C032F045C031F038EC9F
:102668001BF006D13F50030D330EF324F66E7F0E98
:102678000CD13F50800A120FD8A09DD0000E1A6EC0
:10268800030E196E000E0D6E0A0E0C6E000E046E0F
:10269800640E036E3F50016E026A01BE02064AECE8
:1026A80021F001C00AF002C00BF07CEC20F0090E0A
:1026B8000A24176E000E0B20186E75EC24F05A0EC3
:1026C8001724F66E7F0E1820F76E0900F5CF42F03A
:1026D8000900F5CF43F00900F5CF44F044C033F0CA
:1026E80043C032F042C031F0000E1A6E030E196E6C
:1026F800000E0D6E640E0C6E3F500A6E0B6A0ABE19
:102708000B067CEC20F0120E0A24176E000E0B202C
:10271800186E75EC24F05A0E1724F66E7F0E1820EA
:10272800F76E0900F5CF45F00900F5CF46F009002E
:10273800F5CF47F047C030F046C02FF045C02EF027
:1027480038EC1BF030C04AF02FC049F02EC048F0DA
:1027580048C02EF049C02FF04AC030F0000E1A6E63
:10276800030E196E000E046E0A0E036E3F50016EC2
:10277800026A01BE02064AEC21F001C017F002C04D
:1027880018F075EC24F05A0E1724F66E7F0E1820F8
:10279800F76E0900F5CF42F00900F5CF43F00900C4
:1027A800F5CF44F044C033F043C032F042C031F0BA
:1027B80038EC1BF05DD03F50800A750FD8A05FD071
:1027C800000E1A6E030E196E000E0D6E0A0E0C6EB8
:1027D8003F500A6E0B6A0ABE0B067CEC20F0090E0D
:1027E8000A24176E000E0B20186E75EC24F05A0E92
:1027F8001724F66E7F0E1820F76E0900F5CF42F009
:102808000900F5CF43F00900F5CF44F044C030F09B
:1028180043C02FF042C02EF0000E1A6E030E196E40
:10282800000E046E0A0E036E3F50016E026A01BE6E
:1028380002064AEC21F001C017F002C018F075EC4E
:1028480024F05A0E1724F66E7F0E1820F76E090032
:10285800F5CF45F00900F5CF46F00900F5CF47F070
:1028680047C033F046C032F045C031F038EC1BF0B9
:1028780030C041F02FC040F02EC03FF017D03F507D
:10288800030D5A0EF324F66E7F0EF420F76E09003E
:10289800F5CF42F00900F5CF43F00900F5CF44F039
:1028A80044C041F043C040F042C03FF012006D0EFA
:1028B8003F64ABD0000E1A6E030E196E000E0D6E3B
:1028C8000A0E0C6E000E046E640E036E3FC001F01B
:1028D800026A4AEC21F001C00AF002C00BF07CEC5D
:1028E80020F0090E0A24176E000E0B20186E75ECE6
:1028F80024F0330E1724F66E7F0E1820F76E0900A9
:10290800F5CF42F00900F5CF43F00900F5CF44F0C8
:1029180044C033F043C032F042C031F0000E1A6EAA
:10292800030E196E000E0D6E640E0C6E3FC00AF099
:102938000B6A7CEC20F0120E0A24176E000E0B2096
:10294800186E75EC24F0330E1724F66E7F0E1820DF
:10295800F76E0900F5CF45F00900F5CF46F00900FC
:10296800F5CF47F047C030F046C02FF045C02EF0F5
:1029780038EC1BF030C04DF02FC04CF02EC04BF09F
:10298800000E1A6E030E196E000E046E0A0E036E08
:102998003FC001F0026A4AEC21F001C017F002C002
:1029A80018F075EC24F0330E1724F66E7F0E1820FD
:1029B800F76E0900F5CF42F00900F5CF43F00900A2
:1029C800F5CF44F044C033F043C032F042C031F098
:1029D8004BC02EF04CC02FF04DC030F038EC1BF03F
:1029E80030C04AF02FC049F02EC048F048C02EF041
:1029F80049C02FF04AC030F0000E316E000E326E22
:102A08003F0E336E38EC1BF08BD00A0E3F6469D052
:102A1800000E1A6E030E196E000E046E0A0E036E77
:102A28003FC001F0026A4AEC21F001C017F002C071
:102A380018F075EC24F0330E1724F66E7F0E18206C
:102A4800F76E0900F5CF42F00900F5CF43F0090011
:102A5800F5CF44F044C033F043C032F042C031F007
:102A6800000E1A6E030E196E000E0D6E0A0E0C6E15
:102A78003FC00AF00B6A7CEC20F0090E0A24176E9E
:102A8800000E0B20186E75EC24F0330E1724F66E2A
:102A98007F0E1820F76E0900F5CF45F00900F5CF35
:102AA80046F00900F5CF47F047C030F046C02FF098
:102AB80045C02EF038EC1BF030C04DF02FC04CF064
:102AC8002EC04BF04BC02EF04CC02FF04DC030F054
:102AD800000E316E000E326E3F0E336E38EC1BF076
:102AE8001FD03F50030D330EF324F66E7F0EF420F3
:102AF800F76E0900F5CF42F00900F5CF43F0090061
:102B0800F5CF44F044C030F043C02FF042C02EF05F
:102B1800000E316E000E326E3F0E336E38EC1BF035
:102B280030C041F02FC040F02EC03FF012001FD03F
:102B3800D00E01D0B00E1F24206E216AFF0E212274
:102B4800B80E2024F66E7E0E2120F76E0800F55090
:102B5800F7D0400EF5D0800EF3D0390EF1D00F0E1D
:102B6800EFD0080EEDD0630EEBD0000EE9D01F5069
:102B7800200AD8B4FAD70A0AD8B4F5D7060AD8B4BE
:102B8800EAD7010AD8B4E5D7030AD8B4E4D71E0AAD
:102B9800D8B4CED7010AD8B4CBD7030AD8B4C8D78B
:102BA800010AD8B4C5D7070AD8B4C2D7010AD8B41D
:102BB800BFD7030AD8B4BCD7010AD8B4B9D70F0A0B
:102BC800D8B4B6D7010AD8B4B3D7030AD8B4B0D7A3
:102BD800010AD8B4ADD7070AD8B4AAD7010AD8B41D
:102BE800A7D7030AD8B4A4D7010AD8B4A1D77F0AB3
:102BF800D8B49ED7010AD8B49BD7030AD8B498D7BB
:102C0800010AD8B495D7070AD8B492D7010AD8B41C
:102C18008FD7030AD8B48CD7010AD8B489D70F0A3A
:102C2800D8B486D7010AD8B483D7030AD8B480D7D2
:102C3800010AD8B47DD7070AD8B47AD7010AD8B41C
:102C480077D7030AD8B474D7010AD8B471D71F0A42
:102C5800D8B46ED7010AD8B46BD7030AD8B468D7EA
:102C6800010AD8B465D7070AD8B462D7010AD8B41C
:102C78005FD7030AD8B45CD7010AD8B459D70F0A6A
:102C8800D8B456D7010AD8B453D7030AD8B450D702
:102C9800010AD8B462D7060AD8B461D7020AD8B4F0
:102CA80060D73E0AD8B446D7030AD8B443D7010A36
:102CB800D8B440D7070AD8B43DD7010AD8B43AD710
:102CC800030AD8B437D7010AD8B434D70F0AD8B40E
:102CD80031D7010AD8B42ED7030AD8B42BD7010AA2
:102CE800D8B428D7070AD8B425D7010AD8B422D728
:102CF800030AD8B41FD7010AD8B41CD71F0AD8B4FE
:102D080019D7010AD8B416D7030AD8B413D7010AB9
:102D1800D8B410D7070AD8B40DD7010AD8B40AD73F
:102D2800030AD8B407D7010AD8B404D70F0AD8B40D
:102D380001D7010AD8B4FED6030AD8B4FBD615D7F2
:102D48001200000E046EC80E036E1FC001F0026A66
:102D58004AEC21F001C017F002C018F0010E1A6EFB
:102D68006D0E196E75EC24F017C02AF018C02BF000
:102D7800000E2BBEFF0E2C6E2D6E000E046EC80EBC
:102D8800036E1FC001F0026A4AEC21F0030E012411
:102D98000A6E000E02200B6E000E0D6E040E0C6EF5
:102DA8007CEC20F00AC022F00BC023F0000E23BEFA
:102DB800FF0E246E256E22502A2623502B222450E3
:102DC8002C2225502D2265D01E0E2A26000E2B22DD
:102DD800000E2C22000E2D221F0E2A26000E2B225A
:102DE800000E2C22000E2D221E0E2A26000E2B224B
:102DF800000E2C22000E2D221F0E2A26000E2B223A
:102E0800000E2C22000E2D221F0E2A26000E2B2229
:102E1800000E2C22000E2D221E0E2A26000E2B221A
:102E2800000E2C22000E2D221F0E2A26000E2B2209
:102E3800000E2C22000E2D221E0E2A26000E2B22FA
:102E4800000E2C22000E2D221F0E2A26000E2B22E9
:102E5800000E2C22000E2D221C0E2A26000E2B22DC
:102E6800000E2C22000E2D221F50030BD8A408D0D0
:102E7800010E2A26000E2B22000E2C22000E2D22D7
:102E88001F0E2A26000E2B22000E2C22000E2D22A9
:102E980025D02050010AD8B421D0030AD8B4F0D7DD
:102EA800010AD8B4D9D7070AD8B4CED7010AD8B4FA
:102EB800C3D7030AD8B4B8D7010AD8B4ADD70F0A14
:102EC800D8B4A2D7010AD8B497D7030AD8B48CD7F4
:102ED800010AD8B481D7070AD8B476D721502A2650
:102EE800000E2B222C222D222A06000E2B5A2C5A99
:102EF8002D5A060E2A24146E000E2B20156E000E75
:102F08002C20166E000E2D20176E070E186E000E60
:102F1800196E000E1A6E000E1B6EA7EC22F01450EC
:102F280012000F0E0F6E09C010F00AC011F00BC08E
:102F380012F00F28136E04D0D890123211321032CA
:102F4800132EFAD71050166E0F0E0F6E0CC010F01D
:102F58000DC011F00EC012F00F28136E04D0D890D7
:102F6800123211321032132EFAD71050156E165035
:102F7800D8B40BD0155016600FD016500008152481
:102F88000F6E190E0F5CD8A007D00CC009F00DC049
:102F98000AF00EC00BF0AAD01550D8B40BD01650BA
:102FA80015600FD01550000816240F6E190E0F5C0F
:102FB800D8A007D009C009F00AC00AF00BC00BF06E
:102FC80095D00F6E060E146E0F500BBE148E0EBEEB
:102FD800148C0A8EFF0E0916FF0E0A16000E0B1629
:102FE8000D8EFF0E0C16FF0E0D16000E0E16155048
:102FF800166018D0D8900C360D360E3615061550BA
:103008001618D8B40BD014061450070BD8B406D031
:10301800F1D7D8900B320A320932162A15501662A7
:10302800F8D71AD01650156017D0D89009360A3636
:103038000B36160615501618D8B40BD014061450B3
:10304800070BD8B406D0F1D7D8900E320D320C3217
:10305800152A15501662F8D714AE0CD0FF0E091AAF
:10306800FF0E0A1AFF0E0B1A010E0926000E0A227D
:10307800000E0B2214AC0CD0FF0E0C1AFF0E0D1A0A
:10308800FF0E0E1A010E0C26000E0D22000E0E2247
:103098000F6E000E146E0F5009500C260A500D22A8
:1030A8000B500E220EAE10D0FF0E0C1AFF0E0D1A8A
:1030B800FF0E0E1A010E0C26000E0D22000E0E2217
:1030C8000F6E010E146E0F500CC001F00DC002F00F
:1030D8000EC003F016C004F014C005F0FFEC1DF09C
:1030E80003C00BF002C00AF001C009F01200286EFC
:1030F800000E2C6E2850286E000E2D6E285025507C
:10310800016E026A036A046AC2EC24F02B6E2B2A51
:103118002550016E026A036A046ADCEC22F004C0DE
:103128000FF003C00EF002C00DF001C00CF095ECDA
:1031380023F00C502C6EAED02CC028F025C029F0FE
:10314800282A02D0D8902932282EFCD729A0A1D02D
:103158002D50176E186A17BE1806000E1A6E010E4B
:10316800196E75EC24F017502624D96E18502720B4
:10317800DA6EDF50D8B490D02D50176E186A17BE8B
:103188001806000E1A6E010E196E75EC24F0175011
:103198002624D96E18502720DA6E2E0EDF622BD027
:1031A8002CC028F0296A28BE2906010E2826000E00
:1031B80029220001DE0E2824D96E0001000E2920E4
:1031C800DA6E000EDB8E2CC028F0010E2826010EC8
:1031D800296E2A6A282A03D0D89029362A36282E1A
:1031E800FBD7295000010001E9132A500001000112
:1031F800EA132B2A2D2A2D50176E186A17BE1806A7
:10320800000E1A6E010E196E75EC24F01750262464
:10321800D96E18502720DA6EDF501F6E9BEC15F020
:103228000009D8A414D02D50176E186A17BE1806B6
:10323800000E1A6E010E196E75EC24F01750262434
:10324800D96E18502720DA6E200EDF6221D02CC0EC
:1032580028F0010E296E282A02D0D8902936282E67
:10326800FCD72950226E2D50176E186A17BE180603
:10327800000E1A6E010E196E75EC24F017502624F4
:10328800D96E18502720DA6EDF50236E58EC24F0E0
:103298002D2A2C062B2E50D712000600EACF9BF0C1
:1032A800E1CF9CF0E2CF9DF0D9CF9EF0DACF9FF02E
:1032B800F3CFA0F0F4CFA1F0F6CFA2F0F7CFA3F0B0
:1032C800F8CFA4F0F5CFA5F09DA001D001D04FD044
:1032D8009EA001D001D04BD09E90CD90000ECF6E15
:1032E800000ECE6E00010001D94BDA2B110E000141
:1032F800D95D000E0001DA59D8A001D001D035D02F
:10330800000E00010001DA6F000E0001D96FBD0E3A
:10331800CF6EC00ECE6ECD800001976F000E376E57
:1033280000019751B2EC1CF0000120EE01F0000101
:10333800D751D9260001D851DA22DF505F6E00013B
:1033480020EE03F00001D751D9260001D851DA2226
:1033580001D80AD00500FA6EDE50FD6EDE50FE6E12
:10336800F850FF6EFA501200897A040000D0F2AAD1
:1033780001D001D036D0F2A401D001D032D0F294DD
:10338800D59E000ED76E000ED66E010E000100010C
:10339800CF27000E0001D023000E0001D123000E1C
:1033A8000001D2230001D251CF11D011D111D8B4CC
:1033B80001D001D016D0000E00010001CF6F000E21
:1033C8000001D06F000E0001D16F000E0001D26F16
:1033D800800ED76E010ED66ED58EC7EC07F001D0E1
:1033E80000D0F28EA5C0F5FFA4C0F8FFA3C0F7FF78
:1033F800A2C0F6FFA1C0F4FFA0C0F3FF9FC0DAFF90
:103408009EC0D9FF9DC0E2FF9CC0E1FF9BC0EAFFC0
:103418009AC0E9FF99C0FBFF98C0FAFF11002E6E11
:10342800000E366E2E50CCC01FF02E6E030E206E8E
:103438002E502F6E0E0E216E2F50A5EC16F0306E0A
:10344800316A301E311E304A312A0E0E3026000EE7
:10345800312200010001C951326E336A3350800AAB
:10346800346E3050325C3150800A3458D8A034D091
:10347800000120EECBF0020EDF642ED0CCC01FF08E
:103488002E6E0B0E206E2E502F6E070E216E2F50B3
:10349800A5EC16F0306E316A301E311E304A312AE2
:1034A800070E3026000E312200010001C951326E8C
:1034B800336A3350800A346E3050325C3150800A9F
:1034C8003458D8B009D00B0E00010001CB6104D0EC
:1034D8002E6E010E366E2E503650010B0001000183
:1034E800CE190009D8B42ED000010001C805D8A40F
:1034F80029D000010001CE51D8A402D0010E01D07C
:10350800000E00010001CE6F00010001CE51D8B4B9
:1035180007D02E6E020E376E2E50B2EC1CF012D071
:1035280000010001C851D8B404D000010001C80747
:1035380009D02E6E000E00010001C86F2E50000148
:103548000001C90712000F0E076E01C008F002C083
:1035580009F003C00AF007280B6E04D0D8900A328D
:10356800093208320B2EFAD70850116E116601D0B5
:1035780061D00F0E076E04C008F005C009F006C040
:103588000AF007280B6E04D0D8900A3209320832A4
:103598000B2EFAD70850106E106601D04BD0028E51
:1035A800FF0E0116FF0E0216000E0316058EFF0E03
:1035B8000416FF0E0516000E0616000E0C6E000E01
:1035C8000D6E000E0E6E000E0F6E7F0E115E105007
:1035D800980F115E076E180E106E0750D8900C36B3
:1035E8000D360E360F360450015C05500258065051
:1035F8000358D8A007D00450015E0550025A06505F
:10360800035A0C80D890013602360336102EE6D7BE
:1036180011AE0DD01150800A970FD8A00BD0D890BA
:103628000F320E320D320C32113EF9D714D0170E6C
:1036380011640FD0000E016E000E026E000E036EB4
:10364800000E046E10D0D8900C360D360E360F369C
:1036580011061166F8D70CC001F00DC002F00EC0BB
:1036680003F00FC004F012000F0E346E2EC035F0B8
:103678002FC036F030C037F03428386E04D0D890D8
:10368800373236323532382EFAD73550396E3966F8
:1036980001D015D00F0E346E31C035F032C036F07F
:1036A80033C037F03428386E04D0D89037323632E9
:1036B8003532382EFAD735503E6E3E6607D0000EAA
:1036C8002E6E000E2F6E000E306E55D03E507B0FC2
:1036D800392630C03EF033503E1A800E3E162F8EEB
:1036E800328EFF0E3116FF0E3216000E3316000E04
:1036F8003A6E000E3B6E000E3C6E346E070E3D6E49
:1037080034502EA006D031503A2632503B22335046
:103718003C22D89030322F322E32D8903136323681
:1037280033363D2EEED7346E090E3D6E34502EA042
:1037380006D031503A2632503B2233503C22D890A2
:1037480030322F322E32D8903C323B323A323D2E34
:10375800EED73AC001F03BC002F03CC003F039C0DC
:1037680004F03EC005F0FFEC1DF003C030F002C0CD
:103778002FF001C02EF01200033404340D6E0D66D4
:1037880001D05AD0063407340C6E0C6601D054D0E0
:10379800038EFF0E0116FF0E0216FF0E0316000E13
:1037A8000416068EFF0E0416FF0E0516FF0E0616EB
:1037B800000E0716000E086E000E096E000E0A6E47
:1037C800000E0B6E7F0E0D5E0C50A00F0D5E076E87
:1037D800200E0C6E0750D890083609360A360B367C
:1037E8000450015C0550025806500358075004580D
:1037F800D8A009D00450015E0550025A0650035A59
:103808000750045A0880D890013602360336043629
:103818000C2EE1D70DAE0DD00D50800A9F0FD8A009
:103828000BD0D8900B320A32093208320D3EF9D744
:1038380014D01F0E0D640FD0000E016E000E026E24
:10384800000E036E000E046E10D0D89008360936AC
:103858000A360B360D060D66F8D708C001F009C008
:1038680002F00AC003F00BC004F0120001010101CC
:103878002D5101012CC12EF101012F6B2EC12FF109
:1038880001012E6B01012E1101010101316F0101AE
:103898002F510101326F89988992899601012E6F03
:1038A8000F0E01010101336F01012E5101010101C8
:1038B80033BF41D033C12EF1010131C12FF10101D4
:1038C80032C130F101012E2B04D00101D8903033E0
:1038D8002F3301012E2FF9D701012F310101D8A073
:1038E80001D089820101D8B001D08992000E01016E
:1038F8000101266F000E0101276F000E0101286FDC
:10390800000E0101296FADEC24F08986000E01013B
:103918000101266F000E0101276F000E0101286FBB
:10392800000E0101296FADEC24F0899689920101FE
:1039380001013307BBD7898889968992000E010156
:103948000101266F000E0101276F000E0101286F8B
:10395800000E0101296FADEC24F012005DD00001CA
:103968000001C62B3B0E0001C66569D0386E000EFB
:1039780000010001C66F385020EEC6F010EE01F0CD
:10398800090EDECFE6FFE82EFCD701EC22F000019D
:1039980020EEC7F0DF2A3B0EDF6451D0386E000EF0
:1039A80000010001C76F385000010001C82B13EC5B
:1039B8001AF0000120EEC8F0170EDF6440D0386E10
:1039C800000E00010001C86F3850CBC008F0CCC011
:1039D80009F0CDC00AF05BEC1EF000010001C92B14
:1039E8000001C95DD8A02BD0386E010E000100017E
:1039F800C96F3850000120EECBF0DF2A0C0EDF64CF
:103A08001ED0386E010E00010001CB6F3850000146
:103A18000001CC4BCD2B13D03750000AD8B49FD718
:103A2800010AD8B4A9D7030AD8B4BED7010AD8B4B2
:103A3800CCD7070AD8B4DED7010AD8B4E8D7120021
:103A48000F0E236E1FC024F020C025F021C026F0E1
:103A58002328276E04D0D890263225322432272EE8
:103A6800FAD724502D6E2D6601D035D0170E236E4F
:103A78001FC024F020C025F021C026F02328276E7F
:103A880004D0D890263225322432272EFAD7245053
:103A9800286E208EFF0E1F16FF0E2016000E211610
:103AA8001F50296E20502A6E21502B6E2C6A8E0EC4
:103AB8002D5E2DAE0DD02D50800A8F0FD8A00BD0C3
:103AC800D8902C322B322A3229322D3EF9D714D0F5
:103AD800170E2D640FD0000E1F6E000E206E000E04
:103AE800216E000E226E1BD0D89029362A362B362E
:103AF8002C362D062D66F8D72850D8B408D02C1EA1
:103B08002B1E2A1E296C000E2A222B222C2229C0A9
:103B18001FF02AC020F02BC021F02CC022F0120088
:103B2800000E926E000E936E000E946E000E896E5B
:103B3800000E8A6ED0CF33F10101D89033330101E2
:103B4800D8903333080E01013317D0CF34F1010177
:103B5800D89034330101D8903433020E0101341760
:103B6800D0CF35F1040E01013517D0CF36F1020E52
:103B780001013617D050010B010136110101351131
:103B880001013411010133118B6E898AF28EF28C96
:103B9800D09EB1EC1EF08B8088EC21F08B9029EC44
:103BA80025F00101010E00010001D86F0101510E3D
:103BB8000001D76F899A000E00010001CF6F000E37
:103BC8000001D06F000E0001D16F000E0001D26F0E
:103BD800080ED56E800ED76E010ED66EF294F28A5C
:103BE800D58EB00ECD6EBD0ECF6EC00ECE6E9E9031
:103BF8009D80CD8012000450D8B405D00150021029
:103C08000310D8A40CD0000E016E000E026E000E38
:103C1800036E4CD0042AD890033202320132000ECF
:103C28000114066E000E0214076EFE0E0314086ED1
:103C3800065007100810D8B40CD0ECD7042A010E8F
:103C48000126000E0222000E0322D890033202320F
:103C58000132000E0114066E000E0214076EFF0EEC
:103C68000314086E065007100810D8B406D0E6D71B
:103C78000406D89001360236033602AEF9D704A0FE
:103C8800029ED89004320450086E076A066A0650ED
:103C9800011207500212085003120550D8A4038ECF
:103CA80001C001F002C002F003C003F012002ED0E0
:103CB8001F0E52D01E0E50D0030E09140B6E000EAC
:103CC8000A140C6E0C500B10D8A41ED009C001F0B9
:103CD8000AC002F0000E046E640E036EBAEC23F004
:103CE80002500110D8A40ED009C001F00AC002F099
:103CF800010E046E900E036EBAEC23F00250011010
:103D0800D8A402D01D0E28D01C0E26D00850010AB7
:103D1800D8B4CED7030AD8B4CFD7010AD8B4C8D7F5
:103D2800070AD8B4C7D7010AD8B4C2D7030AD8B487
:103D3800C1D7010AD8B4BCD70F0AD8B4B9D7010A79
:103D4800D8B4B8D7030AD8B4B3D7010AD8B4B2D70D
:103D5800070AD8B4ADD7000E1200929292969298A4
:103D68009284000E00010001DE6F000E0001DF6F7B
:103D7800000E0001E06F000E0001E16F000E00016F
:103D88000001E26F000E0001E36F000E0001E46F16
:103D9800000E0001E56F0101276F070E0101010107
:103DA800266F01012751FBEC24F00001E691000188
:103DB800E6930001E6950001E6970001E699000107
:103DC800E69B0001E69D0001E69F0001E7890001EE
:103DD800E78B0001E78D0101276F000E010101014A
:103DE800266F010127510BEC25F000010001E89135
:103DF80000010001E9690001EA691200085007C0E2
:103E080009F00A6A09C00AF0096A09100C6E0A501A
:103E18000D6E899889928996096E0F0E0E6E09505B
:103E28000EBE2DD00EC009F00CC00AF00DC00BF06C
:103E3800092A03D0D8900B320A32092EFBD70A3050
:103E4800D8A001D08982D8B001D08992000E016E25
:103E5800000E026E000E036E000E046E1AEC25F0C2
:103E68008986000E016E000E026E000E036E000EB3
:103E7800046E1AEC25F0899689920E06D1D78988A6
:103E880089968992000E016E000E026E000E036E76
:103E9800000E046E1AEC25F012000101266F010EC7
:103EA80001010101286F010126513ED028C1A9FF57
:103EB800A68022D0A8CF2AF134D0A8CF2BF131D0B8
:103EC800A8CF2CF12ED0A8CF2EF12BD00101A8CF4E
:103ED8002FF101010101306B24D0A8500101276F97
:103EE800266B01012651010101012F130101275100
:103EF80001010101301315D0010101012851010A06
:103F0800D8B4D8D7030AD8B4D8D7010AD8B4D8D7E0
:103F1800070AD8B4D8D7010AD8B4D8D7030AD8B46E
:103F2800DCD701010101282B060E010101012865DA
:103F3800BDD71200510E016E010E026E0250000133
:103F48000001D81904E1015000010001D719D8A4D3
:103F580008D00101010E00010001D86F0101210EF6
:103F680016D0210E016E010E026E025000010001F2
:103F7800D81904E1015000010001D719D8A409D0CB
:103F88000101010E00010001D86F0101510E00016D
:103F9800D76F010101015251010101012211016E86
:103FA800015000010001E913210E016E010E026E9D
:103FB800025000010001D81904E10150000100017C
:103FC800D719D8B402D0898A01D0899A1200010180
:103FD800276F000E010101012A6F0101275101011C
:103FE800276F070E010101012B6F01012751010104
:103FF80001012BBF31D02BC127F126C128F10101C6
:1040080001012B51010D0001DE0EF324D96E0001D0
:10401800000EF420DA6EDF500101296F0101282B10
:1040280003D00101D89029330101282FFAD7010EB6
:10403800010129170101272B03D00101D890293745
:104048000101272FFAD701012951010101012A1382
:10405800010101012B07CBD7010101012A511200EF
:1040680003AE16D001C007F002C008F003C009F083
:10407800071E081E091E072A000E08220922000E24
:104088000724016E000E0820026E800E0920036EC0
:1040980006AE16D004C007F005C008F006C009F047
:1040A800071E081E091E072A000E08220922000EF4
:1040B8000724046E000E0820056E800E0920066E87
:1040C800000E011A000E021A800E031A000E041ABE
:1040D800000E051A800E061A0450015C055002589D
:1040E80006500358D8B002D0D89001D0D88012001A
:1040F8000E6E000E146E0E500DAE08D00C6C0D1E18
:10410800D8B00D2A0E6E010E146E0E500BAE06D0EE
:104118000A6C0B1ED8B00B2A010E141A000E166E6C
:10412800000E156E0D500C10D8B41ED00E6E010E78
:10413800136E0E5004D0D8900C360D36132A0DAEDF
:10414800FAD7D890153616360C500A5C0D500B5815
:10415800D8A005D00C500A5E0D500B5A1580D89087
:104168000D320C32132EEDD71450D8B404D0156C80
:10417800161ED8B0162A15C00AF016C00BF0120089
:1041880001010101345101010101266F0101276B71
:104198000101286B0101296B72EC22F00101010178
:1041A800265101010101376F010101013751010D4C
:1041B8000001DE0EF324D96E0001000EF420DA6E41
:1041C800010135C1DFFF0101366F070E0101010151
:1041D800386F010136510101010138BF13D00101C7
:1041E80001013829010101012C6F38C126F1EBECDE
:1041F8001FF0010101012D6F3AEC1CF001010101D2
:104208003807E9D71200000E0F6E000E106E000E70
:10421800116E000E126E0850051006100710D8B463
:104228002CD0096E010E136E095006D0D8900536B1
:10423800063607360836132A08AEF8D7D8900F3650
:104248001036113612360550015C065002580750D8
:10425800035808500458D8A009D00550015E0650EC
:10426800025A0750035A0850045A0F80D89008324F
:10427800073206320532132EE1D70FC001F010C005
:1042880002F011C003F012C004F01200056E000E17
:10429800096E055002AE08D0016C021ED8B0022A81
:1042A800056E010E096E055004AE04D0036C041EA1
:1042B800D8B0042A04500310D8B41AD0056E010EE1
:1042C800086E055004D0D89003360436082A04AE88
:1042D800FAD70350015C04500258D8A004D0035008
:1042E800015E0450025AD89004320332082EF1D7E6
:1042F8000950D8B404D0016C021ED8B0022A01C0FB
:1043080001F002C002F012000101326F010E01013A
:104318000101516F010132510101326F7F0E01011C
:104328000101526F010132510101326F0A0E010180
:104338000101536F010132511B0E01010101556F3B
:10434800320E0101546F0101326F010E00010001AC
:10435800CB6F010132510101326F010E00010001E2
:10436800C96F01013251070E00010001CD6FDD0E4A
:104378000001CC6F000EA66E8B8251EC1FF08B9261
:10438800120094EC1DF0000E01010101446F000EB3
:104398000101456F000E0101466F000E0101476FD4
:1043A800150E01010101445D000E01014559000E81
:1043B80001014659000E010101014759D8A00FD04B
:1043C800000E01010101446F000E0101456F000E4E
:1043D8000101466F000E0101476F0DEC0BF0010E55
:1043E800010101014427000E01014523000E0101CE
:1043F8004623000E01014723D3D7A6840A6E010E77
:104408000C6E0A5030D00CC0A9FF0FD002C0A8FF14
:104418001FD003C0A8FF1CD004C0A8FF19D006C035
:10442800A8FF16D007C0A8FF13D00C50010AD8B4B3
:10443800EDD7030AD8B4EDD7010AD8B4EDD7070AE7
:10444800D8B4EDD7010AD8B4EDD7030AD8B4EAD75F
:10445800550EA76EAA0EA76EA68201D08B84A6B2AF
:10446800FDD78B940C2A060E0C64CDD712000001E0
:1044780020EE02F00001D751D9260001D851DA22E6
:10448800DF500A6E0A50016E026AD7C0D9FFD8C041
:10449800DAFFDF500B6E010E0B24036E046A000E68
:1044A80004224AEC21F00150D7C0D9FFD8C0DAFF66
:1044B800DF6E000120EE01F00001D751D92600017E
:1044C800D851DA22DF500A6E0A5000010001E913C0
:1044D800D7C0D9FFD8C0DAFFDF501200000E0101A3
:1044E80001012A6F000E01012B6F000E01012C6FD4
:1044F800000E01012D6F0DD0010E010101012A27C7
:10450800000E01012B23000E01012C23000E0101D6
:104518002D230101D890010129330101283301011C
:1045280027330101263301012951261127112811AA
:10453800D8A4E2D72AC126F12BC127F12CC128F132
:104548002DC129F112001B50181019101A10D8B4D7
:1045580026D01C6E010E1E6E1C5006D0D890183640
:1045680019361A361B361E2A1BAEF8D71850145C9B
:10457800195015581A5016581B501758D8A008D05B
:104588001850145E1950155A1A50165A1B50175ABB
:10459800D8901B321A32193218321E2EE7D714C09F
:1045A80014F015C015F016C016F017C017F0120059
:1045B800000E086E000E096E000E0A6E000E0B6EDD
:1045C80008D0010E0826000E0922000E0A22000E4D
:1045D8000B22D89004320332023201320450011007
:1045E80002100310D8A4EDD708C005F0010E066E1E
:1045F800076A052A03D0D89006360736052EFBD75A
:1046080006C001F007C002F0000E02BEFF0E036EE6
:10461800046E12000D6E8E0E116E0D5006D0D890DD
:104628000C320B320A320932112A000E09140D6EAF
:10463800000E0A140E6E000E0B140F6EFF0E0C14F3
:10464800106E10500D100E100F10D8A4E8D709C026
:1046580001F00AC002F00BC003F011C004F00D6EA7
:10466800000E056E0D50FFEC1DF003C00BF002C0EC
:104678000AF001C009F01200026E000E056E025029
:10468800026E070E066E025006BE22D006C002F069
:1046980001C003F00650010D0001DE0EF324D96EAF
:1046A8000001000EF420DA6EDF50046E032A02D0F7
:1046B800D8900432032EFCD7010E0416022A02D029
:1046C800D8900436022EFCD7045005120606DCD713
:1046D8000550120014500C6E0D6A0E6A0F6A95ECA4
:1046E80023F00C50176E1750010D0001DE0EF32455
:1046F800D96E0001000EF420DA6E15C0DFFF166EC9
:10470800070E186E165018BE0BD01828076E18C062
:1047180001F040EC23F0086E02EC1FF01806F3D706
:104728001200000E106E000E116E000E126E000EBA
:10473800136E08D0010E1026000E1122000E122250
:10474800000E1322D8900F320E320D320C320F5059
:104758000C100D100E10D8A4EDD710C00CF011C01D
:104768000DF012C00EF013C00FF012000450031029
:10477800D8B41AD0056E010E076E055004D0D89033
:1047880003360436072A04AEFAD70350015C0450F6
:104798000258D8A004D00350015E0450025AD890A1
:1047A80004320332072EF1D701C001F002C002F033
:1047B800120001EE00F0260EEE6AE806FDE100EEBA
:1047C800A6F0450EEE6AE806FDE1600EF66E4A0EAA
:1047D800F76E000EF86E01EE48F010EE09F00900D1
:1047E800F5CFEEFFE550E150FAE1000EF86E00015A
:1047F800C5EF21F01DC0D9FF1EC0DAFFDECF17F0CC
:10480800DECF18F0DDCF19F01FC01AF020C01BF062
:1048180021C01CF092EC24F01DC0D9FF1EC0DAFFA5
:1048280017C0DEFF18C0DEFF19C0DDFFDD52120021
:104838003FC0D9FF40C0DAFFDECF2EF0DECF2FF029
:10484800DDCF30F041C031F042C032F043C033F028
:1048580038EC1BF03FC0D9FF40C0DAFF2EC0DEFFA6
:104868002FC0DEFF30C0DDFFDD5212004EC0D9FF81
:104878004FC0DAFFDECF09F0DECF0AF0DDCF0BF054
:1048880050C00CF051C00DF052C00EF095EC17F06E
:104898004EC0D9FF4FC0DAFF09C0DEFF0AC0DEFFF5
:1048A8000BC0DDFFDD52120022500C6E0D6A0E6A3D
:1048B8000F6A95EC23F00C50246E2450010D000172
:1048C800DE0EF324D96E0001000EF420DA6E23C048
:1048D8001FF09BEC15F0DF6E225000010001E91378
:1048E800120017501902F3CF1DF0F4CF1EF0175025
:1048F8001A02F3CFF4FFF36AF3501D26F4501E2278
:1049080018501902F3CFF4FFF36AF3501D26F45040
:104918001E221DC017F01EC018F01200000E1A1A31
:10492800000E1B1A800E1C1A17C009F018C00AF0D6
:1049380019C00BF01AC00CF01BC00DF01CC00EF013
:1049480095EC17F00BC019F00AC018F009C017F061
:104958001200010101012607000E0101275B010178
:10496800285B0101295B01012629D8B42729D8B47D
:104978002829D8B42929D8B41200EBD70150010B43
:10498800056E08D0D8900432033202320132015049
:10499800010B05260450011002100310D8A4F2D709
:1049A800055012007F0E031402100110D8B406D06F
:1049B800000E011A000E021A800E031A01C001F03F
:1049C80002C002F003C003F01200026E000E036E74
:1049D80002503A0E016007D02F0E016404D0026E17
:1049E800010E036E025003C002F0023012000001F3
:1049F8000001E751010101012619F00B01012619F7
:104A080000010001E76F00010001EA8512000101C1
:104A1800010126B104D000010001E79F03D0000185
:104A28000001E78F00010001EA8912000106000E6B
:104A3800025A035A045A0128D8B40228D8B40328C1
:104A4800D8B40428D8B41200F1D7000E8B6E000E2B
:104A58008A6E9368F18E120030303030303030304A
:024A680000004C
:107EB8003F065B4F666D7C077F6700006148005393
:107EC80000777C585E79716F74100F683837545C8E
:107ED8007367506D781C1C7E766E5B010000000A8B
:107EE80000000064000000E803000010270000A064
:107EF80086010040420F008096980000E1F50500D9
:107F0800CA9A3B010000000A00000064000000E873
:107F180003000010270000A086010040420F0080E7
:107F280096980000E1F50500CA9A3B00803FCDCC49
:107F38003DD7233C12833AB7D138C6273738863520
:107F4800C0D633CC2B32708930E7DB2EE53C1E429D
:107F5800A20D00803F00204100C842007A44401C26
:107F68004650C34724744997184BBCBE4C6B6E4EA1
:107F780003155079AD60F34971536F6E004D6F6E04
:107F880000446569004D697400446F6E004672696B
:107F98000053616D002020253032642E2530326474
:107FA8002E25303264002025632563202530326475
:107FB8002E2530326400253032642025303264208A
:107FC800253032640020202020253032642E2530D0
:107FD800326400257320253032642E253032640047
:107FE800286E756C6C29002020202000252E2A661A
:087FF80000252A6C690000005D
:020000040020DA
:08000000FFFFFFFFFFFFFFFF00
:020000040030CA
:0E000000330C1F1EFF8105FF0FC00FE00F40E5
:00000001FF
