:040000000CEF00F011
:10000800FACFA9F0FBCFAAF0E9CFABF02DED10F0B5
:1000180057EF1DF00001000E000100017B6F000189
:10002800640E00017A6FBEEF07F0000100018751EE
:10003800250AD8B40DD060C0D9FF61C0DAFF00012D
:1000480087C0DFFF00010001604B612BBEEF07F0A6
:10005800000E00010001846F000E0001836F000E86
:10006800000100017F6F000E00017E6F07D00001C4
:1000780000017E8500010001624B632B000162C014
:10008800F6FF000163C0F7FF0800F550300AD8B446
:10009800EED7000162C0F6FF000163C0F7FF080059
:1000A800F5CF01F090EC1EF0D8A03ED0000E000174
:1000B8000001846F000E0001836F83C017F084C0B5
:1000C80018F0000E1A6E0A0E196EEFEC1DF017C02C
:1000D80083F018C084F0000162C0F6FF000163C01D
:1000E800F7FF0800F5CF58F0D00E5824596E5A6A19
:1000F800FF0E5A2259500001000183275A5000016F
:100108000001842300010001624B632B000162C0DF
:10011800F6FF000163C0F7FF0800F5CF01F090EC8F
:100128001EF0D8A021D0C9D7000162C0F6FF000197
:1001380063C0F7FF0800F5502A0AD8A415D07AC082
:10014800D9FF7BC0DAFF0001DECF83F00001DDCFED
:1001580084F0020E000100017A27000E00017B23C3
:1001680000010001624B632B000162C0F6FF000131
:1001780063C0F7FF0800F5502E0AD8A460D000012C
:1001880000017F8D00010001624B632B000162C0FA
:10019800F6FF000163C0F7FF0800F5502A0AD8A44B
:1001A80016D07AC0D9FF7BC0DAFF0001DECF85F018
:1001B8000001DDCF86F0020E000100017A27000E53
:1001C80000017B2300010001624B632B30D1000E3C
:1001D80000010001866F000E0001856F22D085C0E6
:1001E80017F086C018F0000E1A6E0A0E196EEFECA2
:1001F8001DF0000162C0F6FF000163C0F7FF0800B0
:10020800F5501726000E1822D00E17240001000101
:10021800856FFF0E18200001866F00010001624BF8
:10022800632B000162C0F6FF000163C0F7FF0800FE
:10023800F5CF01F090EC1EF0D8A0F9D0D0D7000E81
:1002480000010001866F000E0001856F00010001AA
:100258007F89EDD0000100017E89E9D0000100010D
:100268007F850CD17AC0D9FF7BC0DAFF0001DECFD1
:1002780088F00001DDCF89F0020E000100017A2725
:10028800000E00017B230001000189518811D8A4C8
:1002980007D07F0E00010001896FCF0E0001886F23
:1002A800000E000100018B6F000E00018A6F04D060
:1002B800000100018A4B8B2B000188C058F0000117
:1002C80089C059F0000100018A5158260001000137
:1002D8008B5159225850F66EE96E070EEA6E595046
:1002E800EA6403D0EA6EEF5003D0F76E0800F550C9
:1002F8000009D8A4DDD70001000186518511D8B4C2
:1003080012D0000100018A5100010001855D000141
:1003180000018B51000100018659D8B004D085C076
:100328008AF086C08BF000010001835100010001B2
:100338008A5D000100018451000100018B59D8B089
:100348000CD0000120EE8AF0DE5000010001835F2E
:10035800DD5000010001845B12D0000E0001000195
:10036800846F000E0001836F0AD060C0D9FF61C09E
:10037800DAFF200EDF6E00010001604B612B0001E7
:1003880000018307D8A0840700018329D8B48429F1
:10039800D8B420D0EAD7000188C0F6FF000189C090
:1003A800F7FFF86A60C0D9FF61C0DAFF070EF7648B
:1003B80003D00800F55005D0F6CFE9FFF7CFEAFFE4
:1003C800EF50DF6E00010001884B892B000100010E
:1003D800604B612B000100018A07D8A08B07000140
:1003E8008A29D8B48B29D8B4BEEF07F0D4D77AC0FD
:1003F800D9FF7BC0DAFFDF5000010001876F020ED2
:10040800000100017A27000E00017B230001000E85
:1004180000010001896F0001870E0001886F000E3E
:10042800000100018B6F010E00018A6F64D7000183
:1004380062C0F6FF000163C0F7FF00010001624BD4
:10044800632B08000001F5CF87F000018751000AEF
:10045800D8B4D0EF07F0630AD8B4C9D7070AD8B41C
:100468000DD0020AD8B4FAD60F0AD8B407D0050AB4
:10047800D8B4F0D61F0AD8B4F5D6C8D7070E0001ED
:1004880000017F15D8B49AD3000100017FA907D0D5
:10049800000E00010001866F060E0001856F7AC00C
:1004A800D9FF7BC0DAFF0001DECF80F00001DECF8C
:1004B80081F00001DDCF82F0030E000100017A27F0
:1004C800000E00017B23000100018251800A800F89
:1004D80007E1000E0001815D03E1000E0001805D6F
:1004E800D8B012D080C001F081C002F082C003F001
:1004F8007DEC1EF003C082F002C081F001C080F0E4
:10050800030E000100017E13000E000100017D6F43
:10051800000E00017C6F7F0E0001000182150001B2
:10052800811100018011D8B491D0820E586EFF0E4F
:10053800596E000180C05AF0000181C05BF00001D3
:1005480082C05CF0000183C05DF0100E05D0D89029
:100558005D325C325B325A32E82EF9D75A50582451
:10056800000100017C6F0001000E59207D6F000121
:1005780000017C07D8A07D077CC017F07DC018F06B
:10058800000E1A6E030E196EEFEC1DF017C07CF00A
:1005980018C07DF07CC00AF07DC00BF0000E0D6E17
:1005A8000A0E0C6E7DEC1AF00AC07CF00BC07DF0D0
:1005B800000100017DAF05D0000100017C07D8A033
:1005C8007D07000100017C5100083F6E1BEC0AF01A
:1005D80041C079F040C078F03FC077F00001000ECC
:1005E800406E0001770E3F6E80C041F081C042F03E
:1005F80082C043F096EC1DF077C001F078C002F09D
:1006080079C003F0000E046E800E056E3F0E066E74
:1006180035EC1AF0D8B006D0000100017C07D8A04C
:100628007D0714D077C001F078C002F079C003F0DC
:10063800000E046E200E056E410E066E35EC1AF0A3
:10064800D8A004D0000100017C4B7D2B00010001E3
:100658008651800A800F0D0ED8B4855DD8B012D0AF
:100668000001000E4F6E0001800E4E6E85C03FF0F7
:10067800E6EC0DF041C052F040C051F03FC050F0E0
:10068800B4EC1DF0000100017D51800A800F0A0EB4
:10069800D8B47C5DD8B022D07F0E0001000182154D
:1006A8000001811100018011D8B467D080C01FF00B
:1006B80081C020F082C021F0BFEC17F022501F103B
:1006C80020102110D8A459D0000100017D51800AC2
:1006D800800F020ED8B47C5DD8A04FD077C001F04F
:1006E80078C002F079C003F0700E046E890E056EB2
:1006F800400E066E35EC1AF0D8B003D00001F70EA4
:1007080002D00001F80E00017C27FF0E00017D23B6
:100718007CC03FF01BEC0AF041C079F040C078F093
:100728003FC077F080C001F081C002F082C003F0C2
:1007380077C004F078C005F079C006F033EC15F006
:1007480004C072F003C071F002C070F001C06FF015
:100758006FC088F070C089F071C08AF072C08BF0E9
:10076800000E00010001806F000E00010001816F82
:10077800000E00010001826F2FD080C01FF081C0E1
:1007880020F082C021F0BFEC17F022C08BF021C00E
:100798008AF020C089F01FC088F00001000E546E56
:1007A8000001800E536E88C009F089C00AF08AC023
:1007B8000BF08BC00CF05DEC1CF00BC057F00AC0BE
:1007C80056F009C055F078EC1DF0000E000100014C
:1007D8007D6F000E00017C6F586E010E0001000154
:1007E800876F58500001000187510A0AD8B421D0F8
:1007F800000100018751040DF70EF324F66E7E0EFA
:10080800F420F76E0900F55000010001885D090029
:10081800F550000189590900F55000018A5909006D
:10082800F55000018B59D8A004D000010001872B96
:10083800D9D7000187C058F0596A58BE5906000137
:1008480000018551582600010001865159220001F6
:1008580000017C515826000100017D515922585051
:1008680000010001835F595000010001845B000111
:10087800000186518511D8B405D000010001830715
:10088800D8A08407030E000100017E15586E000EE3
:10089800000100017F15596E59505810D8B405D081
:1008A800000100018307D8A08407000100017EB57C
:1008B80010D029D060C0D9FF61C0DAFF300EDF6EDA
:1008C80000010001604B612B000100018307D8A0E3
:1008D8008407000100018451800A800F010ED8B4FA
:1008E800835DD8A06DD0E6D760C0D9FF61C0DAFFBC
:1008F800200EDF6E00010001604B612B000100013A
:100908008307D8A08407000100018451800A800F62
:10091800010ED8B4835DD8B0E7D7030E00010001FB
:100928007E15586E000E000100017F15596E595052
:100938005810D8B445D060C0D9FF61C0DAFF2D0E79
:100948003AD088C001F089C002F08AC003F08BC099
:1009580004F0000100018751040DF70EF324F66E30
:100968007E0EF420F76E0900F5CF05F00900F5CFEB
:1009780006F00900F5CF07F00A00F5CF08F0C5EC3E
:100988001AF001C073F002C074F073C001F074C0B3
:1009980002F0000E046E0A0E036E34EC1DF001C066
:1009A80073F002C074F0000100017351300F60C091
:1009B800D9FF61C0DAFFDF6E00010001604B612BD7
:1009C80000010001870700018729D8B410D0B9D7E2
:1009D80060C0D9FF61C0DAFF300EDF6E0001000190
:1009E800604B612B000100017C07D8A07D07000146
:1009F80000017D51800A800F010ED8B47C5DD8B00B
:100A0800E7D7000100018651800A800F090ED8B48B
:100A1800855DD8A007D0586E080E00010001876FC9
:100A2800585002D085C087F00001000187510001AD
:100A38000001855F000E000187BFFF0E0001000165
:100A4800865B000100018751D8B40AD060C0D9FF85
:100A580061C0DAFF2E0EDF6E00010001604B612BD2
:100A680087C03FF01BEC0AF041C06EF040C06DF04B
:100A78003FC06CF080C031F081C032F082C033F0EA
:100A88006CC02EF06DC02FF06EC030F0C4EC15F0C5
:100A980030C021F02FC020F02EC01FF0BFEC17F09F
:100AA80022C08BF021C08AF020C089F01FC088F0D6
:100AB80067D088C001F089C002F08AC003F08BC0FB
:100AC80004F0000100018751040DF70EF324F66EBF
:100AD8007E0EF420F76E0900F5CF05F00900F5CF7A
:100AE80006F00900F5CF07F00A00F5CF08F0C5ECCD
:100AF8001AF001C075F002C076F075C001F076C03A
:100B080002F0000E046E0A0E036E34EC1DF001C0F4
:100B180075F002C076F0000100017551300F60C019
:100B2800D9FF61C0DAFFDF6E00010001604B612B65
:100B380088C014F089C015F08AC016F08BC017F071
:100B4800000100018751040DF70EF324F66E7E0EA6
:100B5800F420F76E0900F5CF18F00900F5CF19F069
:100B68000900F5CF1AF00A00F5CF1BF0F6EC1BF0E0
:100B780017C08BF016C08AF015C089F014C088F031
:100B880000010001870700018729D8B410D091D748
:100B980060C0D9FF61C0DAFF300EDF6E00010001CE
:100BA800604B612B000100018507D8A08607000172
:100BB800000186518511D8B4DDD1EAD700010001C2
:100BC8007EA912D07AC0D9FF7BC0DAFF0001DECF40
:100BD80088F00001DECF89F00001DECF8AF0000145
:100BE800DECF8BF0040E14D07AC0D9FF7BC0DAFFB9
:100BF8000001DECF88F00001DDCF89F00001000E92
:100C0800000189BFFF0E00018A6F00018B6F020E81
:100C1800000100017A27000E00017B23000100017A
:100C28008BAF14D0030E000100017E1300010001F8
:100C38008B1F00018A1F0001891F0001886D000EAB
:100C48000001892300018A2300018B230001000190
:100C580086518511D8A40CD0000100018B51881150
:100C680089118A11D8A404D000010001854B862B74
:100C7800586E010E00010001876F585000010001F5
:100C880087510A0AD8B421D0000100018751040D08
:100C9800F70EF324F66E7E0EF420F76E0900F55079
:100CA80000010001885D0900F5500001895909001B
:100CB800F55000018A590900F55000018B59D8A058
:100CC80004D000010001872BD9D7800E0001000154
:100CD80087BF7F0E586E0001000185510001000199
:100CE800875D000100018651800A5858D8B003D0AA
:100CF80085C087F01ED0000100018651800A586E19
:100D080000010001875100010001855D800E00018E
:100D1800000187BF7F0E5858D8B00BD000010001E2
:100D2800875100010001856F0001866B000185BFB6
:100D380086070001000184518311D8B413D0030E33
:100D4800000100017E15586E000E000100017F159C
:100D5800596E59505810D8B405D0000100018307C6
:100D6800D8A08407000100017FAD26D00001000152
:100D78008651800A586E000100018351000100016C
:100D8800855D000100018451800A5858D8B00DD003
:100D980000010001855100010001835F000100018D
:100DA800865100010001845B07D0000E000100019C
:100DB800846F000E0001836F800E0001000187BF61
:100DC8007F0E586E00010001835100010001875D0C
:100DD800000100018451800A5858D8B00ED0000193
:100DE8000001875100010001835F000E000187BFE9
:100DF800FF0E00010001845B07D0000E0001000116
:100E0800846F000E0001836F000100017EA52ED0C3
:100E1800030E000100017E15586E000E000100014E
:100E28007F15596E59505810D8B40AD060C0D9FFF0
:100E380061C0DAFF2D0EDF6E00010001604B612BEF
:100E48000001000184518311D8B489D060C0D9FF52
:100E580061C0DAFF300EDF6E00010001604B612BCC
:100E6800000100018307D8A08407EBD70001000127
:100E780084518311D8B414D060C0D9FF61C0DAFF9F
:100E8800200EDF6E00010001604B612B00010001A4
:100E98008307D8A08407000184518311D8A4ECD714
:100EA800030E000100017E15586E000E00010001BE
:100EB8007F15596E59505810D8B451D060C0D9FF19
:100EC80061C0DAFF2D0EDF6E46D0000185C058F0F4
:100ED800000186C059F0D89058365936D8905836FF
:100EE8005936F70E5824F66E7E0E5920F76E090013
:100EF800F5CF05F00900F5CF06F00900F5CF07F0AA
:100F08000A00F5CF08F088C001F089C002F08AC055
:100F180003F08BC004F0C5EC1AF004C017F003C04E
:100F280016F002C015F001C014F00A0E186E000E7B
:100F3800196E000E1A6E000E1B6EF6EC1BF01450A4
:100F4800300F00010001876F60C0D9FF61C0DAFF70
:100F5800000187C0DFFF00010001604B612B000129
:100F680000018507D8A0860700018529D8B48629FD
:100F7800D8A4ABD7000162C0F6FF000163C0F7FF39
:100F880000010001624B632B08000001F5CF87F0D8
:100F98000001876719EF00F060C0D9FF61C0DAFF70
:100FA800000EDF6E1200010101010C510B11D8B4C3
:100FB8003DD2196E0F0E1E6E19501EBE37D25AD072
:100FC8001EC019F0010E1A6E192A02D0D8901A36CE
:100FD800192EFCD71A50146E1E50010D0101000E77
:100FE800F324D96E0101010EF420DA6EDF50156E7C
:100FF800E8EC1CF001D2196E090E076E19500101B8
:1010080001010851FF0B086E99EC19F0F5D1196E22
:101018000A0E076E19500101010109510F0B086EE4
:1010280099EC19F0E9D1196E0B0E076E19500101F0
:1010380001010939070B086E99EC19F0DDD1196E19
:101048000F0E076E1950000E010109BF010E086E40
:1010580099EC19F0D1D1196E0C0E076E19500101D7
:1010680001010AB102D0010E01D0000E086E99EC00
:1010780019F0C2D11EC019F0010E1A6E1B6A192A86
:1010880003D0D8901A361B36192EFBD7010101015F
:101098000B511A16010101010C511B161B50000AB5
:1010A800D8B410D0020AD8B48FD1060AD8B491D1D6
:1010B8000C0AD8B493D1180AD8B495D1300AD8B448
:1010C80097D19AD11A50010AD8B47AD7030AD8B45A
:1010D80077D7010AD8B474D7070AD8B471D7010AE8
:1010E800D8B46ED7030AD8B46BD7010AD8B468D776
:1010F8000F0AD8B465D7010AD8B462D7030AD8B49E
:101108005FD7010AD8B45CD7070AD8B459D7010AFF
:10111800D8B456D7030AD8B453D7010AD8B450D78D
:101128001F0AD8B44DD7010AD8B44AD7030AD8B48D
:1011380047D7010AD8B444D7070AD8B441D7010A17
:10114800D8B43ED7030AD8B43BD7010AD8B438D7A5
:101158000F0AD8B435D7010AD8B432D7030AD8B49D
:101168002FD7010AD8B42CD7070AD8B429D7010A2F
:10117800D8B426D7030AD8B423D7010AD8B420D7BD
:101188003F0AD8B41DD7010AD8B41AD7030AD8B46D
:1011980017D7010AD8B414D7070AD8B411D7010A47
:1011A800D8B40ED7030AD8B40BD7010AD8B408D7D5
:1011B8000F0AD8B405D7010AD8B402D7030AD8B49D
:1011C800FFD6010AD8B4FCD6070AD8B4F9D6010A62
:1011D800D8B4F6D6030AD8B4F3D6010AD8B4F0D6F0
:1011E8001F0AD8B4EDD6010AD8B4EAD6030AD8B48F
:1011F800E7D6010AD8B4E4D6070AD8B4E1D6010A7A
:10120800D8B4DED6030AD8B4DBD6010AD8B4D8D607
:101218000F0AD8B4D5D6010AD8B4D2D6030AD8B49E
:10122800CFD6010AD8B4CCD6070AD8B4C9D6010A91
:10123800D8B4C6D6030AD8B4C3D6010AD8B4C0D61F
:101248007F0AD8B4BDD6010AD8B4BAD6030AD8B42E
:10125800B7D6010AD8B4B4D6070AD8B4B1D6010AA9
:10126800D8B4AED6030AD8B4ABD6010AD8B4A8D637
:101278000F0AD8B4A5D6010AD8B4A2D6030AD8B49E
:101288009FD6010AD8B49CD6070AD8B499D6010AC1
:10129800D8B496D6030AD8B493D6010AD8B490D64F
:1012A8001F0AD8B48DD6010AD8B48AD6030AD8B48E
:1012B80087D6010AD8B484D6070AD8B481D6010AD9
:1012C800D8B47ED6030AD8B47BD6010AD8B478D667
:1012D8000F0AD8B475D6010AD8B472D6030AD8B49E
:1012E8006FD6010AD8B46CD6070AD8B469D6010AF1
:1012F800D8B466D6030AD8B463D6010AD8B460D67F
:101308003F0AD8B45DD6010AD8B45AD6030AD8B46D
:1013180057D6010AD8B454D6070AD8B451D6010A08
:10132800D8B44ED6030AD8B44BD6010AD8B448D696
:101338000F0AD8B445D6010AD8B442D6030AD8B49D
:101348003FD6010AD8B43CD6070AD8B439D6010A20
:10135800D8B436D6030AD8B433D6010AD8B430D6AE
:101368001F0AD8B42DD6010AD8B42AD6030AD8B48D
:1013780027D6010AD8B424D6070AD8B421D6010A38
:10138800D8B41ED6030AD8B41BD6010AD8B418D6C6
:101398000F0AD8B415D6010AD8B412D6030AD8B49D
:1013A8000FD6010AD8B40CD6070AD8B409D6010A50
:1013B800D8B406D6030AD8B403D6010AD8B400D6DE
:1013C800FF0AD8B4FDD518D01A50000AD8B413D6DD
:1013D80013D01A50000AD8B41AD60ED01A50000AE0
:1013E800D8B421D609D01A50000AD8B428D604D0C7
:1013F8001A50000AD8B42FD61EC019F0010E1A6E62
:101408001B6A192A03D0D8901A361B36192EFBD717
:101418001A1C1C6E1B1C1D6E1C50010101010B17B0
:101428001D50010101010C171E06C7D512003FAE61
:1014380008D13F6C3F50800A120FD8A09DD0000EF3
:101448001A6E030E196E000E0D6E0A0E0C6E000E4B
:10145800046E640E036E3F50016E026A01BE0206FE
:1014680047EC1BF001C00AF002C00BF07DEC1AF04B
:10147800090E0A24176E000E0B20186EEFEC1DF0F3
:10148800470E1724F66E7F0E1820F76E0900F5CF69
:1014980042F00900F5CF43F00900F5CF44F044C00D
:1014A80033F043C032F042C031F0000E1A6E030E22
:1014B800196E000E0D6E640E0C6E3F500A6E0B6AAC
:1014C8000ABE0B067DEC1AF0120E0A24176E000EE7
:1014D8000B20186EEFEC1DF0470E1724F66E7F0EEA
:1014E8001820F76E0900F5CF45F00900F5CF46F052
:1014F8000900F5CF47F047C030F046C02FF045C08F
:101508002EF0C4EC15F030C04AF02FC049F02EC0C0
:1015180048F048C02EF049C02FF04AC030F0000E05
:101528001A6E030E196E000E046E0A0E036E3F50FB
:10153800016E026A01BE020647EC1BF001C017F0FB
:1015480002C018F0EFEC1DF0470E1724F66E7F0E60
:101558001820F76E0900F5CF42F00900F5CF43F0E7
:101568000900F5CF44F044C033F043C032F042C024
:1015780031F0C4EC15F064D13F50800A750FD8A043
:1015880059D0000E1A6E030E196E000E0D6E0A0E5B
:101598000C6E3F500A6E0B6A0ABE0B067DEC1AF001
:1015A800090E0A24176E000E0B20186EEFEC1DF0C2
:1015B800470E1724F66E7F0E1820F76E0900F5CF38
:1015C80042F00900F5CF43F00900F5CF44F044C0DC
:1015D80030F043C02FF042C02EF0000E1A6E030EFA
:1015E800196E000E046E0A0E036E3F50016E026AF9
:1015F80001BE020647EC1BF001C017F002C018F04C
:10160800EFEC1DF0470E1724F66E7F0E1820F76ECC
:101618000900F5CF45F00900F5CF46F00900F5CFF0
:1016280047F047C033F046C032F045C031F0C4EC53
:1016380015F006D13F50030D470EF324F66E7F0ECA
:101648000CD13F50800A120FD8A09DD0000E1A6E00
:10165800030E196E000E0D6E0A0E0C6E000E046E4F
:10166800640E036E3F50016E026A01BE020647EC2B
:101678001BF001C00AF002C00BF07DEC1AF0090E55
:101688000A24176E000E0B20186EEFEC1DF06E0E7C
:101698001724F66E7F0E1820F76E0900F5CF42F07A
:1016A8000900F5CF43F00900F5CF44F044C033F00A
:1016B80043C032F042C031F0000E1A6E030E196EAC
:1016C800000E0D6E640E0C6E3F500A6E0B6A0ABE59
:1016D8000B067DEC1AF0120E0A24176E000E0B2072
:1016E800186EEFEC1DF06E0E1724F66E7F0E1820A4
:1016F800F76E0900F5CF45F00900F5CF46F009006F
:10170800F5CF47F047C030F046C02FF045C02EF067
:10171800C4EC15F030C04AF02FC049F02EC048F094
:1017280048C02EF049C02FF04AC030F0000E1A6EA3
:10173800030E196E000E046E0A0E036E3F50016E02
:10174800026A01BE020647EC1BF001C017F002C096
:1017580018F0EFEC1DF06E0E1724F66E7F0E1820B1
:10176800F76E0900F5CF42F00900F5CF43F0090004
:10177800F5CF44F044C033F043C032F042C031F0FA
:10178800C4EC15F05DD03F50800A750FD8A05FD02B
:10179800000E1A6E030E196E000E0D6E0A0E0C6EF8
:1017A8003F500A6E0B6A0ABE0B067DEC1AF0090E52
:1017B8000A24176E000E0B20186EEFEC1DF06E0E4B
:1017C8001724F66E7F0E1820F76E0900F5CF42F049
:1017D8000900F5CF43F00900F5CF44F044C030F0DC
:1017E80043C02FF042C02EF0000E1A6E030E196E81
:1017F800000E046E0A0E036E3F50016E026A01BEAF
:10180800020647EC1BF001C017F002C018F0EFEC1D
:101818001DF06E0E1724F66E7F0E1820F76E090065
:10182800F5CF45F00900F5CF46F00900F5CF47F0B0
:1018380047C033F046C032F045C031F0C4EC15F073
:1018480030C041F02FC040F02EC03FF017D03F50BD
:10185800030D6E0EF324F66E7F0EF420F76E09006A
:10186800F5CF42F00900F5CF43F00900F5CF44F079
:1018780044C041F043C040F042C03FF0120020EEA7
:10188800C3F010EE9CF0090EDECFE6FFE82EFCD781
:1018980076D10001000E00010001616F00019C0E6D
:1018A8000001606F7F0E00010001636FA90E000147
:1018B800626F010100010FC164F000010001656B56
:1018C800010100010EC166F000010001676B0EEC1A
:1018D80000F006D0010101011651000AD8B4D9D789
:1018E8005EC022F00001000E246E00019C0E236EE3
:1018F80001EC13F066D10001000E00010001616FD8
:1019080000019C0E0001606F7F0E00010001636FF3
:10191800B30E0001626F010100010FC164F0000104
:101928000001656B010100010EC166F000010001B4
:10193800676B010100010DC168F000010001696BCE
:101948000EEC00F097D00001000E00010001616F5D
:1019580000019C0E0001606F7F0E00010001636FA3
:10196800A40E0001626F010101011151020D000175
:10197800DE0EF324D96E0001000EF420DA6EDECFFD
:10198800F6FFDDCFF7FF0800F55000010001646F96
:101998000001656B010101011151020D0001DE0E0C
:1019A800F324D96E0001000EF420DA6EDECF9AF02F
:1019B800DDCF9BF0010E00019A27000E9B239AC0F1
:1019C800F6FF9BC0F7FF0800F55000010001666FA5
:1019D8000001676B010100010EC168F00001000100
:1019E800696B010100010DC16AF0000100016B6B18
:1019F8000EEC00F03FD013C101F014C102F0000E4C
:101A0800046E640E036E34EC1DF001C0A5F002C034
:101A1800A6F00001000E00010001616F00019C0E9C
:101A28000001606F7F0E00010001636FB30E0001BB
:101A3800626F0101000110C164F000010001656BD3
:101A48000101000112C166F000010001676BA5C029
:101A580068F0A6C069F00EEC00F00CD0010101019D
:101A68001651010AD8B447D7020AD8B46CD70B0A62
:101A7800D8B4C1D75EC022F00001000E246E000168
:101A88009C0E236E01EC13F09CD00001000E0001A7
:101A98000001616F00019C0E0001606F7F0E000164
:101AA8000001636FC20E0001626F01010101115153
:101AB800020D0001DE0EF324D96E0001000EF420A1
:101AC800DA6E0001DECF64F00001DDCF65F00101C0
:101AD80000010FC166F000010001676B0101000100
:101AE8000EC168F000010001696B0EEC00F03CD0FB
:101AF80013C101F014C102F0000E046E640E036EEF
:101B080034EC1DF001C0A5F002C0A6F00001000EE3
:101B180000010001616F00019C0E0001606F7F0EE3
:101B280000010001636F950E0001626F0101000161
:101B380010C164F000010001656B0101000112C1D0
:101B480066F000010001676BA5C068F0A6C069F0E7
:101B58000EEC00F009D0010101011651020AD8B4B7
:101B680094D70B0AD8B4C4D75EC022F00001000E87
:101B7800246E00019C0E236E01EC13F022D05E50FF
:101B8800016E026A036A046A56EC1EF0000AD8B4B1
:101B980018D0010AD8B415D0030AD8B412D0010A53
:101BA800D8B40FD0070AD8B495D6010AD8B492D6BB
:101BB800030AD8B453D7010AD8B450D70F0AD8B4F7
:101BC800CAD712006D0E3F64ABD0000E1A6E030E1A
:101BD800196E000E0D6E0A0E0C6E000E046E640E69
:101BE800036E3FC001F0026A47EC1BF001C00AF027
:101BF80002C00BF07DEC1AF0090E0A24176E000ED5
:101C08000B20186EEFEC1DF0470E1724F66E7F0EB2
:101C18001820F76E0900F5CF42F00900F5CF43F020
:101C28000900F5CF44F044C033F043C032F042C05D
:101C380031F0000E1A6E030E196E000E0D6E640E52
:101C48000C6E3FC00AF00B6A7DEC1AF0120E0A24E3
:101C5800176E000E0B20186EEFEC1DF0470E1724C0
:101C6800F66E7F0E1820F76E0900F5CF45F00900D3
:101C7800F5CF46F00900F5CF47F047C030F046C031
:101C88002FF045C02EF0C4EC15F030C04DF02FC039
:101C98004CF02EC04BF0000E1A6E030E196E000E9B
:101CA800046E0A0E036E3FC001F0026A47EC1BF097
:101CB80001C017F002C018F0EFEC1DF0470E172412
:101CC800F66E7F0E1820F76E0900F5CF42F0090076
:101CD800F5CF43F00900F5CF44F044C033F043C0DA
:101CE80032F042C031F04BC02EF04CC02FF04DC046
:101CF80030F0C4EC15F030C04AF02FC049F02EC0C7
:101D080048F048C02EF049C02FF04AC030F0000E0D
:101D1800316E000E326E3F0E336EC4EC15F08BD070
:101D28000A0E3F6469D0000E1A6E030E196E000E7B
:101D3800046E0A0E036E3FC001F0026A47EC1BF006
:101D480001C017F002C018F0EFEC1DF0470E172481
:101D5800F66E7F0E1820F76E0900F5CF42F00900E5
:101D6800F5CF43F00900F5CF44F044C033F043C049
:101D780032F042C031F0000E1A6E030E196E000EDA
:101D88000D6E0A0E0C6E3FC00AF00B6A7DEC1AF05D
:101D9800090E0A24176E000E0B20186EEFEC1DF0CA
:101DA800470E1724F66E7F0E1820F76E0900F5CF40
:101DB80045F00900F5CF46F00900F5CF47F047C0D8
:101DC80030F046C02FF045C02EF0C4EC15F030C0FE
:101DD8004DF02FC04CF02EC04BF04BC02EF04CC035
:101DE8002FF04DC030F0000E316E000E326E3F0EF7
:101DF800336EC4EC15F01FD03F50030D470EF3248B
:101E0800F66E7F0EF420F76E0900F5CF42F0090058
:101E1800F5CF43F00900F5CF44F044C030F043C09B
:101E28002FF042C02EF0000E316E000E326E3F0EC3
:101E3800336EC4EC15F030C041F02FC040F02EC016
:101E48003FF012001FD0D00E01D0B00E0124026E58
:101E5800036AFF0E0322CC0E0224F66E7E0E0320C8
:101E6800F76E0800F550F4D0400EF2D0800EF0D096
:101E7800390EEED00F0EECD0080EEAD0630EE8D083
:101E8800000EE6D001502A0AD8B4F8D7060AD8B40A
:101E9800EDD7010AD8B4E8D7030AD8B4E7D71E0AA1
:101EA800D8B4D1D7010AD8B4CED7030AD8B4CBD77F
:101EB800010AD8B4C8D7070AD8B4C5D7010AD8B414
:101EC800C2D7030AD8B4BFD7010AD8B4BCD70F0AFF
:101ED800D8B4B9D7010AD8B4B6D7030AD8B4B3D797
:101EE800010AD8B4B0D7070AD8B4ADD7010AD8B414
:101EF800AAD7030AD8B4A7D7010AD8B4A4D77F0AA7
:101F0800D8B4A1D7010AD8B49ED7030AD8B49BD7AE
:101F1800010AD8B498D7070AD8B495D7010AD8B413
:101F280092D7030AD8B48FD7010AD8B48CD70F0A2E
:101F3800D8B489D7010AD8B486D7030AD8B483D7C6
:101F4800010AD8B480D7070AD8B47DD7010AD8B413
:101F58007AD7030AD8B477D7010AD8B474D71F0A36
:101F6800D8B471D7010AD8B46ED7030AD8B46BD7DE
:101F7800010AD8B468D7070AD8B465D7010AD8B413
:101F880062D7030AD8B45FD7010AD8B45CD70F0A5E
:101F9800D8B459D7010AD8B456D7030AD8B453D7F6
:101FA800010AD8B465D7060AD8B464D7020AD8B4E7
:101FB80063D73E0AD8B449D7030AD8B446D7010A2A
:101FC800D8B443D7070AD8B440D7010AD8B43DD704
:101FD800030AD8B43AD7010AD8B437D70F0AD8B405
:101FE80034D7010AD8B431D7030AD8B42ED7010A96
:101FF800D8B42BD7070AD8B428D7010AD8B425D71C
:10200800030AD8B422D7010AD8B41FD71F0AD8B4F4
:102018001CD7010AD8B419D7030AD8B416D7010AAD
:10202800D8B413D7070AD8B410D7010AD8B40DD733
:10203800030AD8B40AD7010AD8B407D70F0AD8B404
:1020480004D7010AD8B401D7030AD8B4FED618D7E2
:1020580012000600EACFACF0E1CFADF0E2CFAEF06F
:10206800D9CFAFF0DACFB0F0F3CFB1F0F4CFB2F010
:10207800F6CFB3F0F7CFB4F0F8CFB5F0F5CFB6F0B0
:102088009DA001D001D085D09EA001D001D081D0E3
:10209800CD909E90000ECF6E000ECE6E0001000116
:1020A800D94BDA2B030E0001D95D000E0001DA5975
:1020B800D8A001D001D06BD0000E00010001DA6F6A
:1020C800000E0001D96F060ECF6EEB0ECE6E00012A
:1020D800A76F000E0D6E0001A7512FEC18F0D00E5F
:1020E8000001A76F330EA86F0001A851000100017D
:1020F800F61905E10001A75100010001F519D8A45E
:1021080001D001D016D00001A76F1F0E5E6E00012E
:10211800A75101D80DD005000001FA6E0001F55154
:10212800FD6E0001F651FE6EF850FF6EFA50120077
:102138002BD0860E0001A76F180EA86F0001A851BA
:1021480000010001F61905E10001A7510001000195
:10215800F519D8A401D001D017D00001A76FFF0E40
:102168005E6E0001A75101D80DD005000001FA6E7E
:102178000001F551FD6E0001F651FE6EF850FF6E3C
:10218800FA50120001D000D0D7EC07F000D0CD8073
:1021980000D0F2AA01D001D03DD0F2A401D001D0E4
:1021A80039D0F294D59E000ED76E000ED66E010E71
:1021B80000010001D527000E0001D623000E000102
:1021C800D723000E0001D823050E0001D55D000EAF
:1021D8000001D659000E0001D759000E0001D85948
:1021E800D8A001D001D014D045EC17F03B0ED76E23
:1021F8004C0ED66E000E00010001D56F000E0001D6
:10220800D66F000E0001D76F000E0001D86F00D006
:10221800D58E00D0B6C0F5FFB5C0F8FFB4C0F7FF43
:10222800B3C0F6FFB2C0F4FFB1C0F3FFB0C0DAFF2D
:10223800AFC0D9FFAEC0E2FFADC0E1FFACC0EAFF5E
:10224800ABC0E9FFAAC0FBFFA9C0FAFF1100000E4E
:10225800046EC80E036E1FC001F0026A47EC1BF043
:1022680001C017F002C018F0010E1A6E6D0E196E3B
:10227800EFEC1DF017C02AF018C02BF0000E2BBE93
:10228800FF0E2C6E2D6E000E046EC80E036E1FC05E
:1022980001F0026A47EC1BF0030E01240A6E000EDF
:1022A80002200B6E000E0D6E040E0C6E7DEC1AF003
:1022B8000AC022F00BC023F0000E23BEFF0E246ECE
:1022C800256E22502A2623502B2224502C222550BA
:1022D8002D2265D01E0E2A26000E2B22000E2C223F
:1022E800000E2D221F0E2A26000E2B22000E2C2255
:1022F800000E2D221E0E2A26000E2B22000E2C2246
:10230800000E2D221F0E2A26000E2B22000E2C2234
:10231800000E2D221F0E2A26000E2B22000E2C2224
:10232800000E2D221E0E2A26000E2B22000E2C2215
:10233800000E2D221F0E2A26000E2B22000E2C2204
:10234800000E2D221E0E2A26000E2B22000E2C22F5
:10235800000E2D221F0E2A26000E2B22000E2C22E4
:10236800000E2D221C0E2A26000E2B22000E2C22D7
:10237800000E2D221F50030BD8A408D0010E2A26C8
:10238800000E2B22000E2C22000E2D221F0E2A26B4
:10239800000E2B22000E2C22000E2D2225D02050BC
:1023A800010AD8B421D0030AD8B4F0D7010AD8B4A6
:1023B800D9D7070AD8B4CED7010AD8B4C3D7030AE5
:1023C800D8B4B8D7010AD8B4ADD70F0AD8B4A2D7B1
:1023D800010AD8B497D7030AD8B48CD7010AD8B45D
:1023E80081D7070AD8B476D721502A26000E2B2287
:1023F8002C222D222A06000E2B5A2C5A2D5A060E54
:102408002A24146E000E2B20156E000E2C20166E3A
:10241800000E2D20176E070E186E000E196E000E96
:102428001A6E000E1B6EF6EC1BF0145012000F0E05
:10243800456E3FC046F040C047F041C048F04528CF
:10244800496E04D0D890483247324632492EFAD7DE
:1024580046504C6E0F0E456E42C046F043C047F0E2
:1024680044C048F04528496E04D0D89048324732D5
:102478004632492EFAD746504B6E4C50D8B40BD042
:102488004B504C600FD04C5000084B24456E190E31
:10249800455CD8A007D042C03FF043C040F044C0DC
:1024A80041F0AAD04B50D8B40BD04C504B600FD051
:1024B8004B5000084C24456E190E455CD8A007D037
:1024C8003FC03FF040C040F041C041F095D0456E5C
:1024D800060E4A6E455041BE4A8E44BE4A8C408E16
:1024E800FF0E3F16FF0E4016000E4116438EFF0EDC
:1024F8004216FF0E4316000E44164B504C6018D07F
:10250800D8904236433644364B064B504C18D8B414
:102518000BD04A064A50070BD8B406D0F1D7D8904A
:10252800413240323F324C2A4B504C62F8D71AD0D5
:102538004C504B6017D0D8903F36403641364C0649
:102548004B504C18D8B40BD04A064A50070BD8B495
:1025580006D0F1D7D8904432433242324B2A4B50FE
:102568004C62F8D74AAE0CD0FF0E3F1AFF0E401A45
:10257800FF0E411A010E3F26000E4022000E412296
:102588004AAC0CD0FF0E421AFF0E431AFF0E441A33
:10259800010E4226000E4322000E4422456E000E14
:1025A8004A6E45503F5042264050432241504422F3
:1025B80044AE10D0FF0E421AFF0E431AFF0E441A03
:1025C800010E4226000E4322000E4422456E010EE3
:1025D8004A6E455042C001F043C002F044C003F0C7
:1025E8004CC004F04AC005F096EC18F003C041F066
:1025F80002C040F001C03FF01200256E000E2B6EA5
:102608002550256E000E2A6E25502250016E026A52
:10261800036A046A56EC1EF0296E292A2250016EBC
:10262800026A036A046A2BEC1CF004C00FF003C0B2
:102638000EF002C00DF001C00CF00FEC1DF00C50B4
:102648002B6EABD02BC025F022C026F0252A02D055
:10265800D8902632252EFCD726A09ED02A50176E59
:10266800186A17BE1806000E1A6E010E196EEFECE6
:102678001DF017502324256E18502420266E25504F
:10268800F66EE96E070EEA6E2650EA6403D0EA6E2B
:10269800EF5003D0F76E0800F5500009D8B47FD08A
:1026A8002A50176E186A17BE1806000E1A6E010E09
:1026B800196EEFEC1DF017502324256E18502420B6
:1026C800266E2550F66EE96E070EEA6E2650EA640D
:1026D80003D0EA6EEF5003D0F76E0800F5502E0ACB
:1026E800D8A42BD02BC025F0266A25BE2606010EBD
:1026F8002526000E26220101000E2524D96E01018F
:10270800010E2620DA6E000EDB8E2BC025F0010E9E
:102718002526010E266E276A252A03D0D89026364C
:102728002736252EFBD72650010101010B13275010
:10273800010101010C13292A2A2A2BC025F0010EB8
:10274800266E252A02D0D8902636252EFCD726506C
:102758001F6E2A50176E186A17BE1806000E1A6EDA
:10276800010E196EEFEC1DF017502324276E185038
:102778002420286E2750F66EE96E070EEA6E285060
:10278800EA6403D0EA6EEF5003D0F76E0800F55004
:10279800206ED2EC1DF02A2A2B06292E53D71200C0
:1027A800566E030E000100016F6F56502CD00001C9
:1027B80000016F51030D0001B70EF324D96E00011B
:1027C800000EF420DA6EFF0E000100016F25176E6F
:1027D800186AFF0E1822000E1A6E030E196EEFEC1F
:1027E8001DF00001600E1724E16E0001000E182094
:1027F800E26EDECFE6FFDECFE6FFDECFE5FFE55295
:10280800000100016F07000100016F67D0D7C28285
:10281800C2B2FED77B0E316E7E0E326E3D0E336E27
:10282800C3CF09F0C4CF0AF040EC1EF00BC030F063
:102838000AC02FF009C02EF0C4EC15F030C041F0EA
:102848002FC040F02EC03FF01A0E426EA40E436E09
:10285800C10E446E1BEC12F041C06BF040C06AF030
:102868003FC069F069C06CF06AC06DF06BC06EF073
:10287800566E000E000100016F6F56503CD00001EB
:1028880000016F51030D0001600EF324D96E0001A1
:10289800000EF420DA6E000100016F51030D0001F3
:1028A800B70EF324E16E0001000EF420E26EDECFD5
:1028B800E6FFDECFE6FFDECFE5FFE5520001000EC2
:1028C8004F6E00016C0E4E6E000100016F51030D3A
:1028D8000001B70EF324D96E0001000EF420DA6E61
:1028E800DECF50F0DECF51F0DDCF52F0B4EC1DF06A
:1028F800000100016F2B020E000100016F65BFD7B8
:1029080069C0C0F06AC0C1F06BC0C2F06CC009F009
:102918006DC00AF06EC00BF0000E0C6E800E0D6ECE
:10292800400E0E6E4CEC16F00BC055F00AC054F079
:1029380009C053F012002E6E000E366E2E5013C1D1
:102948001FF02E6E030E206E2E502F6E0E0E216E6F
:102958002F502BEC11F0306E316A301E311E304A88
:10296800312A0E0E3026000E3122010101011051CC
:10297800326E336A3350800A346E3050325C3150D4
:10298800800A3458D8A034D0010121EE12F0020E8A
:10299800DF642ED013C11FF02E6E0B0E206E2E504A
:1029A8002F6E070E216E2F502BEC11F0306E316A0E
:1029B800301E311E304A312A070E3026000E3122D1
:1029C800010101011051326E336A3350800A346EAE
:1029D8003050325C3150800A3458D8B009D00B0ED0
:1029E80001010101126104D02E6E010E366E2E50C7
:1029F8003650010B0101010115190009D8B42ED078
:102A0800010101010F05D8A429D0010101011551C7
:102A1800D8A402D0010E01D0000E01010101156FEA
:102A2800010101011551D8B407D02E6E020E0D6EAA
:102A38002E502FEC18F012D0010101010F51D8B41B
:102A480004D0010101010F0709D02E6E000E01010B
:102A580001010F6F2E5001010101100712000F0E26
:102A6800076E01C008F002C009F003C00AF0072889
:102A78000B6E04D0D8900A32093208320B2EFAD7DE
:102A88000850116E116601D061D00F0E076E04C098
:102A980008F005C009F006C00AF007280B6E04D03C
:102AA800D8900A32093208320B2EFAD70850106E25
:102AB800106601D04BD0028EFF0E0116FF0E0216D3
:102AC800000E0316058EFF0E0416FF0E0516000EE7
:102AD8000616000E0C6E000E0D6E000E0E6E000E29
:102AE8000F6E7F0E115E1050980F115E076E180E54
:102AF800106E0750D8900C360D360E360F3604502F
:102B0800015C0550025806500358D8A007D004505D
:102B1800015E0550025A0650035A0C80D8900136BF
:102B280002360336102EE6D711AE0DD01150800AAA
:102B3800970FD8A00BD0D8900F320E320D320C322E
:102B4800113EF9D714D0170E11640FD0000E016E84
:102B5800000E026E000E036E000E046E10D0D890A8
:102B68000C360D360E360F3611061166F8D70CC026
:102B780001F00DC002F00EC003F00FC004F0120007
:102B88000F0E346E2EC035F02FC036F030C037F03F
:102B98003428386E04D0D890373236323532382E51
:102BA800FAD73550396E396601D015D00F0E346E0C
:102BB80031C035F032C036F033C037F03428386EC3
:102BC80004D0D890373236323532382EFAD73550CD
:102BD8003E6E3E6607D0000E2E6E000E2F6E000E63
:102BE800306E55D03E507B0F392630C03EF0335002
:102BF8003E1A800E3E162F8E328EFF0E3116FF0EB5
:102C08003216000E3316000E3A6E000E3B6E000EA2
:102C18003C6E346E070E3D6E34502EA006D03150F7
:102C28003A2632503B2233503C22D89030322F3251
:102C38002E32D8903136323633363D2EEED7346EBA
:102C4800090E3D6E34502EA006D031503A2632502F
:102C58003B2233503C22D89030322F322E32D8903B
:102C68003C323B323A323D2EEED73AC001F03BC0FF
:102C780002F03CC003F039C004F03EC005F096EC09
:102C880018F003C030F002C02FF001C02EF012007F
:102C98000F0E0F6E09C010F00AC011F00BC012F031
:102CA8000F28136E04D0D890123211321032132E1E
:102CB800FAD71050186E186601D015D00F0E0F6E87
:102CC8000CC010F00DC011F00EC012F00F28136EDA
:102CD80004D0D890123211321032132EFAD7105075
:102CE800196E196607D0000E096E000E0A6E000EE6
:102CF8000B6E4CD0000E156E000E166E000E176E81
:102D08001950890F185E0BC019F00E50191A800E51
:102D180019160A8EFF0E0916FF0E0A16000E0B165C
:102D28000D8EFF0E0C16FF0E0D16000E0E160F6EF2
:102D3800180E146E0F50D8901536163617360C50DC
:102D4800095C0D500A580E500B58D8A007D00C50EB
:102D5800095E0D500A5A0E500B5A1580D890093644
:102D68000A360B36142EE7D715C001F016C002F04C
:102D780017C003F018C004F019C005F096EC18F05D
:102D880003C00BF002C00AF001C009F012000334BE
:102D980004340D6E0D6601D05AD0063407340C6E1B
:102DA8000C6601D054D0038EFF0E0116FF0E0216DA
:102DB800FF0E0316000E0416068EFF0E0416FF0EF5
:102DC8000516FF0E0616000E0716000E086E000EFA
:102DD800096E000E0A6E000E0B6E7F0E0D5E0C5013
:102DE800A00F0D5E076E200E0C6E0750D8900836A7
:102DF80009360A360B360450015C05500258065055
:102E0800035807500458D8A009D00450015E055053
:102E1800025A0650035A0750045A0880D8900136BF
:102E28000236033604360C2EE1D70DAE0DD00D5008
:102E3800800A9F0FD8A00BD0D8900B320A320932E3
:102E480008320D3EF9D714D01F0E0D640FD0000EB6
:102E5800016E000E026E000E036E000E046E10D09E
:102E6800D890083609360A360B360D060D66F8D79F
:102E780008C001F009C002F00AC003F00BC004F05A
:102E88001200899A0A6E000E0E6E0A5070D0010167
:102E980009810101098301010985010109870CD014
:102EA80000010001DD7120D00101099101010993A0
:102EB8000101099501010997010101010C8556D00D
:102EC800898A54D0000E026E0A0E016E010E0101AD
:102ED80001011625036E046A000E042247EC1BF05C
:102EE800015001010101166FFF0E010101010B13D1
:102EF8003DD000010001DDA106D0330E0001000124
:102F0800F66FD00E05D0180E00010001F66F860E80
:102F18000001F56F2BD00EC00AF0010E0B6E0A2AC5
:102F280002D0D8900B360A2EFCD70B508A140C6EA0
:102F38000D6A0D50000AD8A419D00C50010AD8B453
:102F4800AFD7030AD8B4A3D7060AD8B4A9D70C0AAE
:102F5800D8B4AAD7180AD8B4B3D7300AD8B4B0D7D7
:102F6800600AD8B4AFD7C00AD8B4C3D70E2A070EA0
:102F78000E64D1D712000F0E236E1FC024F020C09C
:102F880025F021C026F02328276E04D0D8902632B9
:102F980025322432272EFAD724502D6E2D6601D0E3
:102FA80035D0170E236E1FC024F020C025F021C095
:102FB80026F02328276E04D0D890263225322432D2
:102FC800272EFAD72450286E208EFF0E1F16FF0ECC
:102FD8002016000E21161F50296E20502A6E2150EF
:102FE8002B6E2C6A8E0E2D5E2DAE0DD02D50800AC4
:102FF8008F0FD8A00BD0D8902C322B322A322932FE
:103008002D3EF9D714D0170E2D640FD0000E1F6E69
:10301800000E206E000E216E000E226E1BD0D8907E
:1030280029362A362B362C362D062D66F8D7285009
:10303800D8B408D02C1E2B1E2A1E296C000E2A225A
:103048002B222C2229C01FF02AC020F02BC021F0EF
:103058002CC022F0120052D0010101010D2B3B0EB1
:1030680001010D655ED00E6E000E010101010D6FAC
:103078000E50010121EE0EF0DF2A3B0EDF6451D025
:103088000E6E000E010101010E6F0E5001010101CB
:103098000F2B9FEC14F0010121EE0FF0170EDF64E7
:1030A80040D00E6E000E010101010F6F0E5012C1CB
:1030B80008F013C109F014C10AF0F2EC18F001018C
:1030C8000101102B0101105DD8A02BD00E6E010E4E
:1030D80001010101106F0E50010121EE12F0DF2AEB
:1030E8000C0EDF641ED00E6E010E01010101126F7D
:1030F8000E5001010101134B142B13D00D50000A7F
:10310800D8B4AAD7010AD8B4B4D7030AD8B4BED75A
:10311800010AD8B4CCD7070AD8B4DED7010AD8B484
:10312800E8D712000450D8B405D00150021003109B
:10313800D8A40CD0000E016E000E026E000E036EB5
:103148004CD0042AD890033202320132000E011406
:10315800066E000E0214076EFE0E0314086E06506B
:1031680007100810D8B40CD0ECD7042A010E012699
:10317800000E0222000E0322D890033202320132DE
:10318800000E0114066E000E0214076EFF0E0314E3
:10319800086E065007100810D8B406D0E6D7040603
:1031A800D89001360236033602AEF9D704A0029E43
:1031B800D89004320450086E076A066A0650011255
:1031C80007500212085003120550D8A4038E01C0FC
:1031D80001F002C002F003C003F012002ED01F0E4F
:1031E80052D01E0E50D0030E09140B6E000E0A1496
:1031F8000C6E0C500B10D8A41ED009C001F00AC0E8
:1032080002F0000E046E640E036E34EC1DF00250E2
:103218000110D8A40ED009C001F00AC002F0010EB6
:10322800046E900E036E34EC1DF002500110D8A409
:1032380002D01D0E28D01C0E26D00850010AD8B482
:10324800CED7030AD8B4CFD7010AD8B4C8D7070A4B
:10325800D8B4C7D7010AD8B4C2D7030AD8B4C1D7DB
:10326800010AD8B4BCD70F0AD8B4B9D7010AD8B460
:10327800B8D7030AD8B4B3D7010AD8B4B2D7070A63
:10328800D8B4ADD7000E120092929296929892847A
:10329800000E01010101006F000E0101016F000E17
:1032A8000101026F000E0101036F000E010101010F
:1032B800046F000E0101056F000E0101066F000E7C
:1032C8000101076F0101186F0F0E01010101176F4E
:1032D80001011851A2EC1EF00101089101010893A7
:1032E8000101089501010897010108990101089B4E
:1032F8000101089D0101089F010109890101098B4C
:103308000101098D0101186F000E01010101176FFC
:1033180001011851B2EC1EF0010101010A910101ED
:1033280001010B6901010C691200085007C009F07E
:103338000A6A09C00AF0096A09100C6E0A500D6E73
:10334800899889928996096E0F0E0E6E09500EBEE5
:103358002DD00EC009F00CC00AF00DC00BF0092AE0
:1033680003D0D8900B320A32092EFBD70A30D8A0E6
:1033780001D08982D8B001D08992000E016E000E6A
:10338800026E000E036E000E046EC1EC1EF08986FC
:10339800000E016E000E026E000E036E000E046E2B
:1033A800C1EC1EF0899689920E06D1D78988899634
:1033B8008992000E016E000E026E000E036E000E62
:1033C800046EC1EC1EF012005F6E000E00010001D9
:1033D8009E6F5F505E50016E026A036A046ABFEC1A
:1033E8001BF00150000100019E135E50016E026A3D
:1033F800036A046ABFEC1BF00150FF0A5E165E50B8
:10340800000100019A6F00019B6B00019C6B000199
:103418009D6B9AC001F09BC002F09CC003F09DC058
:1034280004F0BFEC1BF00150000100019E130001E5
:1034380000019E51FF0A5E169EC022F07F0E246E88
:10344800FC0E236E01EC13F05EC08CF0D4EC13F08C
:1034580055C08FF054C08EF053C08DF008EC1BF0AF
:10346800120003AE16D001C007F002C008F003C076
:1034780009F0071E081E091E072A000E0822092245
:10348800000E0724016E000E0820026E800E09202F
:10349800036E06AE16D004C007F005C008F006C0DB
:1034A80009F0071E081E091E072A000E0822092215
:1034B800000E0724046E000E0820056E800E0920F9
:1034C800066E000E011A000E021A800E031A000E74
:1034D800041A000E051A800E061A0450015C0550E5
:1034E800025806500358D8B002D0D89001D0D880DE
:1034F80012000E6E000E146E0E500DAE08D00C6C3D
:103508000D1ED8B00D2A0E6E010E146E0E500BAEA5
:1035180006D00A6C0B1ED8B00B2A010E141A000E26
:10352800166E000E156E0D500C10D8B41ED00E6E0F
:10353800010E136E0E5004D0D8900C360D36132A97
:103548000DAEFAD7D890153616360C500A5C0D50C9
:103558000B58D8A005D00C500A5E0D500B5A158098
:10356800D8900D320C32132EEDD71450D8B404D0A5
:10357800156C161ED8B0162A15C00AF016C00BF026
:103588001200000E0F6E000E106E000E116E000E6F
:10359800126E0850051006100710D8B42CD0096E0A
:1035A800010E136E095006D0D89005360636073638
:1035B8000836132A08AEF8D7D8900F3610361136C9
:1035C80012360550015C065002580750035808503F
:1035D8000458D8A009D00550015E0650025A075079
:1035E800035A0850045A0F80D8900832073206321E
:1035F8000532132EE1D70FC001F010C002F011C040
:1036080003F012C004F0120020EECCF010EE90F09F
:10361800090EDECFE6FFE82EFCD7000100018C5131
:10362800016E026A036A046A56EC1EF0000100018A
:10363800996F0001000E00010001616F0001900EFA
:103648000001606F7F0E00010001636FD60E00015C
:10365800626F0001000199C064F000010001656B10
:103668008DC066F08EC067F08FC068F00EEC00F079
:103678008CC022F00001000E246E0001900E236E13
:1036880001EC13F01200056E000E096E055002AE33
:1036980008D0016C021ED8B0022A056E010E096E10
:1036A800055004AE04D0036C041ED8B0042A04509C
:1036B8000310D8B41AD0056E010E086E055004D058
:1036C800D89003360436082A04AEFAD70350015CB2
:1036D80004500258D8A004D00350015E0450025A86
:1036E800D89004320332082EF1D70950D8B404D048
:1036F800016C021ED8B0022A01C001F002C002F01B
:1037080012006AEC1EF0000E01010101276F000E85
:103718000101286F000E0101296F000E01012A6FB7
:10372800C90E01010101275D000E01012859000E93
:1037380001012959000E010101012A59D8A00DD013
:10374800000E01010101276F000E0101286F000E14
:103758000101296F000E01012A6F010E010101010B
:103768002727000E01012823000E01012923000E3E
:1037780001012A23D5D7000E086E000E096E000E2F
:103788000A6E000E0B6E01A008D0010E016E000E2D
:10379800026E000E036E000E23D0010E0826000EE6
:1037A8000922000E0A22000E0B22D890043203329E
:1037B8000232013201A0F1D708C005F0010E066EF1
:1037C800076A052A03D0D89006360736052EFBD798
:1037D80006C001F007C002F0000E02BEFF0E036E25
:1037E800046E12001B50181019101A10D8B426D0E5
:1037F8001C6E010E1E6E1C5006D0D8901836193655
:103808001A361B361E2A1BAEF8D71850145C1950EE
:1038180015581A5016581B501758D8A008D01850C9
:10382800145E1950155A1A50165A1B50175AD89028
:103838001B321A32193218321E2EE7D714C014F070
:1038480015C015F016C016F017C017F01200000EBC
:10385800086E000E096E000E0A6E000E0B6E08D080
:10386800010E0826000E0922000E0A22000E0B2265
:10387800D89004320332023201320450011002108F
:103888000310D8A4EDD708C005F0010E066E076A2C
:10389800052A03D0D89006360736052EFBD706C072
:1038A80001F007C002F0000E02BEFF0E036E046EA8
:1038B80012000D6E8E0E116E0D5006D0D8900C327F
:1038C8000B320A320932112A000E09140D6E000E4D
:1038D8000A140E6E000E0B140F6EFF0E0C14106EF1
:1038E80010500D100E100F10D8A4E8D709C001F021
:1038F8000AC002F00BC003F011C004F00D6E000EF8
:10390800056E0D5096EC18F003C00BF002C00AF0DB
:1039180001C009F01200026E000E056E0250026E20
:10392800070E066E025006BE22D006C002F001C085
:1039380003F00650010D0101000EF324D96E0101B8
:10394800010EF420DA6EDF50046E032A02D0D890FC
:103958000432032EFCD7010E0416022A02D0D89096
:103968000436022EFCD7045005120606DCD7055093
:1039780012000101216F090E01010101166F0101F9
:1039880021510101216F010E01010101126F010195
:1039980021510101216F010E01010101106F010187
:1039A8002151070E01010101146FDD0E0101136F92
:1039B800E3EC1EF0B00ECD6E060ECF6EEB0ECE6EA3
:1039C8009D809E90CD80120014500C6E0D6A0E6A78
:1039D8000F6A0FEC1DF00C50176E1750010D010106
:1039E800000EF324D96E0101010EF420DA6E15C021
:1039F800DFFF166E070E186E165018BE0BD018286B
:103A0800076E18C001F08FEC1CF0086E99EC19F0E5
:103A18001806F3D71200000E106E000E116E000E7D
:103A2800126E000E136E08D0010E1026000E112221
:103A3800000E1222000E1322D8900F320E320D32D1
:103A48000C320F500C100D100E10D8A4EDD710C06A
:103A58000CF011C00DF012C00EF013C00FF01200E0
:103A680004500310D8B41AD0056E010E076E055025
:103A780004D0D89003360436072A04AEFAD7035088
:103A8800015C04500258D8A004D00350015E0450D1
:103A9800025AD89004320332072EF1D701C001F040
:103AA80002C002F0120001EE00F0170EEE6AE806FE
:103AB800FDE100EEB7F0270EEE6AE806FDE1A00E84
:103AC800F66E3D0EF76E000EF86E00EEDEF010EEAC
:103AD80017F00900F5CFEEFFE550E150FAE1000ECE
:103AE800F86E000185EF1BF053C0D9FF54C0DAFF10
:103AF800DECF4DF0DECF4EF0DDCF4FF055C050F0A9
:103B080056C051F057C052F00CEC1EF053C0D9FF0C
:103B180054C0DAFF4DC0DEFF4EC0DEFF4FC0DDFFF0
:103B2800DD5212003FC0D9FF40C0DAFFDECF2EF0D1
:103B3800DECF2FF0DDCF30F041C031F042C032F09F
:103B480043C033F0C4EC15F03FC0D9FF40C0DAFFE2
:103B58002EC0DEFF2FC0DEFF30C0DDFFDD521200B9
:103B68004EC0D9FF4FC0DAFFDECF3FF0DECF40F0C6
:103B7800DDCF41F050C042F051C043F052C044F094
:103B88001BEC12F04EC0D9FF4FC0DAFF3FC0DEFF7A
:103B980040C0DEFF41C0DDFFDD5212001F500C6E39
:103BA8000D6A0E6A0F6A0FEC1DF00C50216E215041
:103BB800010D0101000EF324D96E0101010EF4205C
:103BC800DA6E20C001F026EC0FF0DF6E1F50010105
:103BD80001010B13120017501902F3CF1DF0F4CF97
:103BE8001EF017501A02F3CFF4FFF36AF3501D26A4
:103BF800F4501E2218501902F3CFF4FFF36AF35061
:103C08001D26F4501E221DC017F01EC018F0120009
:103C1800000E501A000E511A800E521A4DC03FF075
:103C28004EC040F04FC041F050C042F051C043F088
:103C380052C044F01BEC12F041C04FF040C04EF0AF
:103C48003FC04DF012009368F18E000E0001000194
:103C5800D56F000E0001D66F000E0001D76F000E61
:103C68000001D86F070ED56E3B0ED76E4C0ED66E80
:103C7800F28AF294D58E120009C001F00AC002F04F
:103C8800036A0C6E8E0E046E0C500D6E000E056EDF
:103C98000D5096EC18F003C00BF002C00AF001C0FA
:103CA80009F012000150010B056E08D0D8900432BB
:103CB8000332023201320150010B05260450011073
:103CC80002100310D8A4F2D705501200F28EF28C1D
:103CD80048EC19F0BDEC1CF0DCEC1EF027EC1EF0F3
:103CE800330E00010001F66FD00E0001F56F929AB5
:103CF80012007F0E031402100110D8B406D0000E73
:103D0800011A000E021A800E031A01C001F002C047
:103D180002F003C003F01200026E000E036E0250A0
:103D28003A0E016007D02F0E016404D0026E010E16
:103D3800036E025003C002F00230120001010101BB
:103D48000951010101011719F00B010117190101AE
:103D58000101096F010101010C8512000101010136
:103D680017B104D001010101099F03D0010101012C
:103D7800098F010101010C8912000106000E025A87
:103D8800035A045A0128D8B40228D8B40328D8B44E
:103D98000428D8B41200F1D7F47FF07FE07FF87FD1
:103DA800EC7FE47FE87F3030303030303030000056
:103DB800010EC26E0E0EC16E8D0EC06E1200120084
:107ECC003F065B4F666D7C077F670000614800537F
:107EDC0000777C585E79716F74100F683837545C7A
:107EEC007367506D781C1C7E766E5B010000000A77
:107EFC0000000064000000E803000010270000A050
:107F0C0086010040420F008096980000E1F50500C4
:107F1C00CA9A3B010000000A00000064000000E85F
:107F2C0003000010270000A086010040420F0080D3
:107F3C0096980000E1F50500CA9A3B00803FCDCC35
:107F4C003DD7233C12833AB7D138C627373886350C
:107F5C00C0D633CC2B32708930E7DB2EE53C1E4289
:107F6C00A20D00803F00204100C842007A44401C12
:107F7C004650C34724744997184BBCBE4C6B6E4E8D
:107F8C0003155079AD60F3497125303264202530EA
:107F9C00326420253032640025632563202530327D
:107FAC00642E2530326400253032642E2530326444
:107FBC002E2530326400257320253032642E253076
:107FCC00326400286E756C6C2900252E2A660025FB
:107FDC002A6C6900446569004672690053616D0042
:107FEC00446F6E004D6F6E00536F6E004D697400E0
:047FFC002A43000014
:020000040020DA
:08000000FFFFFFFFFFFFFFFF00
:020000040030CA
:0E000000330C1F1FFF8185FF0FC00FE00F4064
:00000001FF
