:040000008CEF00F091
:10000800FACF11F1FBCF12F1E9CF13F1A5ED2CF0E6
:10001800D8CF22F0E8CF23F0E0CF24F0FACF25F0B4
:10002800FBCF26F0E9CF27F0EACF28F0E1CF29F07F
:10003800E2CF2AF0D9CF2BF0DACF2CF0F3CF2DF086
:10004800F4CF2EF0F6CF2FF0F7CF30F0F8CF31F015
:10005800F5CF32F0F2AA01D001D036D0F2A401D007
:1000680001D032D0F294D59E000ED76E000ED66E17
:10007800010E010101016B27000E01016C23000E26
:1000880001016D23000E01016E2301016E516B11F8
:100098006C116D11D8B401D001D016D0000E010139
:1000A80001016B6F000E01016C6F000E01016D6F95
:1000B800000E01016E6F800ED76E010ED66ED58EC2
:1000C800EAEC17F001D000D0F28C32C0F5FF31C055
:1000D800F8FF30C0F7FF2FC0F6FF2EC0F4FF2DC089
:1000E800F3FF2CC0DAFF2BC0D9FF2AC0E2FF29C0DA
:1000F800E1FF28C0EAFF27C0E9FF26C0FBFF25C0B3
:10010800FAFF24C0E0FF23C0E8FF22C0D8FF100098
:10011800BCEF35F00001000E00010001DF6F0001A7
:10012800BF0E0001DE6FF9EF0EF000010001EF5184
:10013800250AD8B418D00001BBC0F6FF0001BCC026
:10014800F7FFF86A070EF76405D00001EFC0F5FF66
:100158000C0007D0F6CFE9FFF7CFEAFF0001EFC0A8
:10016800EFFF2EEF08F0000E00010001E16F000E16
:100178000001E06F000E00010001E36F000E0001B6
:10018800E26F07D000010001E28500010001BD4BCC
:10019800BE2B0001BDC0F6FF0001BEC0F7FF08007E
:1001A800F550300AD8B4EED70001BDC0F6FF000103
:1001B800BEC0F7FF08000001F5CF60F042EC37F051
:1001C800D8A04AD0000E00010001E16F000E000126
:1001D800E06FE0C076F0E1C077F0000E00010001AA
:1001E800796F0A0E0001786F31EC35F0000176C0A6
:1001F800E0F0000177C0E1F00001BDC0F6FF0001AA
:10020800BEC0F7FF0800F5CFC7F0D00E0001C72524
:100218000001C86F00010001C96BFF0EC92300016E
:10022800C85100010001E0270001C9510001000187
:10023800E12300010001BD4BBE2B0001BDC0F6FF4C
:100248000001BEC0F7FF08000001F5CF60F042ECE6
:1002580037F0D8A021D0BDD70001BDC0F6FF0001FE
:10026800BEC0F7FF0800F5502A0AD8A415D0DEC092
:10027800D9FFDFC0DAFF0001DECFE0F00001DDCFFB
:10028800E1F0020E00010001DE27000E0001DF236D
:1002980000010001BD4BBE2B0001BDC0F6FF0001EF
:1002A800BEC0F7FF0800F5502E0AD8A46BD0000195
:1002B8000001E38D00010001BD4BBE2B0001BDC054
:1002C800F6FF0001BEC0F7FF0800F5502A0AD8A4BF
:1002D80016D0DEC0D9FFDFC0DAFF0001DECFE9F0BB
:1002E8000001DDCFEAF0020E00010001DE27000E5A
:1002F8000001DF2300010001BD4BBE2B62D1000EBF
:1003080000010001EA6F000E0001E96F2CD0E9C07E
:1003180076F0EAC077F0000E00010001796F0A0E4E
:100328000001786F31EC35F00001BDC0F6FF000127
:10033800BEC0F7FF0800F550000100017627000E47
:1003480000017723D00E000100017625000100018D
:10035800E96FFF0E0001000177210001EA6F00013B
:100368000001BD4BBE2B0001BDC0F6FF0001BEC0A1
:10037800F7FF08000001F5CF60F042EC37F0D8A095
:1003880020D1C5D7000E00010001EA6F000E000160
:10039800E96F00010001E38914D100010001E2893D
:1003A80010D100010001E38536D100010001E3838B
:1003B80032D1DEC0D9FFDFC0DAFF0001DECFEBF0BB
:1003C8000001DDCFECF0020E00010001DE27000E77
:1003D8000001DF2300010001EC51EB11D8A407D084
:1003E8007F0E00010001EC6FDE0E0001EB6F000EC6
:1003F80000010001EE6F000E0001ED6F04D0000156
:100408000001ED4BEE2B0001EBC0C7F00001ECC082
:10041800C8F000010001ED510001C72700010001EB
:10042800EE510001C8230001C751F66EE96E070EB0
:10043800EA6E0001C851EA6403D0EA6EEF5003D0B7
:10044800F76E0800F5500009D8A4D9D700010001BB
:10045800EA51E911D8B412D000010001ED510001B0
:100468000001E95D00010001EE5100010001EA59B7
:10047800D8B004D0E9C0EDF0EAC0EEF00001000108
:10048800E05100010001ED5D00010001E1510001B2
:100498000001EE59D8B00CD0000120EEEDF0DE508E
:1004A80000010001E05FDD5000010001E15B20D0A8
:1004B800000E00010001E16F000E0001E06F18D08E
:1004C8000001BBC0F6FF0001BCC0F7FFF86A070EC9
:1004D800F76404D0200EF56E0C0006D0F6CFE9FFC5
:1004E800F7CFEAFF200EEF6E00010001BB4BBC2BDB
:1004F80000010001E007D8A0E1070001E029D8B415
:10050800E129D8B431D0DCD700010001EB51F66EF7
:10051800E96E070EEA6E00010001EC51EA6403D0AF
:10052800EA6EEF5003D0F76E0800F5500001BBC02B
:10053800F6FF0001BCC0F7FFF86A0001C76F070E9D
:10054800F76404D0C7C0F5FF0C0006D0F6CFE9FF6A
:10055800F7CFEAFFC7C0EFFF00010001EB4BEC2B20
:1005680000010001BB4BBC2B00010001ED07D8A026
:10057800EE070001ED29D8B4EE29D8B4F9EF0EF052
:10058800C3D7DEC0D9FFDFC0DAFFDF5000010001AA
:10059800EF6F020E00010001DE27000E0001DF23CD
:1005A8000001000E00010001EC6F0001EF0E0001D8
:1005B800EB6F000E00010001EE6F010E0001ED6F00
:1005C80045D70001BDC0F6FF0001BEC0F7FF00011E
:1005D8000001BD4BBE2B08000001F5CFEFF0000174
:1005E800EF51000AD8B40BEF0FF0630AD8B4C9D79B
:1005F800070AD8B410D0020AD8B4D3D6010AD8B49E
:10060800D4D60E0AD8B407D0050AD8B4C6D61F0A5D
:10061800D8B4CFD6C5D7070E00010001E315D8B46A
:10062800B7EF0CF000010001E3A907D0000E0001AC
:100638000001EA6F060E0001E96FDEC0D9FFDFC0D6
:10064800DAFF0001DECFE6F00001DECFE7F00001BF
:10065800DDCFE8F0030E00010001DE27000E0001E7
:10066800DF2300010001E851800A800F07E1000E36
:100678000001E75D03E1000E0001E65DD8B012D08D
:10068800E6C08DF0E7C08EF0E8C08FF07FEC37F061
:100698008FC0E8F08EC0E7F08DC0E6F0030E0001D1
:1006A8000001E213000E00010001E56F000E0001D9
:1006B800E46F7F0E00010001E8150001E711000159
:1006C800E611D8B4B1D0820E0001C76FFF0EC86F13
:1006D8000001E6C0C9F00001E7C0CAF00001E8C0A7
:1006E800CBF00001E9C0CCF0100E06D00001D89084
:1006F800CC33CB33CA33C933E82EF8D70001C951FC
:100708000001C72500010001E46F00010001000E8F
:10071800C821E56F00010001E407D8A0E507E4C09F
:1007280076F0E5C077F0000E00010001796F030E46
:100738000001786F31EC35F0000176C0E4F000017B
:1007480077C0E5F0E4C069F0E5C06AF0000E00018A
:1007580000016C6F0A0E00016B6F1AEC2CF000019F
:1007680069C0E4F000016AC0E5F000010001E5AFEE
:1007780005D000010001E407D8A0E5070001000149
:10078800E4510008000100019E6F54EC12F0A0C073
:10079800DDF09FC0DCF09EC0DBF00001000E000120
:1007A8000001B16F0001DB0E0001B06FE6C0B2F0CE
:1007B800E7C0B3F0E8C0B4F0DFEC36F0DBC090F08F
:1007C800DCC091F0DDC092F0000E00010001936FD3
:1007D800800E00010001946F3F0E00010001956F2B
:1007E8002FEC2EF0D8B006D000010001E407D8A005
:1007F800E5071AD0DBC090F0DCC091F0DDC092F0C4
:10080800000E00010001936F200E00010001946F9B
:10081800410E00010001956F2FEC2EF0D8A004D0F6
:1008280000010001E44BE52B00010001E551800ABD
:10083800800F010ED8B4E45DD8B009D00001C76FAD
:10084800010E00010001EF6F0001C75102D0E4C0A2
:10085800EFF000010001E3A334EF08F0000100010C
:10086800E551800A810FFC0ED8B4E45DD8A013D0FE
:1008780000010001E551800A0001C76F0001E9513C
:1008880000010001E45D00010001EA51800A000155
:10089800C759D8A0E5D300010001EA51E911D8B43D
:1008A80009D000010001E3A305D000010001E90718
:1008B800D8A0EA07090E00010001E95D000E000159
:1008C800EA59D8A009D00001C76F080E000100013D
:1008D800EF6F0001C75102D0E9C0EFF07F0E0001B1
:1008E8000001E8150001E7110001E611D8B405D1AF
:1008F8000001000E00010001AB6F0001E60E0001CF
:10090800AA6F00010001EF51000800010001E42571
:10091800000100019E6F54EC12F0A0C0AEF09FC021
:10092800ADF09EC0ACF000EC37F0E6C0A5F0E7C033
:10093800A6F0E8C0A7F0E6C07EF0E7C07FF0E8C008
:1009480080F005EC2AF081C09CF080C09BF07FC04D
:100958009AF07EC099F065EC31F09BC08FF09AC098
:100968008EF099C08DF07FEC37F08FC0A4F08EC068
:10097800A3F08DC0A2F0FCEC1FF0A4C092F0A3C0BD
:1009880091F0A2C090F0000E00010001936F000EDC
:1009980000010001946F3F0E00010001956F2FECDC
:1009A8002EF0D8A017D00001000E00010001B16F91
:1009B8000001E60E0001B06F000E00010001B26FE9
:1009C800000E00010001B36F3F0E00010001B46F7B
:1009D80021EC37F00001EFC0C7F00001C86BC7BFBA
:1009E800C8070001D890C737C8370001D890C73763
:1009F800C837040E0001C727000EC823D90E00010E
:100A0800C725F66E7E0EC821F76EE6C07EF0E7C0F9
:100A18007FF0E8C080F005EC2AF00900F5500001ED
:100A280000017E5D0900F55000017F590900F5506D
:100A3800000180590900F55000018159D8A01CD047
:100A48000001000E00010001B16F0001E60E000177
:100A5800B06FCD0E00010001B26FCC0E0001000195
:100A6800B36F3D0E00010001B46FDFEC36F00001FA
:100A78000001E44BE52B41D000010001EF51040DCA
:100A8800D90EF324F66E7E0EF420F76EE6C07EF0E3
:100A9800E7C07FF0E8C080F005EC2AF00900F550C7
:100AA800000100017E5D0900F55000017F59090031
:100AB800F550000180590900F55000018159D8B05E
:100AC8001CD00001000E00010001B16F0001E60E0C
:100AD8000001B06F000E00010001B26F200E00018E
:100AE8000001B36F410E00010001B46FDFEC36F076
:100AF80000010001E407D8A0E507050E0001000188
:100B0800E9250001C76F000E00010001EA2100017C
:100B1800C86F0001C75100010001E05F0001C85122
:100B280000010001E15B030E00010001E215000174
:100B3800C76F000E00010001E3150001C86F000136
:100B4800C851C711D8B405D000010001E007D8A0EA
:100B5800E10700010001E2B51ED045D00001BBC08D
:100B6800F6FF0001BCC0F7FFF86A070EF76404D06F
:100B7800300EF56E0C0006D0F6CFE9FFF7CFEAFF8E
:100B8800300EEF6E00010001BB4BBC2B00010001D1
:100B9800E007D8A0E10700010001E151800A800FB9
:100BA800010ED8B4E05DD8A051D0D8D70001BBC0A1
:100BB800F6FF0001BCC0F7FFF86A070EF76404D01F
:100BC800200EF56E0C0006D0F6CFE9FFF7CFEAFF4E
:100BD800200EEF6E00010001BB4BBC2B0001000191
:100BE800E007D8A0E10700010001E151800A800F69
:100BF800010ED8B4E05DD8B0D9D7030E00010001CA
:100C0800E2150001C76F000E00010001E3150001A5
:100C1800C86F0001C851C711D8B418D00001BBC0B3
:100C2800F6FF0001BCC0F7FFF86A070EF76404D0AE
:100C38002D0EF56E0C0006D0F6CFE9FFF7CFEAFFD0
:100C48002D0EEF6E00010001BB4BBC2BE6C07EF001
:100C5800E7C07FF0E8C080F005EC2AF081C0EEF034
:100C680080C0EDF07FC0ECF07EC0EBF0EBC060F030
:100C7800ECC061F0EDC062F0EEC063F0000100016D
:100C8800EF51040DD90EF324F66E7E0EF420F76EA4
:100C980009000001F5CF64F009000001F5CF65F007
:100CA80009000001F5CF66F00A000001F5CF67F0F2
:100CB8002CEC2DF0000100016051300F0001BBC089
:100CC800F6FF0001BCC0F7FFF86A0001C76F070E06
:100CD800F76404D0C7C0F5FF0C0006D0F6CFE9FFD3
:100CE800F7CFEAFFC7C0EFFF00010001BB4BBC2BE9
:100CF800EBC073F0ECC074F0EDC075F0EEC076F0A8
:100D080000010001EF51040DD90EF324F66E7E0E9A
:100D1800F420F76E09000001F5CF77F00900000113
:100D2800F5CF78F009000001F5CF79F00A0000014D
:100D3800F5CF7AF098EC2FF076C0EEF075C0EDF0B4
:100D480074C0ECF073C0EBF000010001EA51E91146
:100D5800D8B4DED00001BBC0F6FF0001BCC0F7FF6D
:100D6800F86A070EF76404D02E0EF56E0C0006D054
:100D7800F6CFE9FFF7CFEAFF2E0EEF6E0001000174
:100D8800BB4BBC2B00010001EF5100010001E95FE2
:100D9800000E0001EFBFFF0E00010001EA5B8DD0DD
:100DA80000010001E3A31BD000010001EE51EB118B
:100DB800EC11ED11D8A413D00001C76F000E00018B
:100DC8000001EF6F0001C7510001EF510001000160
:100DD800E96F0001EA6B0001E9BFEA0793D0EBC0B5
:100DE80060F0ECC061F0EDC062F0EEC063F00001AD
:100DF8000001EF51040DD90EF324F66E7E0EF42097
:100E0800F76E09000001F5CF64F009000001F5CF85
:100E180065F009000001F5CF66F00A000001F5CF82
:100E280067F02CEC2DF0000100016051300F00013B
:100E3800BBC0F6FF0001BCC0F7FFF86A0001C76F2E
:100E4800070EF76404D0C7C0F5FF0C0006D0F6CF34
:100E5800E9FFF7CFEAFFC7C0EFFF00010001BB4B76
:100E6800BC2BEBC073F0ECC074F0EDC075F0EEC0B5
:100E780076F000010001EF51040DD90EF324F66E4F
:100E88007E0EF420F76E09000001F5CF77F0090017
:100E98000001F5CF78F009000001F5CF79F00A00DC
:100EA8000001F5CF7AF098EC2FF076C0EEF075C01F
:100EB800EDF074C0ECF073C0EBF000010001EF0737
:100EC8000001EF29D8B41ED06BD70001BBC0F6FFD4
:100ED8000001BCC0F7FFF86A070EF76404D0300EB3
:100EE800F56E0C0006D0F6CFE9FFF7CFEAFF300E1B
:100EF800EF6E00010001BB4BBC2B00010001E907AC
:100F0800D8A0EA0700010001EA51E911D8A4DDD709
:100F18000001BBC0F6FF0001BCC0F7FFF86A070E6E
:100F2800F76404D0650EF56E0C0006D0F6CFE9FF25
:100F3800F7CFEAFF650EEF6E00010001BB4BBC2B3B
:100F480000010001E5AF1CD000010001E46D0001C3
:100F5800E51FD8B0E52B0001BBC0F6FF0001BCC0FF
:100F6800F7FFF86A070EF76404D02D0EF56E0C0033
:100F780006D0F6CFE9FFF7CFEAFF2D0E14D014D034
:100F88000001BBC0F6FF0001BCC0F7FFF86A070EFE
:100F9800F76404D02B0EF56E0C0006D0F6CFE9FFEF
:100FA800F7CFEAFF2B0EEF6E00010001BB4BBC2B05
:100FB800E4C069F0E5C06AF0000E000100016C6F42
:100FC8000A0E00016B6F1AEC2CF000010001695148
:100FD800300F0001BBC0F6FF0001BCC0F7FFF86A84
:100FE8000001C76F070EF76404D0C7C0F5FF0C00F7
:100FF80006D0F6CFE9FFF7CFEAFFC7C0EFFF000141
:101008000001BB4BBC2BE4C060F0E5C061F0000EF2
:1010180000010001636F0A0E0001626F21EC2FF0DE
:10102800000100016051300F0001BBC0F6FF000154
:10103800BCC0F7FFF86A0001C76F070EF76404D059
:10104800C7C0F5FF0C0006D0F6CFE9FFF7CFEAFFDF
:10105800C7C0EFFF00010001BB4BBC2BF9EF0EF03E
:1010680000010001E3A31BD100010001E5AF16D088
:10107800010E00010001E4250001C76F000E000108
:101088000001E5210001C86F0001C75100010001FE
:10109800E95F0001C85100010001EA5BE6C07EF08B
:1010A800E7C07FF0E8C080F005EC2AF081C0EEF0E0
:1010B80080C0EDF07FC0ECF07EC0EBF00001C76FA0
:1010C800000E00010001EF6F0001C751000100018F
:1010D800EF510A0AD8B421D000010001EF51040DE4
:1010E800D90EF324F66E7E0EF420F76E0900F55043
:1010F80000010001EB5D0900F5500001EC59090001
:10110800F5500001ED590900F5500001EE59D8A03D
:1011180004D000010001EF2BD9D700010001EF51E5
:1011280000010001E95F000E0001EFBFFF0E0001A2
:101138000001EA5B00010001EA51800A800F0D0EF0
:10114800D8B4E95DD8B015D00001000E0001000147
:10115800B16F0001E60E0001B06FE9C09EF045ECEA
:101168001EF0A0C0B4F09FC0B3F09EC0B2F021EC56
:1011780037F0E9C09EF054EC12F0A0C0DAF09FC03E
:10118800D9F09EC0D8F00001000E00010001B16F37
:101198000001D80E0001B06FE6C0A5F0E7C0A6F0C8
:1011A800E8C0A7F0EBC099F0ECC09AF0EDC09BF056
:1011B800EEC09CF065EC31F09BC08FF09AC08EF0C9
:1011C80099C08DF07FEC37F08FC0A4F08EC0A3F0EB
:1011D8008DC0A2F0FCEC1FF0A4C0B4F0A3C0B3F023
:1011E800A2C0B2F0DFEC36F0D8C07EF0D9C07FF0F4
:1011F800DAC080F005EC2AF081C0EEF080C0EDF096
:101208007FC0ECF07EC0EBF024D0EBC060F0ECC007
:1012180061F0EDC062F0EEC063F00A0E000100015B
:10122800646F000E0001656F000E0001666F000E0E
:101238000001676F2CEC2DF063C0EEF062C0EDF09A
:1012480061C0ECF060C0EBF000010001E907D8A034
:10125800EA0700010001EA51E911D8B43FD0EBC018
:1012680073F0ECC074F0EDC075F0EEC076F00A0EC5
:1012780000010001776F000E0001786F000E000179
:10128800796F000E00017A6F98EC2FF000010001D1
:101298007651731174117511D8A420D0B6D70001F6
:1012A8000001EA51800A800F0D0ED8B4E95DD8B06C
:1012B80015D00001000E00010001B16F0001E60E1B
:1012C8000001B06FE9C09EF045EC1EF0A0C0B4F07C
:1012D8009FC0B3F09EC0B2F021EC37F000010001CE
:1012E800E551800A800F0A0ED8B4E45DD8B024D046
:1012F8007F0E00010001E8150001E7110001E61169
:10130800D8B46FD0E6C07EF0E7C07FF0E8C080F0C8
:1013180005EC2AF00001000181517E117F11801136
:10132800D8A45FD000010001E551800A800F020EA9
:10133800D8B4E45DD8A055D0DBC090F0DCC091F003
:10134800DDC092F0700E00010001936F890E00015C
:101358000001946F400E00010001956F2FEC2EF0F4
:10136800D8B003D00001F70E02D00001F80E00013A
:10137800E427FF0E0001E523E4C09EF054EC12F0D0
:10138800A0C0DDF09FC0DCF09EC0DBF0E6C060F0DE
:10139800E7C061F0E8C062F0DBC063F0DCC064F075
:1013A800DDC065F071EC25F063C0D3F062C0D2F007
:1013B80061C0D1F060C0D0F0D0C0EBF0D1C0ECF08B
:1013C800D2C0EDF0D3C0EEF0000E00010001E66FD0
:1013D800000E00010001E76F000E00010001E86F38
:1013E80032D0E6C07EF0E7C07FF0E8C080F005ECC0
:1013F8002AF081C0EEF080C0EDF07FC0ECF07EC036
:10140800EBF00001000E00010001B76F0001E60ECD
:101418000001B66FEBC099F0ECC09AF0EDC09BF0FC
:10142800EEC09CF065EC31F09BC0BAF09AC0B9F000
:1014380099C0B8F09DEC36F0000E00010001E56F90
:10144800000E0001E46F0001C76F010E00010001EA
:10145800EF6F0001C75100010001EF510A0AD8B42B
:1014680021D000010001EF51040DD90EF324F66ECE
:101478007E0EF420F76E0900F55000010001EB5DC7
:101488000900F5500001EC590900F5500001ED592B
:101498000900F5500001EE59D8A004D00001000160
:1014A800EF2BD9D70001EFC0C7F00001C86BC7BF49
:1014B800C80700010001E9510001C7270001000128
:1014C800EA510001C82300010001E4510001C727C7
:1014D80000010001E5510001C8230001C7510001C6
:1014E8000001E05F0001C85100010001E15B00015B
:1014F8000001EA51E911D8B405D000010001E00764
:10150800D8A0E107030E00010001E2150001C76F32
:10151800000E00010001E3150001C86F0001C85169
:10152800C711D8B405D000010001E007D8A0E10731
:1015380000010001E2B51ED045D00001BBC0F6FF96
:101548000001BCC0F7FFF86A070EF76404D0300E3C
:10155800F56E0C0006D0F6CFE9FFF7CFEAFF300EA4
:10156800EF6E00010001BB4BBC2B00010001E0073E
:10157800D8A0E10700010001E151800A800F010EA7
:10158800D8B4E05DD8A0A7D0D8D70001BBC0F6FF7B
:101598000001BCC0F7FFF86A070EF76404D0200EFC
:1015A800F56E0C0006D0F6CFE9FFF7CFEAFF200E64
:1015B800EF6E00010001BB4BBC2B00010001E007EE
:1015C800D8A0E10700010001E151800A800F010E57
:1015D800D8B4E05DD8B0D9D7030E00010001E215F8
:1015E8000001C76F000E00010001E3150001C86F7C
:1015F8000001C851C711D8B46ED00001BBC0F6FFB6
:101608000001BCC0F7FFF86A070EF76404D02D0E7E
:10161800F56E0C0006D0F6CFE9FFF7CFEAFF2D0EE6
:10162800EF6E55D0EBC060F0ECC061F0EDC062F039
:10163800EEC063F000010001EF51040DD90EF32450
:10164800F66E7E0EF420F76E09000001F5CF64F007
:1016580009000001F5CF65F009000001F5CF66F03B
:101668000A000001F5CF67F02CEC2DF060C0D4F033
:1016780061C0D5F0D4C060F0D5C061F0000E0001A3
:101688000001636F0A0E0001626FDCEC32F00001AA
:1016980060C0D4F0000161C0D5F000010001D45150
:1016A800300F0001BBC0F6FF0001BCC0F7FFF86AAD
:1016B8000001C76F070EF76404D0C7C0F5FF0C0020
:1016C80006D0F6CFE9FFF7CFEAFFC7C0EFFF00016A
:1016D8000001BB4BBC2B00010001EF070001EF2903
:1016E800D8B41ED09FD70001BBC0F6FF0001BCC014
:1016F800F7FFF86A070EF76404D0300EF56E0C0099
:1017080006D0F6CFE9FFF7CFEAFF300EEF6E000103
:101718000001BB4BBC2B00010001E407D8A0E50782
:1017280000010001E551800A800F010ED8B4E45D84
:10173800D8B0D9D700010001EA51800A800F090EFC
:10174800D8B4E95DD8A009D00001C76F080E000120
:101758000001EF6F0001C75102D0E9C0EFF00001AE
:101768000001EF5100010001E95F000E0001EFBF29
:10177800FF0E00010001EA5B00010001EF51D8B43F
:1017880018D00001BBC0F6FF0001BCC0F7FFF86A23
:10179800070EF76404D02E0EF56E0C0006D0F6CFB7
:1017A800E9FFF7CFEAFF2E0EEF6E00010001BB4BF9
:1017B800BC2BEFC09EF054EC12F0A0C0CFF09FC03D
:1017C800CEF09EC0CDF0E6C090F0E7C091F0E8C042
:1017D80092F0CDC08DF0CEC08EF0CFC08FF079ECF6
:1017E80026F08FC080F08EC07FF08DC07EF005ECB3
:1017F8002AF081C0EEF080C0EDF07FC0ECF07EC032
:10180800EBF085D0EBC060F0ECC061F0EDC062F0A9
:10181800EEC063F000010001EF51040DD90EF3246E
:10182800F66E7E0EF420F76E09000001F5CF64F025
:1018380009000001F5CF65F009000001F5CF66F059
:101848000A000001F5CF67F02CEC2DF060C0D6F04F
:1018580061C0D7F0D6C060F0D7C061F0000E0001BB
:101868000001636F0A0E0001626FDCEC32F00001C8
:1018780060C0D6F0000161C0D7F000010001D65168
:10188800300F0001BBC0F6FF0001BCC0F7FFF86ACB
:101898000001C76F070EF76404D0C7C0F5FF0C003E
:1018A80006D0F6CFE9FFF7CFEAFFC7C0EFFF000188
:1018B8000001BB4BBC2BEBC073F0ECC074F0EDC067
:1018C80075F0EEC076F000010001EF51040DD90E5D
:1018D800F324F66E7E0EF420F76E09000001F5CFB2
:1018E80077F009000001F5CF78F009000001F5CF85
:1018F80079F00A000001F5CF7AF098EC2FF076C065
:10190800EEF075C0EDF074C0ECF073C0EBF00001C0
:101918000001EF070001EF29D8B41ED073D70001EA
:10192800BBC0F6FF0001BCC0F7FFF86A070EF764FA
:1019380004D0300EF56E0C0006D0F6CFE9FFF7CFD5
:10194800EAFF300EEF6E00010001BB4BBC2B00011B
:101958000001E907D8A0EA0700010001EA51E911EE
:10196800D8B443D2DCD700010001E2A912D0DEC00E
:10197800D9FFDFC0DAFF0001DECFEBF00001DECFD8
:10198800ECF00001DECFEDF00001DECFEEF0040E4A
:1019980014D0DEC0D9FFDFC0DAFF0001DECFEBF0E4
:1019A8000001DDCFECF00001000E0001ECBFFF0EDE
:1019B8000001ED6F0001EE6F020E00010001DE274D
:1019C800000E0001DF2300010001EEAF14D0030E6A
:1019D80000010001E21300010001EE1F0001ED1FEC
:1019E8000001EC1F0001EB6D000E0001EC2300016B
:1019F800ED230001EE2300010001EA51E911D8A40A
:101A08000CD000010001EE51EB11EC11ED11D8A43E
:101A180004D000010001E94BEA2B0001C76F010E59
:101A280000010001EF6F0001C75100010001EF51F3
:101A38000A0AD8B421D000010001EF51040DD90ED3
:101A4800F324F66E7E0EF420F76E0900F5500001BF
:101A58000001EB5D0900F5500001EC590900F55053
:101A68000001ED590900F5500001EE59D8A004D045
:101A780000010001EF2BD9D7800E00010001EFBF54
:101A88007F0EC76F00010001E95100010001EF5D01
:101A980000010001EA51800A0001C759D8B003D0FB
:101AA800E9C0EFF020D000010001EA51800A0001EE
:101AB800C76F00010001EF5100010001E95D800ED0
:101AC80000010001EFBF7F0E0001C759D8B00BD04D
:101AD80000010001EF5100010001E96F0001EA6B0C
:101AE8000001E9BFEA0700010001E151E011D8B4A3
:101AF80016D0030E00010001E2150001C76F000EA9
:101B080000010001E3150001C86F0001C851C711A9
:101B1800D8B405D000010001E007D8A0E107000112
:101B28000001E3AD28D000010001EA51800A00015C
:101B3800C76F00010001E05100010001E95D0001EB
:101B48000001E151800A0001C759D8B00DD0000149
:101B58000001E95100010001E05F00010001EA51C4
:101B680000010001E15B07D0000E00010001E16FF8
:101B7800000E0001E06F800E00010001EFBF7F0E34
:101B8800C76F00010001E05100010001EF5D000195
:101B98000001E151800A0001C759D8B00ED00001F8
:101BA8000001EF5100010001E05F000E0001EFBFEE
:101BB800FF0E00010001E15B07D0000E00010001EB
:101BC800E16F000E0001E06F00010001E2A54DD0B9
:101BD800030E00010001E2150001C76F000E0001AD
:101BE8000001E3150001C86F0001C851C711D8B43E
:101BF80018D00001BBC0F6FF0001BCC0F7FFF86AAF
:101C0800070EF76404D02D0EF56E0C0006D0F6CF43
:101C1800E9FFF7CFEAFF2D0EEF6E00010001BB4B85
:101C2800BC2B00010001E151E011D8B4D3D0000170
:101C3800BBC0F6FF0001BCC0F7FFF86A070EF764E7
:101C480004D0300EF56E0C0006D0F6CFE9FFF7CFC2
:101C5800EAFF300EEF6E00010001BB4BBC2B000108
:101C68000001E007D8A0E107DDD700010001E1513C
:101C7800E011D8B422D00001BBC0F6FF0001BCC0FF
:101C8800F7FFF86A070EF76404D0200EF56E0C0013
:101C980006D0F6CFE9FFF7CFEAFF200EEF6E00017E
:101CA8000001BB4BBC2B00010001E007D8A0E107F5
:101CB8000001E151E011D8A4DED7030E00010001B4
:101CC800E2150001C76F000E00010001E3150001D5
:101CD800C86F0001C851C711D8B47CD00001BBC07F
:101CE800F6FF0001BCC0F7FFF86A070EF76404D0DE
:101CF8002D0EF56E0C0006D0F6CFE9FFF7CFEAFF00
:101D08002D0EEF6E63D00001E9C0C7F00001EAC0F4
:101D1800C8F00001D890C737C8370001D890C73736
:101D2800C837D90E0001C725F66E7E0EC821F76E9A
:101D380009000001F5CF64F009000001F5CF65F056
:101D480009000001F5CF66F00A000001F5CF67F041
:101D5800EBC060F0ECC061F0EDC062F0EEC063F083
:101D68002CEC2DF063C076F062C075F061C074F0A1
:101D780060C073F00A0E00010001776F000E0001C9
:101D8800786F000E0001796F000E00017A6F98ECF1
:101D98002FF0000100017351300F00010001EF6FB7
:101DA8000001BBC0F6FF0001BCC0F7FFF86A070ED0
:101DB800F76405D00001EFC0F5FF0C0007D0F6CF9F
:101DC800E9FFF7CFEAFF0001EFC0EFFF00010001D4
:101DD800BB4BBC2B00010001E907D8A0EA070001B2
:101DE800E929D8B4EA29D8A48ED70001BDC0F6FFE6
:101DF8000001BEC0F7FF00010001BD4BBE2B08006B
:101E08000001F5CFEFF00001EF6799EF00F0000156
:101E1800BBC0F6FF0001BCC0F7FFF86A070EF76405
:101E280004D0000EF56E0C0006D0F6CFE9FFF7CF10
:101E3800EAFF000EEF6E120021EE4DF011EE01F0F8
:101E48000C0EDECFE6FFE82EFCD70001F16F010E85
:101E580001010101006F0001F15185C10FF1FCD2B0
:101E6800010101010F67CCD20001F16F000E0101E1
:101E78000101006F0001F151C3D20101010E0001FF
:101E88000001BC6F0101010E0001BB6F7F0E000154
:101E98000001BE6FD10E0001BD6F010101015D514E
:101EA800040D770EF32400010001BF6F7F0EF420AC
:101EB8000001C06F010100015BC1C1F00001000118
:101EC800C26B010100015AC1C3F000010001C46BDB
:101ED8008EEC00F023D25FC160F060C161F0000EAB
:101EE80000010001636F640E0001626FDCEC32F0E8
:101EF800000160C00DF1000161C00EF10101010E89
:101F080000010001BC6F0101010E0001BB6F7F0ED3
:101F180000010001BE6FB40E0001BD6F0101000198
:101F28005CC1BFF000010001C06B010100015EC18E
:101F3800C1F000010001C26B0DC1C3F00EC1C4F0B5
:101F48008EEC00F0EBD10101010E00010001BC6F25
:101F58000101010E0001BB6F7F0E00010001BE6F81
:101F6800930E0001BD6F010100015BC1BFF00001CC
:101F78000001C06B010100015AC1C1F0000100015C
:101F8800C26B0101000159C1C3F000010001C46B1B
:101F98008EEC00F0C3D10101010E00010001BC6FFD
:101FA8000101010E0001BB6F7F0E00010001BE6F31
:101FB800A40E0001BD6F010101015D51040D770EF2
:101FC800F324F66E7F0EF420F76E0800F55000013A
:101FD8000001BF6F0001C06B010101015D51040DDB
:101FE800010EF326000EF422770EF324F66E7F0E10
:101FF800F420F76E0800F55000010001C16F0001E0
:10200800C26B010100015AC1C3F000010001C46B99
:102018000101000159C1C5F000010001C66B8EEC39
:1020280000F07CD15FC160F060C161F0000E00017A
:102038000001636F640E0001626FDCEC32F0000196
:1020480060C00DF1000161C00EF10101010E000137
:102058000001BC6F0101010E0001BB6F7F0E000182
:102068000001BE6F930E0001BD6F010100015CC14C
:10207800BFF000010001C06B010100015EC1C1F0A9
:1020880000010001C26B0DC1C3F00EC1C4F08EEC9B
:1020980000F044D10101010E00010001BC6F0101F3
:1020A800010E0001BB6F7F0E00010001BE6FC30E61
:1020B8000001BD6F010100015BC1BFF0000100011B
:1020C800C06B010100015AC1C1F000010001C26BDF
:1020D8008EEC00F023D10101010E00010001BC6F5C
:1020E8000101010E0001BB6F7F0E00010001BE6FF0
:1020F800C30E0001BD6F010100015CC1BFF000010A
:102108000001C06B010100015EC1C1F000010001C6
:10211800C26B8EEC00F002D1010101010F51000ADF
:10212800D8B4B8D7010AD8B40ED7030AD8B4A5D6FC
:10213800010AD8B430D7050AD8B4CDD70E0AD8B416
:1021480071D7010AD8B4C7D6E9D00101010E000140
:102158000001BC6F0101010E0001BB6F7F0E000181
:102168000001BE6F950E0001BD6F010100015BC14A
:10217800BFF000010001C06B010100015AC1C1F0AC
:1021880000010001C26B0101000159C1C3F0000147
:102198000001C46B8EEC00F016D10101010E0001A4
:1021A8000001BC6F0101010E0001BB6F7F0E000131
:1021B8000001BE6FA50E0001BD6F010101015D5157
:1021C800040D770EF324F66E7F0EF420F76E0800E8
:1021D800F55000010001BF6F0001C06B0101010152
:1021E8005D51040D010EF326000EF422770EF32440
:1021F800F66E7F0EF420F76E0800F550000100011E
:10220800C16F0001C26B010100015AC1C3F0000196
:102218000001C46B0101000159C1C5F000010001B2
:10222800C66B8EEC00F0CFD05FC160F060C161F08A
:10223800000E00010001636F640E0001626FDCECA8
:1022480032F0000160C00DF1000161C00EF1010122
:10225800010E00010001BC6F0101010E0001BB6FFE
:102268007F0E00010001BE6F950E0001BD6F0101D8
:1022780000015CC1BFF000010001C06B0101000159
:102288005EC1C1F000010001C26B0DC1C3F00EC1F7
:10229800C4F08EEC00F097D00101010E000100019E
:1022A800BC6F0101010E0001BB6F7F0E0001000130
:1022B800BE6FC50E0001BD6F010100015BC1BFF01B
:1022C80000010001C06B010100015AC1C1F0000109
:1022D8000001C26B8EEC00F076D00101010E000106
:1022E8000001BC6F0101010E0001BB6F7F0E0001F0
:1022F8000001BE6FC50E0001BD6F010100015CC188
:10230800BFF000010001C06B010100015EC1C1F016
:1023180000010001C26B8EEC00F055D001010101F3
:102328000F51000AD8B4B8D7010AD8B40ED7020A98
:10233800D8B433D7050AD8B4D0D70E0AD8B474D7CE
:1023480088D00101010E00010001BC6F0101010EDE
:102358000001BB6F7F0E00010001BE6FC70E0001B8
:10236800BD6F010100015BC1BFF000010001C06B3E
:10237800010100015AC1C1F000010001C26B8EECDD
:1023880000F02BD00101010E00010001BC6F01011A
:10239800010E0001BB6F7F0E00010001BE6FC70E6A
:1023A8000001BD6F010100015CC1BFF00001000127
:1023B800C06B010100015EC1C1F000010001C26BE8
:1023C8008EEC00F00AD0010101010F51000AD8B4C7
:1023D800B8D7060AD8B4D6D73CD00101010E0001FF
:1023E8000001BC6F0101010E0001BB6F7F0E0001EF
:1023F8000001BE6FE50E0001BD6F8EEC00F029D024
:1024080000010001F05100010001606F0001616BE3
:102418000001626B0001636B79EC36F0000AD8B4F6
:10242800DCD7010AD8B4D9D7030AD8B4D6D7010A59
:10243800D8B4D3D7070AD8B4C6D7010AD8B4C3D7F3
:10244800030AD8B46BD7010AD8B468D70F0AD8B42E
:1024580063D6010101010F2B010101018551010121
:1024680001010F19D8B405D0010101010051D8B4F8
:10247800F7D40FC185F1F0C084F00101010E00010D
:102488000001866F0101010E0001856F7FEC1CF0D1
:1024980000010001F051010101017A138B72120051
:1024A800000100019EAF79D1000100019E6D00017D
:1024B80000019E51800A120FD8A0DFD0000E000143
:1024C8000001796F030E0001786F000E0001000112
:1024D8006C6F0A0E00016B6F000E00010001636F44
:1024E800640E0001626F000100019E5100010001AD
:1024F800606F0001616B000160BF610721EC2FF084
:10250800000160C069F0000161C06AF01AEC2CF0AB
:10251800090E00010001692500010001766F000E17
:10252800000100016A210001776F31EC35F0290EB6
:10253800000100017625F66E7F0E00017721F76E07
:102548000900F5CFA1F00900F5CFA2F00900F5CFF9
:10255800A3F0A3C092F0A2C091F0A1C090F0000E29
:1025680000010001796F030E0001786F000E000171
:1025780000016C6F640E00016B6F000100019E5139
:1025880000010001696F00016A6B000169BF6A07F9
:102598001AEC2CF0120E000100016925000100015F
:1025A800766F000E000100016A210001776F31EC9F
:1025B80035F0290E000100017625F66E7F0E000128
:1025C8007721F76E0900F5CFA4F00900F5CFA5F043
:1025D8000900F5CFA6F0A6C08FF0A5C08EF0A4C064
:1025E8008DF079EC26F08FC0A9F08EC0A8F08DC0D0
:1025F800A7F0A7C08DF0A8C08EF0A9C08FF0000E7C
:1026080000010001796F030E0001786F000E0001D0
:102618000001636F0A0E0001626F000100019E5104
:1026280000010001606F0001616B000160BF61077C
:1026380021EC2FF0000160C076F0000161C077F056
:1026480031EC35F0290E000100017625F66E7F0E7B
:1026580000017721F76E0900F5CFA1F00900F5CF49
:10266800A2F00900F5CFA3F0A3C092F0A2C091F0A8
:10267800A1C090F079EC26F0FCD1000100019E5138
:10268800800A750FD8A080D0000E00010001796F74
:10269800030E0001786F000E000100016C6F0A0E36
:1026A80000016B6F000100019E5100010001696F7C
:1026B80000016A6B000169BF6A071AEC2CF0090E69
:1026C80000010001692500010001766F000E00017C
:1026D80000016A210001776F31EC35F0290E000105
:1026E80000017625F66E7F0E00017721F76E09004E
:1026F800F5CFA1F00900F5CFA2F00900F5CFA3F0BE
:10270800A3C08FF0A2C08EF0A1C08DF0000E000112
:102718000001796F030E0001786F000E00010001BF
:10272800636F0A0E0001626F000100019E510001F3
:102738000001606F0001616B000160BF610721EC5F
:102748002FF0000160C076F0000161C077F031EC35
:1027580035F0290E000100017625F66E7F0E000186
:102768007721F76E0900F5CFA4F00900F5CFA5F0A1
:102778000900F5CFA6F0A6C092F0A5C091F0A4C0BC
:1027880090F079EC26F075D1000100019E51030DFF
:10279800290EF324F66E7F0E7BD1000100019E51B5
:1027A800800A120FD8A0DFD0000E00010001796F57
:1027B800030E0001786F000E000100016C6F0A0E15
:1027C80000016B6F000E00010001636F640E0001D1
:1027D800626F000100019E5100010001606F00015D
:1027E800616B000160BF610721EC2FF0000160C040
:1027F80069F0000161C06AF01AEC2CF0090E0001C2
:102808000001692500010001766F000E000100013A
:102818006A210001776F31EC35F0500E000100019C
:102828007625F66E7F0E00017721F76E0900F5CF49
:10283800A1F00900F5CFA2F00900F5CFA3F0A3C0DD
:1028480092F0A2C091F0A1C090F0000E000100012A
:10285800796F030E0001786F000E000100016C6FA4
:10286800640E00016B6F000100019E510001000120
:10287800696F00016A6B000169BF6A071AEC2CF0E6
:10288800120E00010001692500010001766F000E9B
:10289800000100016A210001776F31EC35F0500E1C
:1028A800000100017625F66E7F0E00017721F76E94
:1028B8000900F5CFA4F00900F5CFA5F00900F5CF80
:1028C800A6F0A6C08FF0A5C08EF0A4C08DF079EC5C
:1028D80026F08FC0A9F08EC0A8F08DC0A7F0A7C0C1
:1028E8008DF0A8C08EF0A9C08FF0000E0001000185
:1028F800796F030E0001786F000E00010001636F0D
:102908000A0E0001626F000100019E5100010001E2
:10291800606F0001616B000160BF610721EC2FF05F
:10292800000160C076F0000161C077F031EC35F04D
:10293800500E000100017625F66E7F0E000177210A
:10294800F76E0900F5CFA1F00900F5CFA2F0090054
:10295800F5CFA3F0A3C092F0A2C091F0A1C090F06F
:1029680079EC26F086D0000100019E51800A750F8F
:10297800D8A086D0000E00010001796F030E000177
:10298800786F000E000100016C6F0A0E00016B6F7A
:10299800000100019E5100010001696F00016A6B8E
:1029A800000169BF6A071AEC2CF0090E000100014A
:1029B800692500010001766F000E000100016A21FF
:1029C8000001776F31EC35F0500E000100017625DB
:1029D800F66E7F0E00017721F76E0900F5CFA1F0A2
:1029E8000900F5CFA2F00900F5CFA3F0A3C08FF03E
:1029F800A2C08EF0A1C08DF0000E00010001796F19
:102A0800030E0001786F000E00010001636F0A0ECB
:102A18000001626F000100019E5100010001606F1A
:102A28000001616B000160BF610721EC2FF000011C
:102A380060C076F0000161C077F031EC35F0500EDF
:102A4800000100017625F66E7F0E00017721F76EF2
:102A58000900F5CFA4F00900F5CFA5F00900F5CFDE
:102A6800A6F0A6C092F0A5C091F0A4C090F079ECB1
:102A780026F08FC0A0F08EC09FF08DC09EF019D0B8
:102A8800000100019E51030D500EF324F66E7F0ED7
:102A9800F420F76E0900F5CFA1F00900F5CFA2F0F8
:102AA8000900F5CFA3F0A3C0A0F0A2C09FF0A1C079
:102AB8009EF01200010101017B517A11D8B485D230
:102AC8000101326F0F0E01010101376F010132510F
:102AD8000101010137BF79D283D037C132F1010E2C
:102AE8000101336F0101322B03D00101D890333734
:102AF8000101322FFAD701013351010101012D6F74
:102B0800010101013751010D01016F0EF324D96E46
:102B18000101010EF420DA6EDF50010101012E6F70
:102B280065EC33F02CD20101326F090E010101016D
:102B3800256F01013251010101017751FF0B01019C
:102B48000101266FA9EC2EF01AD20101326F0A0E8C
:102B580001010101256F0101325101010101785183
:102B68000F0B01010101266FA9EC2EF008D201011B
:102B7800326F0B0E01010101256F01013251010174
:102B880001017839070B01010101266FA9EC2EF02C
:102B9800F6D10101326F0F0E01010101256F01010C
:102BA8003251000E010178BF010E01010101266FAB
:102BB800A9EC2EF0E4D10101326F0C0E01010101E4
:102BC800256F010132510101010179B102D0010ED5
:102BD80001D0000E01010101266FA9EC2EF0CFD122
:102BE80037C132F1010E0101336F346B0101322B11
:102BF80004D0D8900101333734370101322FF9D787
:102C0800010101017A5101013317010101017B51D1
:102C18000101341701013451000AD8B410D0020A56
:102C2800D8B490D1060AD8B493D10C0AD8B496D1A6
:102C3800180AD8B499D1300AD8B49CD1A0D10101CE
:102C48003351010AD8B449D7030AD8B446D7010A80
:102C5800D8B443D7070AD8B440D7010AD8B43DD767
:102C6800030AD8B43AD7010AD8B437D70F0AD8B468
:102C780034D7010AD8B431D7030AD8B42ED7010AF9
:102C8800D8B42BD7070AD8B428D7010AD8B425D77F
:102C9800030AD8B422D7010AD8B41FD71F0AD8B458
:102CA8001CD7010AD8B419D7030AD8B416D7010A11
:102CB800D8B413D7070AD8B410D7010AD8B40DD797
:102CC800030AD8B40AD7010AD8B407D70F0AD8B468
:102CD80004D7010AD8B401D7030AD8B4FED6010A2A
:102CE800D8B4FBD6070AD8B4F8D6010AD8B4F5D6B2
:102CF800030AD8B4F2D6010AD8B4EFD63F0AD8B43A
:102D0800ECD6010AD8B4E9D6030AD8B4E6D6010A43
:102D1800D8B4E3D6070AD8B4E0D6010AD8B4DDD6C9
:102D2800030AD8B4DAD6010AD8B4D7D60F0AD8B469
:102D3800D4D6010AD8B4D1D6030AD8B4CED6010A5B
:102D4800D8B4CBD6070AD8B4C8D6010AD8B4C5D6E1
:102D5800030AD8B4C2D6010AD8B4BFD61F0AD8B459
:102D6800BCD6010AD8B4B9D6030AD8B4B6D6010A73
:102D7800D8B4B3D6070AD8B4B0D6010AD8B4ADD6F9
:102D8800030AD8B4AAD6010AD8B4A7D60F0AD8B469
:102D9800A4D6010AD8B4A1D6030AD8B49ED6010A8B
:102DA800D8B49BD6070AD8B498D6010AD8B495D611
:102DB800030AD8B492D6010AD8B48FD67F0AD8B4F9
:102DC8008CD6010AD8B489D6030AD8B486D6010AA3
:102DD800D8B483D6070AD8B480D6010AD8B47DD629
:102DE800030AD8B47AD6010AD8B477D60F0AD8B469
:102DF80074D6010AD8B471D6030AD8B46ED6010ABB
:102E0800D8B46BD6070AD8B468D6010AD8B465D640
:102E1800030AD8B462D6010AD8B45FD61F0AD8B458
:102E28005CD6010AD8B459D6030AD8B456D6010AD2
:102E3800D8B453D6070AD8B450D6010AD8B44DD658
:102E4800030AD8B44AD6010AD8B447D60F0AD8B468
:102E580044D6010AD8B441D6030AD8B43ED6010AEA
:102E6800D8B43BD6070AD8B438D6010AD8B435D670
:102E7800030AD8B432D6010AD8B42FD63F0AD8B438
:102E88002CD6010AD8B429D6030AD8B426D6010A02
:102E9800D8B423D6070AD8B420D6010AD8B41DD688
:102EA800030AD8B41AD6010AD8B417D60F0AD8B468
:102EB80014D6010AD8B411D6030AD8B40ED6010A1A
:102EC800D8B40BD6070AD8B408D6010AD8B405D6A0
:102ED800030AD8B402D6010AD8B4FFD51F0AD8B459
:102EE800FCD5010AD8B4F9D5030AD8B4F6D5010A35
:102EF800D8B4F3D5070AD8B4F0D5010AD8B4EDD5BB
:102F0800030AD8B4EAD5010AD8B4E7D50F0AD8B469
:102F1800E4D5010AD8B4E1D5030AD8B4DED5010A4C
:102F2800D8B4DBD5070AD8B4D8D5010AD8B4D5D5D2
:102F3800030AD8B4D2D5010AD8B4CFD5FF0AD8B479
:102F4800CCD51DD001013351000AD8B4ECD517D027
:102F580001013351000AD8B4F8D511D00101335119
:102F6800000AD8B404D60BD001013351000AD8B4F2
:102F780010D605D001013351000AD8B41CD637C188
:102F880032F1010E0101336F346B0101322B04D091
:102F9800D8900101333734370101322FF9D70101B5
:102FA800331D0101356F01010101341D366F010127
:102FB8003551010101017A17010136510101010161
:102FC8007B1701010101370783D51200010E532633
:102FD800000E5422000E5522000E56228B9481A01A
:102FE80041D053C01AF054C01BF055C01CF056C055
:102FF8001DF01A1E1B1E1C1E1D1E1A2A000E1B2247
:103008001C221D2233501A241E6E34501B201F6EA2
:1030180035501C20206E36501D20216E2150800A0C
:10302800800F08E1000E205C05E1000E1F5C02E144
:10303800010E1E5CD8B016D00F0E5324336E000E4E
:103048005420346E000E5520356E000E5620366E14
:1030580000EC35F01A6E1A30D8A001D08B84D8B0A5
:1030680001D08B9481A24CD053C01AF054C01BF0ED
:1030780055C01CF056C01DF01A1E1B1E1C1E1D1E1E
:103088001A2A000E1B221C221D2237501A241E6EDB
:1030980038501B201F6E39501C20206E3A501D20BE
:1030A800216E2150800A800F08E1000E205C05E1A6
:1030B800000E1F5C02E1010E1E5CD8B021D00F0E7D
:1030C8005324376E000E5420386E000E5520396E8A
:1030D800000E56203A6E010E1A6E01010101785158
:1030E8000F0B1B6E1A501B260101010178511B188A
:1030F800F00B1B1801010101786F010101017B85AB
:1031080081A439D053C01AF054C01BF055C01CF02C
:1031180056C01DF01A1E1B1E1C1E1D1E1A2A000E4C
:103128001B221C221D223B501A241E6E3C501B20C1
:103138001F6E3D501C20206E3E501D20216E2150D8
:10314800800A800F08E1000E205C05E1000E1F5C7C
:1031580002E1010E1E5CD8B00ED00F0E53243B6E58
:10316800000E54203C6E000E55203D6E000E562079
:103178003E6E23EC34F081A64CD053C01AF054C0F4
:103188001BF055C01CF056C01DF01A1E1B1E1C1E3D
:103198001D1E1A2A000E1B221C221D223F501A2413
:1031A8001E6E40501B201F6E41501C20206E425046
:1031B8001D20216E2150800A800F08E1000E205C3E
:1031C80005E1000E1F5C02E1010E1E5CD8B021D0A3
:1031D8000F0E53243F6E000E5420406E000E5520F3
:1031E800416E000E5620426E010E1A6E0101010159
:1031F80078510F0B1B6E1A501B5E010101017851AB
:103208001B18F00B1B1801010101786F0101010166
:103218007B858B9081A838D053C01AF054C01BF01E
:1032280055C01CF056C01DF01A1E1B1E1C1E1D1E6C
:103238001A2A000E1B221C221D2243501A241E6E1D
:1032480044501B201F6E45501C20206E46501D20E8
:10325800216E2150800A800F08E1000E205C05E1F4
:10326800000E1F5C02E1010E1E5CD8B00DD00F0EDF
:103278005324436E000E5420446E000E5520456EB4
:10328800000E5620466E8B8081AA37D053C01AF0A4
:1032980054C01BF055C01CF056C01DF01A1E1B1E52
:1032A8001C1E1D1E1A2A000E1B221C221D224750FE
:1032B8001A241E6E48501B201F6E49501C20206E79
:1032C8004A501D20216E2150800A800F08E1000E0F
:1032D800205C05E1000E1F5C02E1010E1E5CD8B007
:1032E8000CD00F0E5324476E000E5420486E000E6B
:1032F8005520496E000E56204A6E81AC37D053C017
:103308001AF054C01BF055C01CF056C01DF01A1E10
:103318001B1E1C1E1D1E1A2A000E1B221C221D22EB
:103328004B501A241E6E4C501B201F6E4D501C20F3
:10333800206E4E501D20216E2150800A800F08E11A
:10334800000E205C05E1000E1F5C02E1010E1E5C10
:10335800D8B00CD00F0E53244B6E000E54204C6E78
:10336800000E55204D6E000E56204E6E81AE37D0A1
:1033780053C01AF054C01BF055C01CF056C01DF0C5
:103388001A1E1B1E1C1E1D1E1A2A000E1B221C2282
:103398001D224F501A241E6E50501B201F6E515074
:1033A8001C20206E52501D20216E2150800A800F53
:1033B80008E1000E205C05E1000E1F5C02E1010E31
:1033C8001E5CD8B00CD00F0E53244F6E000E542044
:1033D800506E000E5520516E000E5620526E8B9482
:1033E8008150D8A43BEC1AF0816640D0000E336EB1
:1033F800000E346E000E356E000E366E000E376EFF
:10340800000E386E000E396E000E3A6E000E3B6EDE
:10341800000E3C6E000E3D6E000E3E6E000E3F6EBE
:10342800000E406E000E416E000E426E000E436E9E
:10343800000E446E000E456E000E466E000E476E7E
:10344800000E486E000E496E000E4A6E000E4B6E5E
:10345800000E4C6E000E4D6E000E4E6E000E4F6E3E
:10346800000E506E000E516E000E526E12000101D9
:1034780001017B517A11D8B43DD2146E0F0E196E2A
:10348800145019BE37D25AD019C014F0010E156E57
:10349800142A02D0D8901536142EFCD715500F6E6A
:1034A8001950010D01016F0EF324D96E0101010EAF
:1034B800F420DA6EDF50106EE3EC35F001D2146EB2
:1034C800090E076E1450010101017751FF0B086EB8
:1034D80016EC31F0F5D1146E0A0E076E1450010186
:1034E800010178510F0B086E16EC31F0E9D1146E1A
:1034F8000B0E076E1450010101017839070B086E95
:1035080016EC31F0DDD1146E0F0E076E1450000E5C
:10351800010178BF010E086E16EC31F0D1D1146E9E
:103528000C0E076E14500101010179B102D0010E91
:1035380001D0000E086E16EC31F0C2D119C014F09B
:10354800010E156E166A142A03D0D8901536163651
:10355800142EFBD7010101017A5115160101010151
:103568007B5116161650000AD8B410D0020AD8B4E7
:103578008FD1060AD8B491D10C0AD8B493D1180ABD
:10358800D8B495D1300AD8B497D19AD11550010A38
:10359800D8B47AD7030AD8B477D7010AD8B474D77D
:1035A800070AD8B471D7010AD8B46ED7030AD8B4B9
:1035B8006BD7010AD8B468D70F0AD8B465D7010AFF
:1035C800D8B462D7030AD8B45FD7010AD8B45CD795
:1035D800070AD8B459D7010AD8B456D7030AD8B4B9
:1035E80053D7010AD8B450D71F0AD8B44DD7010A07
:1035F800D8B44AD7030AD8B447D7010AD8B444D7AD
:10360800070AD8B441D7010AD8B43ED7030AD8B4B8
:103618003BD7010AD8B438D70F0AD8B435D7010A2E
:10362800D8B432D7030AD8B42FD7010AD8B42CD7C4
:10363800070AD8B429D7010AD8B426D7030AD8B4B8
:1036480023D7010AD8B420D73F0AD8B41DD7010A16
:10365800D8B41AD7030AD8B417D7010AD8B414D7DC
:10366800070AD8B411D7010AD8B40ED7030AD8B4B8
:103678000BD7010AD8B408D70F0AD8B405D7010A5E
:10368800D8B402D7030AD8B4FFD6010AD8B4FCD6F6
:10369800070AD8B4F9D6010AD8B4F6D6030AD8B4BA
:1036A800F3D6010AD8B4F0D61F0AD8B4EDD6010A69
:1036B800D8B4EAD6030AD8B4E7D6010AD8B4E4D60F
:1036C800070AD8B4E1D6010AD8B4DED6030AD8B4BA
:1036D800DBD6010AD8B4D8D60F0AD8B4D5D6010A91
:1036E800D8B4D2D6030AD8B4CFD6010AD8B4CCD627
:1036F800070AD8B4C9D6010AD8B4C6D6030AD8B4BA
:10370800C3D6010AD8B4C0D67F0AD8B4BDD6010A38
:10371800D8B4BAD6030AD8B4B7D6010AD8B4B4D63E
:10372800070AD8B4B1D6010AD8B4AED6030AD8B4B9
:10373800ABD6010AD8B4A8D60F0AD8B4A5D6010AC0
:10374800D8B4A2D6030AD8B49FD6010AD8B49CD656
:10375800070AD8B499D6010AD8B496D6030AD8B4B9
:1037680093D6010AD8B490D61F0AD8B48DD6010AC8
:10377800D8B48AD6030AD8B487D6010AD8B484D66E
:10378800070AD8B481D6010AD8B47ED6030AD8B4B9
:103798007BD6010AD8B478D60F0AD8B475D6010AF0
:1037A800D8B472D6030AD8B46FD6010AD8B46CD686
:1037B800070AD8B469D6010AD8B466D6030AD8B4B9
:1037C80063D6010AD8B460D63F0AD8B45DD6010AD8
:1037D800D8B45AD6030AD8B457D6010AD8B454D69E
:1037E800070AD8B451D6010AD8B44ED6030AD8B4B9
:1037F8004BD6010AD8B448D60F0AD8B445D6010A20
:10380800D8B442D6030AD8B43FD6010AD8B43CD6B5
:10381800070AD8B439D6010AD8B436D6030AD8B4B8
:1038280033D6010AD8B430D61F0AD8B42DD6010A27
:10383800D8B42AD6030AD8B427D6010AD8B424D6CD
:10384800070AD8B421D6010AD8B41ED6030AD8B4B8
:103858001BD6010AD8B418D60F0AD8B415D6010A4F
:10386800D8B412D6030AD8B40FD6010AD8B40CD6E5
:10387800070AD8B409D6010AD8B406D6030AD8B4B8
:1038880003D6010AD8B400D6FF0AD8B4FDD518D09B
:103898001550000AD8B413D613D01550000AD8B45E
:1038A8001AD60ED01550000AD8B421D609D0155012
:1038B800000AD8B428D604D01550000AD8B42FD698
:1038C80019C014F0010E156E166A142A03D0D89088
:1038D80015361636142EFBD7151C176E161C186EC7
:1038E8001750010101017A171850010101017B17D6
:1038F8001906C7D512000001876F000E00010001EC
:103908008C6F000187510001876F000E00010001D4
:103918008D6F0001875100010001845100010001F1
:10392800606F0001616B0001626B0001636B79ECF1
:1039380036F0000100018B6F000100018B2B0001A4
:103948000001845100010001606F0001616B0001FA
:10395800626B0001636B00EC32F063C06EF062C012
:103968006DF061C06CF060C06BF0CBEC34F000011E
:1039780000016B51000100018C6F7ED18CC087F073
:1039880084C088F00001872B03D00001D8908833C9
:103998000001872FFAD7000188A16BD1000100012F
:1039A8008D5100010001766F0001776B000176BF31
:1039B8007707000E00010001796F010E0001786F92
:1039C80031EC35F000010001765100010001852538
:1039D8000001876F00010001775100010001862175
:1039E8000001886F00018751F66EE96E070EEA6ED6
:1039F80000018851EA6403D0EA6EEF5003D0F76EF5
:103A08000800F5500009D8B43BD1000100018D51E0
:103A180000010001766F0001776B000176BF770720
:103A2800000E00010001796F010E0001786F31EC82
:103A380035F00001000176510001000185250001E3
:103A4800876F000100017751000100018621000104
:103A5800886F00018751F66EE96E070EEA6E000165
:103A68008851EA6403D0EA6EEF5003D0F76E08007D
:103A7800F5502E0AD8A43BD000018CC087F0000175
:103A8800886B87BF8807010E00018727000E8823EF
:103A980001016F0E00018725D96E0101010E000199
:103AA8008821DA6E000EDB8E8CC087F0010E0001D3
:103AB8008727010E0001886F896B0001872B04D0CE
:103AC800D8900001883789370001872FF9D700017E
:103AD8008851010101017A13000189510101010195
:103AE8007B13000100018B2B000100018D2B0001CD
:103AF80000018D5100010001766F0001776B000114
:103B080076BF7707000E00010001796F010E0001F2
:103B1800786F31EC35F000010001765100010001A9
:103B280085250001876F0001000177510001000120
:103B380086210001886F00018751F66EE96E070E35
:103B4800EA6E00018851EA6403D0EA6EEF5003D0B0
:103B5800F76E0800F550000100017E6F5FEC24F05D
:103B68000009D8A437D0000100018D5100010001DF
:103B7800766F0001776B000176BF7707000E0001B2
:103B88000001796F010E0001786F31EC35F000010A
:103B9800000176510001000185250001876F0001B1
:103BA800000177510001000186210001886F0001A2
:103BB8008751F66EE96E070EEA6E00018851EA64D5
:103BC80003D0EA6EEF5003D0F76E0800F550200AD4
:103BD800D8A44CD08CC087F0010E0001886F00017A
:103BE800872B03D00001D89088370001872FFAD798
:103BF8000001885100010001816F000100018D5111
:103C080000010001766F0001776B000176BF77072E
:103C1800000E00010001796F010E0001786F31EC90
:103C280035F00001000176510001000185250001F1
:103C3800896F000100017751000100018621000110
:103C48008A6F00018951F66EE96E070EEA6E00016F
:103C58008A51EA6403D0EA6EEF5003D0F76E080089
:103C6800F55000010001826F90EC35F00001000171
:103C78008D2B000100018C07000100018B2F7ED6DF
:103C880012006D0E000100019E65EDD0000E0001CE
:103C98000001796F030E0001786F000E000100012A
:103CA8006C6F0A0E00016B6F000E00010001636F5C
:103CB800640E0001626F000100019EC060F0000107
:103CC8000001616B21EC2FF0000160C069F0000178
:103CD80061C06AF01AEC2CF0090E00010001692598
:103CE80000010001766F000E000100016A21000149
:103CF800776F31EC35F0290E000100017625F66E5C
:103D08007F0E00017721F76E0900F5CFA1F00900B9
:103D1800F5CFA2F00900F5CFA3F0A3C092F0A2C09E
:103D280091F0A1C090F0000E00010001796F030E20
:103D38000001786F000E000100016C6F640E000135
:103D48006B6F000100019EC069F0000100016A6B01
:103D58001AEC2CF0120E0001000169250001000187
:103D6800766F000E000100016A210001776F31ECC7
:103D780035F0290E000100017625F66E7F0E000150
:103D88007721F76E0900F5CFA4F00900F5CFA5F06B
:103D98000900F5CFA6F0A6C08FF0A5C08EF0A4C08C
:103DA8008DF079EC26F08FC0ACF08EC0ABF08DC0F2
:103DB800AAF0000E00010001796F030E0001786F70
:103DC800000E00010001636F0A0E0001626F00011E
:103DD80000019EC060F000010001616B21EC2FF032
:103DE800000160C076F0000161C077F031EC35F079
:103DF800290E000100017625F66E7F0E000177215D
:103E0800F76E0900F5CFA1F00900F5CFA2F009007F
:103E1800F5CFA3F0A3C092F0A2C091F0A1C090F09A
:103E2800AAC08DF0ABC08EF0ACC08FF079EC26F054
:103E38008FC0A9F08EC0A8F08DC0A7F0A7C08DF0E4
:103E4800A8C08EF0A9C08FF0000E00010001906F8D
:103E5800000E00010001916F3F0E00010001926FFA
:103E680079EC26F0BED00A0E000100019E6592D0C2
:103E7800000E00010001796F030E0001786F000E3B
:103E880000010001636F0A0E0001626F000100016A
:103E98009EC060F000010001616B21EC2FF0000171
:103EA80060C076F0000161C077F031EC35F0290E82
:103EB800000100017625F66E7F0E00017721F76E6E
:103EC8000900F5CFA1F00900F5CFA2F00900F5CF60
:103ED800A3F0A3C092F0A2C091F0A1C090F0000E90
:103EE80000010001796F030E0001786F000E0001D8
:103EF80000016C6F0A0E00016B6F000100019EC08B
:103F080069F0000100016A6B1AEC2CF0090E00013F
:103F18000001692500010001766F000E0001000113
:103F28006A210001776F31EC35F0290E000100019C
:103F38007625F66E7F0E00017721F76E0900F5CF22
:103F4800A4F00900F5CFA5F00900F5CFA6F0A6C0AA
:103F58008FF0A5C08EF0A4C08DF079EC26F08FC04C
:103F6800ACF08EC0ABF08DC0AAF0AAC08DF0ABC08B
:103F78008EF0ACC08FF0000E00010001906F000EB3
:103F880000010001916F3F0E00010001926F79EC72
:103F980026F027D0000100019E51030D290EF324BD
:103FA800F66E7F0EF420F76E0900F5CFA1F0090038
:103FB800F5CFA2F00900F5CFA3F0A3C08FF0A2C0FF
:103FC8008EF0A1C08DF0000E00010001906F000E70
:103FD80000010001916F3F0E00010001926F79EC22
:103FE80026F08FC0A0F08EC09FF08DC09EF012000A
:103FF8000F0E0001A86F0001A2C0A9F00001A3C024
:10400800AAF00001A4C0ABF00001A8290001AC6F20
:1040180005D00001D890AB33AA33A9330001AC2FE7
:10402800F8D70001A95100010001AF6F0F0E000180
:10403800A86F0001A5C0A9F00001A6C0AAF0000160
:10404800A7C0ABF00001A8290001AC6F05D00001A2
:10405800D890AB33AA33A9330001AC2FF8D70001AD
:10406800A95100010001AE6F00010001AF51D8B4A1
:1040780015D000010001AE5100010001AF6115D05B
:1040880000010001AF51000800010001AE25000148
:10409800A86F190E0001A85DD8A007D0A5C0A2F08E
:1040A800A6C0A3F0A7C0A4F048D100010001AE51FA
:1040B800D8B415D000010001AF5100010001AE6174
:1040C80015D000010001AE51000800010001AF2524
:1040D8000001A86F190E0001A85DD8A007D0A2C0E2
:1040E800A2F0A3C0A3F0A4C0A4F027D10001A86F38
:1040F800060E00010001AD6F0001A851000100018A
:10410800A4AF03D000010001AD8F00010001A7AFEB
:1041180003D000010001AD8D00010001A38FFF0E47
:1041280000010001A217FF0E00010001A317000EF5
:1041380000010001A41700010001A68FFF0E000175
:104148000001A517FF0E00010001A617000E0001CF
:104158000001A71700010001AE5100010001AF6185
:104168002FD00001D8900001A5370001A637000123
:10417800A73700010001AE0700010001AE510001A0
:104188000001AF19D8B414D000010001AD07000137
:10419800AD51070BD8B40CD0E4D70001D89000017A
:1041A800A4330001A3330001A23300010001AF2BA7
:1041B80000010001AE5100010001AF63EED735D018
:1041C80000010001AF5100010001AE612ED00001D5
:1041D800D8900001A2370001A3370001A4370001DD
:1041E8000001AF0700010001AE5100010001AF1945
:1041F800D8B414D000010001AD070001AD51070B80
:10420800D8B40CD0E4D70001D8900001A73300013E
:10421800A6330001A53300010001AE2B0001000107
:10422800AE5100010001AF63EED700010001ADAF50
:1042380018D0FF0E00010001A21BFF0E00010001B3
:10424800A31BFF0E00010001A41B010E00010001C9
:10425800A227000E00010001A323000E00010001A7
:10426800A42300010001ADAD18D0FF0E000100012C
:10427800A51BFF0E00010001A61BFF0E0001000197
:10428800A71B010E00010001A527000E0001000177
:10429800A623000E00010001A7230001A86F000E4D
:1042A80000010001AD6F0001A85100010001A251F9
:1042B80000010001A52700010001A3510001000130
:1042C800A62300010001A45100010001A723000159
:1042D8000001A7AF20D0FF0E00010001A51BFF0EB3
:1042E80000010001A61BFF0E00010001A71B010E23
:1042F80000010001A527000E00010001A623000E01
:1043080000010001A7230001A86F010E00010001B0
:10431800AD6F0001A851A5C060F0A6C061F0A7C0AC
:1043280062F0AFC063F0ADC064F0C5EC2AF062C0C3
:10433800A4F061C0A3F060C0A2F01200000E00015A
:104348000001636FC80E0001626F000100017EC0AA
:1043580060F000010001616B21EC2FF0000160C0EA
:1043680076F0000161C077F0010E00010001796F5D
:104378006D0E0001786F31EC35F00001000176C058
:1043880089F00001000177C08AF00001000E0001E9
:104398008ABFFF0E00018B6F00018C6F000E0001B9
:1043A8000001636FC80E0001626F000100017EC04A
:1043B80060F000010001616B21EC2FF0030E000199
:1043C8000001602500010001696F000E0001000175
:1043D800612100016A6F000E000100016C6F040E7C
:1043E80000016B6F1AEC2CF0000169C081F000012C
:1043F8006AC082F0000E000182BFFF0E836F846FD7
:10440800000181510001000189270001825100014A
:1044180000018A2300018351000100018B23000160
:104428008451000100018C23A3D01E0E000100015D
:104438008927000E00018A23000E00018B23000E3D
:1044480000018C231F0E000100018927000E0001C6
:104458008A23000E00018B23000E00018C231E0E00
:10446800000100018927000E00018A23000E0001C7
:104478008B23000E00018C231F0E000100018927E9
:10448800000E00018A23000E00018B23000E00019C
:104498008C231F0E000100018927000E00018A23CA
:1044A800000E00018B23000E00018C231E0E00015C
:1044B80000018927000E00018A23000E00018B23CA
:1044C800000E00018C231F0E000100018927000E39
:1044D80000018A23000E00018B23000E00018C23AB
:1044E8001E0E000100018927000E00018A23000E1C
:1044F80000018B23000E00018C231F0E0001000118
:104508008927000E00018A23000E00018B23000E6C
:1045180000018C231C0E000100018927000E0001F8
:104528008A23000E00018B23000E00018C2300015A
:1045380000017E51030BD8A40DD0010E000100012B
:104548008927000E00018A23000E00018B23000E2C
:1045580000018C231F0E000100018927000E0001B5
:104568008A23000E00018B23000E00018C2327D024
:10457800000100017F51010AD8B421D0030AD8B440
:10458800E9D7010AD8B4C6D7070AD8B4B6D7010AFA
:10459800D8B4A6D7030AD8B496D7010AD8B486D710
:1045A8000F0AD8B476D7010AD8B466D7030AD8B4A4
:1045B80056D7010AD8B446D7070AD8B436D7000167
:1045C80000018051000100018927000E00018A23A3
:1045D80000018B2300018C23000100018907000ED4
:1045E80000018A5B00018B5B00018C5B060E0001F9
:1045F8000001892500010001736F000E0001000110
:104608008A210001746F000E000100018B21000156
:10461800756F000E000100018C210001766F070EF6
:1046280000010001776F000E0001786F000E000195
:10463800796F000E00017A6F98EC2FF000010001ED
:10464800735112000001B56F030E00010001C56F20
:104658000001B55137D000010001C551030D01011A
:10466800410EF324D96E0101010EF420DA6EFF0E1B
:1046780000010001C52500010001766F000100015D
:10468800776BFF0E7723000E00010001796F030E90
:104698000001786F31EC35F00001B60E0001000121
:1046A8007625E16E0001000E000100017721E26E1F
:1046B800DECFE6FFDECFE6FFDECFE5FFE552000105
:1046C8000001C50700010001C567C5D7C282C2B293
:1046D800FED700010001FB672FD07B0E000100010F
:1046E800906F7E0E00010001916F3D0E00010001E8
:1046F800926FC3CF68F0C4CF69F055EC36F06AC04A
:104708008FF069C08EF068C08DF079EC26F08FC00C
:10471800A4F08EC0A3F08DC0A2F01A0E0001000113
:10472800A56FA40E00010001A66FC10E00010001D3
:10473800A76FFCEC1FF02ED07B0E00010001906FDC
:104748007E0E00010001916F3D0E00010001926F85
:10475800C3CF68F0C4CF69F055EC36F06AC08FF06B
:1047680069C08EF068C08DF079EC26F08FC0A4F097
:104778008EC0A3F08DC0A2F0D50E00010001A56F78
:10478800A40E00010001A66F410E00010001A76FF1
:10479800FCEC1FF0A4C0C1F0A3C0C0F0A2C0BFF0E1
:1047A800BFC0C2F0C0C0C3F0C1C0C4F00001B56F43
:1047B800000E00010001C56F0001B55142D0000193
:1047C8000001C551030D0001B60EF324D96E000196
:1047D800000EF420DA6E00010001C551030D01013D
:1047E800410EF324E16E0101010EF420E26EDECFEA
:1047F800E6FFDECFE6FFDECFE5FFE5520001000E63
:1048080000010001B16F0001C20E0001B06F00018C
:104818000001C551030D0101410EF324D96E0101B8
:10482800010EF420DA6E0001DECFB2F00001DECF17
:10483800B3F00001DDCFB4F021EC37F00001000146
:10484800C52B020E00010001C565B9D7BFC04AF1EA
:10485800C0C04BF1C1C04CF1C2C068F0C3C069F020
:10486800C4C06AF0000E000100016B6F800E0001E9
:1048780000016C6F400E000100016D6F5AEC28F0CA
:104888006AC0C1F069C0C0F068C0BFF0C2C068F0BB
:10489800C3C069F0C4C06AF0000E000100016B6F6C
:1048A800800E000100016C6F400E000100016D6F69
:1048B8005AEC28F0120025D0D00E01D0B00E00011D
:1048C80000017E2500017F6F00010001806BFF0E53
:1048D8008023AE0E00017F25F66E7E0E8021F76ED6
:1048E8000800F550F9D0400EF7D0800EF5D0390EFB
:1048F800F3D00F0EF1D0080EEFD0630EEDD0000EFE
:10490800EBD0000100017E51200AD8B4F8D70A0A7A
:10491800D8B4F3D7060AD8B4E8D7010AD8B4E3D78D
:10492800030AD8B4E2D71E0AD8B4C6D7010AD8B445
:10493800C3D7030AD8B4C0D7010AD8B4BDD7070A69
:10494800D8B4BAD7010AD8B4B7D7030AD8B4B4D7F9
:10495800010AD8B4B1D70F0AD8B4AED7010AD8B46F
:10496800ABD7030AD8B4A8D7010AD8B4A5D7070A81
:10497800D8B4A2D7010AD8B49FD7030AD8B49CD711
:10498800010AD8B499D77F0AD8B496D7010AD8B4FF
:1049980093D7030AD8B490D7010AD8B48DD7070A99
:1049A800D8B48AD7010AD8B487D7030AD8B484D729
:1049B800010AD8B481D70F0AD8B47ED7010AD8B46F
:1049C8007BD7030AD8B478D7010AD8B475D7070AB1
:1049D800D8B472D7010AD8B46FD7030AD8B46CD741
:1049E800010AD8B469D71F0AD8B466D7010AD8B45F
:1049F80063D7030AD8B460D7010AD8B45DD7070AC9
:104A0800D8B45AD7010AD8B457D7030AD8B454D758
:104A1800010AD8B451D70F0AD8B44ED7010AD8B46E
:104A28004BD7030AD8B448D7010AD8B460D7060AC6
:104A3800D8B45FD7020AD8B45ED73E0AD8B43ED7F6
:104A4800030AD8B43BD7010AD8B438D7070AD8B470
:104A580035D7010AD8B432D7030AD8B42FD7010AF8
:104A6800D8B42CD70F0AD8B429D7010AD8B426D776
:104A7800030AD8B423D7010AD8B420D7070AD8B470
:104A88001DD7010AD8B41AD7030AD8B417D7010A10
:104A9800D8B414D71F0AD8B411D7010AD8B40ED77E
:104AA800030AD8B40BD7010AD8B408D7070AD8B470
:104AB80005D7010AD8B402D7030AD8B4FFD6010A29
:104AC800D8B4FCD60F0AD8B4F9D6010AD8B4F6D6A9
:104AD800030AD8B4F3D613D712000F0E0001666F7D
:104AE800000160C067F0000161C068F0000162C0A9
:104AF80069F00001662900016A6F05D00001D890AD
:104B080069336833673300016A2FF8D700016751AA
:104B180000010001706F0001706701D0BED00F0E58
:104B28000001666F000163C067F0000164C068F0AF
:104B3800000165C069F00001662900016A6F05D0AF
:104B48000001D89069336833673300016A2FF8D7BA
:104B580000016751000100016F6F00016F6701D00C
:104B68009CD000010001618FFF0E00010001601759
:104B7800FF0E000100016117000E0001000162171D
:104B880000010001648FFF0E000100016317FF0E92
:104B9800000100016417000E000100016517000EF6
:104BA800000100016B6F000E00016C6F000E000128
:104BB8006D6F000E00016E6F7F0E00010001705FC7
:104BC800000100016F51980F00010001705F0001A2
:104BD800666F180E000100016F6F00016651000139
:104BE800D89000016B3700016C3700016D37000168
:104BF8006E3700010001635100010001605D000192
:104C08000001645100010001615900010001655172
:104C1800000100016259D8A015D0000100016351BC
:104C280000010001605F0001000164510001000102
:104C3800615B00010001655100010001625B000138
:104C480000016B810001D8900001603700016137D5
:104C580000016237000100016F2FC1D70001000178
:104C680070AF16D0000100017051800A970FD8A0CC
:104C780014D00001D89000016E3300016D3300019B
:104C88006C3300016B3300010001703FF2D724D070
:104C9800170E0001000170651BD0000E0001000115
:104CA800606F000E0001616F000E0001626F000E60
:104CB8000001636F19D00001D89000016B37000123
:104CC8006C3700016D3700016E3700010001700775
:104CD800000100017067EFD76BC060F06CC061F035
:104CE8006DC062F06EC063F012000F0E0001936F8A
:104CF80000018DC094F000018EC095F000018FC0B6
:104D080096F0000193290001976F05D00001D89013
:104D18009633953394330001972FF8D700019451B7
:104D280000010001986F0001986701D021D00F0E93
:104D38000001936F000190C094F0000191C095F0BC
:104D4800000192C096F0000193290001976F05D0E9
:104D58000001D8909633953394330001972FF8D7F4
:104D680000019451000100019D6F00019D670DD065
:104D7800000E000100018D6F000E000100018E6F12
:104D8800000E000100018F6FA6D0000100019D51A7
:104D98007B0F0001000198278FC09DF00001925100
:104DA800000100019D1B800E000100019D170001FC
:104DB80000018E8F00010001918FFF0E000100019C
:104DC8009017FF0E000100019117000E000100016D
:104DD8009217000E00010001996F000E00010001FA
:104DE8009A6F000E000100019B6F0001936F070E80
:104DF800000100019C6F00019351000100018DA189
:104E080012D0000100019051000100019927000112
:104E180000019151000100019A2300010001925103
:104E2800000100019B230001D89000018F3300018D
:104E38008E3300018D330001D890000190370001B6
:104E4800913700019237000100019C2FD6D700014D
:104E5800936F090E000100019C6F0001935100013E
:104E680000018DA112D00001000190510001000144
:104E78009927000100019151000100019A230001C6
:104E880000019251000100019B230001D89000010C
:104E98008F3300018E3300018D330001D89000015B
:104EA8009B3300019A3300019933000100019C2FC4
:104EB800D6D799C060F09AC061F09BC062F098C0E4
:104EC80063F09DC064F0C5EC2AF062C08FF061C049
:104ED8008EF060C08DF0120000016235000163356C
:104EE800000100016C6F00016C6701D0B7D00001B0
:104EF800653500016635000100016B6F00016B67C5
:104F080001D0ACD000010001628FFF0E000100014A
:104F18006017FF0E00016117FF0E00016217000EF7
:104F28000001631700010001658FFF0E00010001F9
:104F38006317FF0E00016417FF0E00016517000ECE
:104F480000016617000E00010001676F000E0001E6
:104F5800686F000E0001696F000E00016A6F7F0E16
:104F6800000100016C5F000100016B51A00F0001FE
:104F780000016C5F0001666F200E000100016B6F7D
:104F8800000166510001D8900001673700016837B9
:104F98000001693700016A3700010001635100010F
:104FA8000001605D000100016451000100016159C8
:104FB8000001000165510001000162590001000172
:104FC8006651000100016359D8A01BD000010001FF
:104FD800635100010001605F00010001645100019C
:104FE8000001615B00010001655100010001625B85
:104FF80000010001665100010001635B000100012E
:1050080067810001D8900001603700016137000115
:10501800623700016337000100016B2FB3D700012D
:1050280000016CAF16D0000100016C51800A9F0F7F
:10503800D8A014D00001D89000016A330001693368
:105048000001683300016733000100016C3FF2D7AB
:1050580024D01F0E000100016C651BD0000E00015A
:105068000001606F000E0001616F000E0001626FA9
:10507800000E0001636F19D00001D8900001673756
:10508800000168370001693700016A370001000133
:105098006C07000100016C67EFD767C060F068C05B
:1050A80061F069C062F06AC063F012000F0E00017F
:1050B8006E6F000168C06FF0000169C070F00001F8
:1050C8006AC071F000016E290001726F05D00001FD
:1050D800D890713370336F330001722FF8D7000105
:1050E8006F5100010001776F0001776701D021D06F
:1050F8000F0E00016E6F00016BC06FF000016CC0F5
:1051080070F000016DC071F000016E290001726F2E
:1051180005D00001D890713370336F330001722FBE
:10512800F8D700016F5100010001786F000178671E
:105138000DD0000E00010001686F000E0001000193
:10514800696F000E000100016A6F93D0000E000124
:105158000001746F000E00010001756F000E000160
:105168000001766F000100017851890F00010001EC
:10517800775F6AC078F000016D5100010001781B6B
:10518800800E00010001781700010001698FFF0EF1
:10519800000100016817FF0E000100016917000EE9
:1051A800000100016A17000100016C8FFF0E000169
:1051B80000016B17FF0E000100016C17000E0001C3
:1051C80000016D1700016E6F180E00010001736F6A
:1051D80000016E510001D890000174370001753745
:1051E80000017637000100016B5100010001685D84
:1051F800000100016C510001000169590001000122
:105208006D51000100016A59D8A015D000010001B4
:105218006B5100010001685F000100016C51000141
:105228000001695B000100016D51000100016A5B2A
:105238000001000174810001D89000016837000165
:10524800693700016A3700010001732FC3D774C0A2
:1052580060F075C061F076C062F077C063F078C026
:1052680064F0C5EC2AF062C06AF061C069F060C001
:1052780068F0120000018D6F000E00010001956FAB
:1052880000018D515FC17EF000018D6F030E00019A
:1052980000017F6F00018D5100018E6F0E0E00011D
:1052A8000001806F00018E51A2EC21F000018F6F88
:1052B800906B00018F1F901F8F4B902B0E0E0001DB
:1052C8008F27000E9023010101015C510001916FAD
:1052D800926B00019251800A0001936F8F51000177
:1052E800915D00019051800A00019359D8A04AD0DD
:1052F800010121EE5EF0020EDF6444D05FC17EF052
:1053080000018D6F0B0E000100017F6F00018D51B0
:1053180000018E6F070E00010001806F00018E51A1
:10532800A2EC21F000018F6F906B00018F1F901F7E
:105338008F4B902B070E00018F27000E9023010141
:1053480001015C510001916F926B00019251800A3A
:105358000001936F00018F510001915D0001905190
:10536800800A00019359D8B00DD00B0E010101013C
:105378005E6108D000018D6F010E00010001956F7C
:1053880000018D51000100019551010B010101013E
:1053980061190009D8B434D0010101015B05D8A412
:1053A8002FD0010101016151D8A402D0010E01D012
:1053B800000E01010101616F010101016151D8B4C1
:1053C8000BD000018D6F020E00010001966F0001E5
:1053D8008D51B1EC2DF014D0010101015B51D8B40D
:1053E80004D0010101015B070BD000018D6F000E95
:1053F800010101015B6F00018D51010101015C0791
:1054080012000F0E0001826F00017EC083F00001C0
:105418007FC084F0000180C085F00001822900016E
:10542800866F05D00001D89085338433833300011B
:10543800862FF8D700018351000100018C6F00010D
:105448008C6701D061D0170E0001826F00017EC009
:1054580083F000017FC084F0000180C085F0000166
:1054680082290001866F05D00001D89085338433E6
:1054780083330001862FF8D7000183510001000112
:10548800876F000100017F8FFF0E000100017E176A
:10549800FF0E000100017F17000E000100018017B8
:1054A800000100017E5100010001886F0001000128
:1054B8007F510001896F0001805100018A6F00014E
:1054C8008B6B8E0E000100018C5F000100018CAF18
:1054D80016D0000100018C51800A8F0FD8A014D07B
:1054E8000001D89000018B3300018A330001893311
:1054F80000018833000100018C3FF2D724D0170E39
:10550800000100018C651BD0000E000100017E6FB8
:10551800000E00017F6F000E0001806F000E000179
:10552800816F2ED00001D89000018837000189379B
:1055380000018A3700018B37000100018C07000148
:1055480000018C67EFD7000100018751D8B410D053
:10555800000100018B1F00018A1F0001891F000143
:10556800886D000E0001892300018A2300018B2326
:1055780088C07EF089C07FF08AC080F08BC081F03F
:105588001200000100016351D8B409D000010001E4
:1055980060510001611100016211D8A418D0000EF9
:1055A80000010001606F000E00010001616F000E34
:1055B80000010001626F91D000010001632B00011E
:1055C800D890000162330001613300016033000E9E
:1055D8000001000160150001656F000E0001000167
:1055E80061150001666FFE0E0001000162150001E1
:1055F800676F0001655166116711D8B418D0DCD700
:1056080000010001632B010E000100016027000E5C
:10561800000100016123000E000100016223000166
:10562800D890000162330001613300016033000E3D
:105638000001000160150001656F000E0001000106
:1056480061150001666FFF0E00010001621500017F
:10565800676F0001655166116711D8B40CD0D0D7B7
:105668000001000163070001D890000160370001C4
:105678006137000162370001000161AFF1D7000115
:10568800000163B103D000010001619F0001D890BF
:1056980063330001000163510001676F666B656B3E
:1056A800000165510001000160130001665100010D
:1056B800000161130001675100010001621300013C
:1056C80000016451D8B403D000010001628F60C0AA
:1056D80060F061C061F062C062F012000001F16F19
:1056E800000E00010001F86F0001F15100010001F6
:1056F800F05100010001606F0001616B0001626BF5
:105708000001636B6EEC30F0000100016051000194
:105718000001F81300010001F05100010001606F61
:105728000001616B0001626B0001636B6EEC30F08D
:10573800000100016051FF0A00010001F01700019B
:10574800F05100010001F26F0001F36B0001F46BEE
:105758000001F56BF2C060F0F3C061F0F4C062F0D4
:10576800F5C063F06EEC30F00001000160510001FB
:105778000001F81300010001F851FF0A00010001BF
:10578800F01700010001FB670CD0F8C084F07F0E11
:1057980000010001866FF80E0001856F7FEC1CF098
:1057A8000BD0F8C084F07F0E00010001866FFB0E5D
:1057B8000001856F7FEC1CF07F0E00010001F76F80
:1057C800E50E0001F66FF6C0BBF0F7C0BCF07F0E27
:1057D80000010001BE6FF40E0001BD6F0001000161
:1057E800F05100010001606F0001616B0001626B04
:1057F8000001636B79EC36F00001F16F0001F151A3
:1058080000010001BF6F0001C06B57C0C1F058C054
:10581800C2F059C0C3F08EEC00F0F0C084F0F6C0BE
:1058280085F0F7C086F07FEC1CF0120000016D6F68
:10583800000E00010001736F00016D5100010001AD
:105848006CAF0FD0000100016B6D00016C1FD8B068
:105858006C2B00016D6F010E00010001736F0001D8
:105868006D51000100016AAF0BD000010001696DA4
:1058780000016A1FD8B06A2B010E00010001731BDA
:10588800000E00010001756F000E0001746F000129
:1058980000016C516B11D8B443D000016D6F010E3B
:1058A80000010001726F00016D5109D00001000173
:1058B8000001D8906B376C3700010001722B000192
:1058C80000016CAFF3D7000100010001D8907437D4
:1058D8007537000100016B5100010001695D00018D
:1058E80000016C51000100016A59D8A00FD00001D5
:1058F80000016B5100010001695F000100016C515A
:10590800000100016A5B00010001748100010001CF
:105918000001D8906C336B3300010001722FD3D78C
:10592800000100017351D8B407D000010001746D63
:105938000001751FD8B0752B74C069F075C06AF086
:1059480012000600EACF14F1E1CF15F1E2CF16F10B
:10595800D9CF17F1DACF18F1F3CF19F1F4CF1AF143
:10596800F6CF1BF1F7CF1CF1F8CF1DF1F5CF1EF1E3
:105978009DA001D001D04ED09EA001D001D04AD028
:105988009E90CD90000ECF6E000ECE6E00010001ED
:10599800F94BFA2B030E0001F95D000E0001FA59CC
:1059A800D8A001D001D034D0000E00010001FA6F58
:1059B800000E0001F96F060ECF6EEB0ECE6ECD8095
:1059C8000101106F000E00010001966F01011051D6
:1059D800B1EC2DF026EC23F020EE01F05A50D92638
:1059E8005B50DA22DF5000010001F06F20EE03F077
:1059F8005A50D9265B50DA2201D80AD00500FA6E2F
:105A0800DE50FD6EDE50FE6EF850FF6EFA5012004A
:105A1800040000D0F28E1EC1F5FF1DC1F8FF1CC1A5
:105A2800F7FF1BC1F6FF1AC1F4FF19C1F3FF18C134
:105A3800DAFF17C1D9FF16C1E2FF15C1E1FF14C192
:105A4800EAFF13C1E9FF12C1FBFF11C1FAFF110000
:105A5800000E000100016E6F000E00016F6F000E56
:105A68000001706F000E0001716F000100016751A5
:105A7800641165116611D8B467D00001686F010E12
:105A880000010001726F000168510DD00001D8902B
:105A98000001643700016537000166370001673788
:105AA80000010001722B0001000167AFEFD7000170
:105AB800D89000016E3700016F3700017037000180
:105AC800713700010001645100010001605D0001AF
:105AD8000001655100010001615900010001665192
