:0400000051EF00F0CC
:10000800FACF12F0FBCF13F0E9CF14F06AED04F049
:10001800D8CF01F0E8CF02F0E0CF03F0FACF04F038
:10002800FBCF05F0E9CF06F0EACF07F0E1CF08F003
:10003800E2CF09F0D9CF0AF0DACF0BF0F3CF0CF00A
:10004800F4CF0DF0F6CF0EF0F7CF0FF0F8CF10F099
:10005800F5CF11F011C0F5FF10C0F8FF0FC0F7FF82
:100068000EC0F6FF0DC0F4FF0CC0F3FF0BC0DAFFA3
:100078000AC0D9FF09C0E2FF08C0E1FF07C0EAFFD4
:1000880006C0E9FF05C0FBFF04C0FAFF03C0E0FF9C
:0E00980002C0E8FF01C0D8FF10009EEF04F088
:100800003F065B4F666D7C077F67000061480053C1
:1008100000777C585E79716F74100F683837545CBC
:100820007367506D781C1C7E766E5B010000000AB9
:1008300000000064000000E803000010270000A092
:1008400086010040420F008096980000E1F5050007
:10085000CA9A3B010000000A00000064000000E8A2
:1008600003000010270000A086010040420F008016
:1008700096980000E1F50500CA9A3B00803FCDCC78
:100880003DD7233C12833AB7D138C627373886354F
:10089000C0D633CC2B32708930E7DB2EE53C1E42CC
:1008A000A20D00803F00204100C842007A44401C55
:1008B0004650C34724744997184BBCBE4C6B6E4ED0
:1008C00003155079AD60F34971252E2A6600252A5B
:1008D0006C6900000600EACF15F0E1CF16F0E2CF18
:1008E00017F0D9CF18F0DACF19F0F3CF1AF0F4CF10
:1008F0001BF0F6CF1CF0F7CF1DF0F8CF1EF0F5CFB0
:100900001FF01FC0F5FF1EC0F8FF1DC0F7FF1CC081
:10091000F6FF1BC0F4FF1AC0F3FF19C0DAFF18C0BE
:10092000D9FF17C0E2FF16C0E1FF15C0EAFF14C0EF
:10093000E9FF13C0FBFF12C0FAFF110000EE25F023
:10094000160EEE6AE806FDE1720EF66E090EF76EFF
:10095000000EF86E00EE3BF010EE09F00900F5CF46
:10096000EEFFE550E150FAE1000EF86E0001BEEF37
:1009700004F030303030303030300000C2EC04F061
:0A09800051EF00F0F28EF28C12002D
:020000040020DA
:08000000FFFFFFFFFFFFFFFF00
:020000040030CA
:0E000000330C1F1FFF8101FF0FC00FE00F40E8
:00000001FF
