:020000000F28C7
:10000800DE00030E8312A8000408A9000A08AA004B
:100018005F08AB0057288316FF2390008312AB2894
:10002800831285193528051E14280310851A031410
:10003800003003180130A000A1012708A3002608FA
:10004800A2000310A20DA30D20082204A400210879
:100058002304A5002408A6002508A700051E1428C7
:1000680032282708A1002608A0000430DF00210D4F
:10007800A10CA00CDF0B3B282008A2002208B2002C
:100088002708A1002608A000210DA10CA00C210D15
:10009800A10CA00C2008A2002208B1002608A0008C
:1000A8002008B0000800831696190B1C60280B1056
:1000B80083128519602814208B1A0B1D7E280B11BA
:1000C8008312B20803196B28831205146D28831252
:1000D8000510B10803197328831285147528831233
:1000E8008510B00803197B28831205157D28831213
:1000F8000511810183122B08DF002A088A002908CC
:100108008400280E8300DE0E5E0E090083169F0110
:1001180005108510051185150516851681128B1693
:100128000B11831281018B17831696150B108115FD
:10013800831232080102031805103108010203185E
:10014800851030080102031C9C2805119C28B00169
:08015800B101B20183018A2804
:02400E00DC31A3
:00000001FF
