:020000000F28C7
:10000800DE00030E8312A4000408A5000A08A60057
:100018005F08A7006F288316FF2390008312142817
:10002800B80183011728AB208312101485143708F0
:10003800360435043404031D1B28851010100030C5
:100048008F0001308E000030B7000030B60000305D
:10005800B5000130B4000B16B801B80A0514B80889
:1000680003191828023085060030B3000730B200A3
:10007800A130B1002030B0000130AC000030AD003C
:100088000030AE000030AF002C08B0022D08031C71
:100098002D0F4F285028B1022E08031C2E0F55286B
:1000A8005628B2022F08031C2F0F5B285C28B302C6
:1000B800FF303306031D6A28FF303206031D6A2805
:1000C800FF303106031D6A28FF303006031D402823
:1000D8000130850633288B1383160C1C972883124E
:1000E8000C1C97280C108E018F010130A0000030E5
:1000F800A1000030A2000030A3002008B4022108AB
:10010800031C210F88288928B5022208031C220F06
:100118008E288F28B6022308031C230F94289528BD
:10012800B702023085060B1A8B1C9E288B1083128F
:10013800B8010B128B1783122708DF0026088A00E4
:1001480025088400240E8300DE0E5E0E09000000E0
:0C01580083169F01850183120514B12855
:02400E008131FE
:00000001FF
