:020000000F28C7
:10000800DE00030E8312A4000408A5000A08A60057
:100018005F08A7006C288316FF2390008312CB2863
:10002800A8208312101485143708360435043404C4
:10003800031D18288510101000308F0001308E0025
:100048000030B7000030B6000030B5000130B40011
:100058000B16B801B80A0514B80803191528023098
:1000680085060030B3000730B200A130B10020305F
:10007800B0000130AC000030AD000030AE00003000
:10008800AF002C08B0022D08031C2D0F4C284D285A
:10009800B1022E08031C2E0F52285328B2022F0833
:1000A800031C2F0F58285928B302FF303306031DAD
:1000B8006728FF303206031D6728FF303106031D0D
:1000C8006728FF303006031D3D280130850630289B
:1000D8008B1383160C1C942883120C1C94280C1068
:1000E8008E018F010130A0000030A1000030A20075
:1000F8000030A3002008B4022108031C210F852822
:100108008628B5022208031C220F8B288C28B602E9
:100118002308031C230F91289228B7020230850672
:100128000B1A8B1C9B288B108312B8010B128B1790
:1001380083122708DF0026088A0025088400240E79
:100148008300DE0E5E0E090083169F01850183126F
:100158008501831681130515831285168B170B17D6
:100168003030900000308F0001308E000030B70032
:100178000030B6000030B5000130B40083160C140E
:1001880083120C100B168B10831601170800B80188
:0401980083011428A3
:02400E00E4319B
:00000001FF
