:020000000F28C7
:10000800DE00030E8312A1000408A2000A08A30060
:100018005F08A40019288316FF2390008312142870
:10002800A501A601A70183014C280B198B1E4128A5
:100038000B110130A0002008A5070130A0002008FE
:10004800A6070130A0002008A7072508033A031DCA
:1000580031280130A0002008A5002608063A031D13
:1000680039280130A0002008A6002708053A031DFA
:1000780041280130A0002008A7002408DF00230839
:100088008A0022088400210E8300DE0E5E0E09001D
:100098008312051505108510831681110115811429
:1000A800011481120112831285148B160B118B1700
:1000B800CA30831685008312051585140514250892
:1000C800013A031905112508023A031905152608EE
:1000D800013A031985102608023A031985142708DE
:1000E800013A031905102708023A031D63286228FC
:02400E008131FE
:00000001FF
