:020000000F28C7
:10000800DE00030E8312A1000408A2000A08A30060
:100018005F08A40014288316FF23900083126F281A
:100028000B1D3B280B110130A0002008A50701304B
:10003800A0002008A6070130A0002008A70725086F
:10004800033A031D2B280130A0002008A50026082C
:10005800063A031D33280130A0002008A60027080F
:10006800053A031D3B280130A0002008A7002408FA
:10007800DF0023088A0022088400210E8300DE0E98
:100088005E0E090083168111011181140114811279
:1000980001128B160B118B17CA30850083120516B7
:1000A800851605142508013A031905122508023A90
:1000B800031905162608013A031985122608023A7B
:1000C800031985162708013A031905102708023A6B
:1000D800031D56285528A501A601A7018301462816
:02400E009431EB
:00000001FF
